:020000040800F2
:1000000000000320E53D0008312700083F270008D5
:10001000452700084B270008512700080000000072
:10002000000000000000000000000000572700084A
:1000300065270008000000007327000881270008DA
:10004000393E0008393E0008393E0008F72700080D
:10005000393E0008393E0008393E0008393E0008A4
:10006000393E0008393E0008E9270008393E0008FB
:10007000393E0008393E00088D270008393E000847
:10008000393E0008393E0008393E0008393E000874
:10009000393E0008393E0008393E0008393E000864
:1000A000393E0008393E0008393E0008393E000854
:1000B000393E0008393E0008393E0008393E000844
:1000C000393E0008393E0008393E0008393E000834
:1000D000A1270008B5270008393E0008393E00086E
:1000E000393E0008393E0008393E0008393E000814
:1000F0000F28000803280008C9270008393E000817
:10010000393E0008393E0008393E0008393E0008F3
:10011000393E0008393E0008393E0008393E0008E3
:10012000393E0008393E0008D5270008393E00084E
:0C013000393E0008393E0008393E000846
:1001400010B5054C237833B9044B13B10448AFF311
:1001500000800123237010BD2C020020000000004D
:10016000B4BF000808B5034B1BB103490348AFF304
:10017000008008BD0000000030020020B4BF00086D
:10018000034613F8012B002AFBD1181A01387047D7
:1001900001F0FF01102A2BDB10F0070F08D010F838
:1001A000013B013A8B422DD010F0070F42B3F6D13C
:1001B000F0B441EA012141EA014122F007047FF055
:1001C00000070023F0E80256083C85EA010586EAAC
:1001D000010685FA47F5A3FA87F586FA47F6A5FAE8
:1001E00087F68EB9EED1F0BC01F0FF0102F00702F4
:1001F00032B110F8013B013A83EA010313B1F8D19F
:100200000020704701387047002D06BF354603387F
:10021000073815F0010F07D1013015F4807F02BFB8
:10022000013015F4C03F0130F0BC0138704700BF09
:1002300053B94AB9002908BF00281CBF4FF0FF314D
:100240004FF0FF3000F072B9ADF1080C6DE904CE4B
:1002500000F006F8DDF804E0DDE9022304B07047A1
:100260002DE9F047089E04468846002B4BD18A4270
:10027000154667D9B2FA82F24AB1C2F1200701FAF3
:1002800002F320FA07F7954047EA030894404FEA43
:10029000154E230CB8FBFEF71FFA85FC0EFB1788E2
:1002A00043EA084307FB0CF1994209D9EB1807F11F
:1002B000FF3080F01B81994240F21881023F2B44AD
:1002C0005B1AA4B2B3FBFEF00EFB103344EA034406
:1002D00000FB0CFCA44509D92C1900F1FF3380F078
:1002E0000781A44540F2048102382C4440EA0740CB
:1002F000A4EB0C0400271EB1D4400023C6E9004340
:100300003946BDE8F0878B4209D9002E00F0EB801A
:100310000027C6E9000138463946BDE8F087B3FA40
:1003200083F7002F47D18B4202D3824200F2FA803A
:10033000841A61EB030301209846002EE0D0C6E941
:100340000048DDE702B9FFDEB2FA82F2002A40F08F
:100350008F80491B4FEA154E1FFA85F80127B1FB24
:10036000FEFC230C0EFB1C1143EA014308FB0CF1BD
:10037000994207D9EB180CF1FF3002D2994200F2F2
:10038000CD808446591AA3B2B1FBFEF00EFB1014C7
:1003900043EA044408FB00F8A04507D92C1900F1F2
:1003A000FF3302D2A04500F2B6801846A4EB080441
:1003B00040EA0C409FE7C7F1200CBB4022FA0CFE3C
:1003C0004EEA030E01FA07F420FA0CF521FA0CF3B9
:1003D0004FEA1E482543B3FBF8F92C0C08FB1933F0
:1003E0001FFA8EFA44EA034309FB0AF49C4202FA1C
:1003F00007F200FA07F10BD91EEB030309F1FF30F6
:1004000080F087809C4240F28480A9F10209734405
:100410001B1BADB2B3FBF8F008FB103345EA0344F5
:1004200000FB0AFAA24508D91EEB040400F1FF33D1
:100430006BD2A24569D90238744440EA0940A0FB56
:100440000289A4EB0A044C45C2464B4654D351D012
:10045000002E69D0B1EB0A0564EB030404FA0CFC2E
:10046000FD40FC404CEA0505C6E90054002747E77B
:10047000C2F1200320FA03F7954001FA02F021FAB5
:1004800003F34FEA154E3843010CB3FBFEF71FFA96
:1004900085F80EFB173341EA034107FB08F38B4253
:1004A00004FA02F407D9691807F1FF3C2FD28B42F6
:1004B0002DD9023F2944CB1A81B2B3FBFEF00EFBCB
:1004C000103341EA034100FB08F38B4207D9691856
:1004D00000F1FF3C17D28B4215D902382944C91AC2
:1004E00040EA07473BE73746304609E70746E7E675
:1004F0001846FBE64145ABD2B8EB020A69EB0E02A7
:1005000001381346A4E76046E9E7184695E76746D1
:10051000D1E781467CE702382C4447E7ACF1020C76
:100520002B442FE7384608E73746E9E6704700BF17
:1005300080B483B000AF7860064BD3F890200549B3
:100540007B681343C1F8903000BF0C37BD465DF89F
:10055000047B70470008005880B485B000AF786015
:100560004FF0B043DA6C4FF0B0417B681343CB647B
:100570004FF0B043DA6C7B681340FB60FB6800BF50
:100580001437BD465DF8047B704780B485B000AF7A
:1005900078604FF0B043D3F84C214FF0B0417B6806
:1005A0001343C1F84C314FF0B043D3F84C217B6872
:1005B0001340FB60FB6800BF1437BD465DF8047B49
:1005C000704780B500AF03F0DBFE03F0DFFE4FF4B1
:1005D0008030FFF7ADFF08F0E9FE00F021F800F0F1
:1005E000BFF800BF80BD0000B0B588B000AF0B4BB6
:1005F0003C1D1D460FCD0FC495E8070003C42280A3
:100600000234130C23700AF081FA3B1D184609F0DE
:1006100078F900BF2037BD46B0BD00BFCCBF000891
:1006200080B588B000AF3B1D00221A605A609A6006
:10063000DA601A610023BB8300237B8300233B83A2
:100640000023FB7733E0FB7F424ADB0013449B79B6
:10065000002B28D0FB7F3F4A52F833303E4A93426A
:100660000FD03E4A934215D0B3F1904F00D01BE01B
:10067000FB7F384ADB0013449A88BB8B1343BB8350
:1006800012E0FB7F334ADB0013449A887B8B1343D1
:100690007B8309E0FB7F2F4ADB0013449A883B8B66
:1006A00013433B8300E000BFFB7F0133FB77FB7FFD
:1006B000212BC8D90023FB600123BB6003233B61CE
:1006C000BB8B002B14D0BB8B7B600120FFF744FF5A
:1006D0000120FFF75AFF3B1D19464FF0904004F0F0
:1006E00007FBBB8B002219464FF0904004F070FCD2
:1006F0007B8B002B12D07B8B7B600220FFF72CFFC3
:100700000220FFF742FF3B1D1946134804F0F0FAA0
:100710007B8B00221946104804F05AFC3B8B002BBF
:1007200013D03B8B7B600420FFF716FF0420FFF7FC
:100730002CFF3B1D1946094804F0DAFA3B8B0022D6
:100740001946064804F044FC00BF00BF2037BD46F0
:1007500080BD00BFE4C50008000400480008004850
:1007600080B400AF00BFBD465DF8047B704780B524
:1007700000AF01F0CBFC00BF80BD80B584B000AFFE
:10078000F8600B467A607B817A897B68F968002083
:1007900001F00AFA00BF1037BD4680BD80B483B0B7
:1007A00000AF7860074BD3F8803023F0070205498B
:1007B0007B681343C1F8803000BF0C37BD465DF83D
:1007C000047B70470004005880B483B000AF7860A9
:1007D0004FF0B0439B6823F400424FF0B0417B6878
:1007E00013438B6000BF0C37BD465DF8047B704738
:1007F00080B500AF00F014F80849002000F03CFF7D
:10080000FFF7DFFE012101200AF0C8F900F067F8C8
:1008100000F075F800F012F800BF80BD7C1C0020CD
:1008200080B500AF4FF40040FFF7CEFF0AF0A4F907
:100830000420FFF7B3FF00BF80BD000080B588B083
:1008400000AF09F0C7FF114A002180200AF0B4FA76
:100850000F4B3B600F4B7B603B4619460E4809F03F
:1008600067F80E4BBB600E4BFB600E4B3B6140F2DA
:100870003C537B6107F1080318460AF0BDF809F004
:10088000A3FF00BF2037BD4680BD00BF69990008A7
:1008900024070320A9080008BF0800083C0903201A
:1008A00030080320E801032080B483B000AF034682
:1008B000FB7100BF0C37BD465DF8047B704780B507
:1008C00082B000AF7860FFF78FFE02F059F8002188
:1008D00001200AF063F900BF0837BD4680BD80B52E
:1008E00000AF002003F0C2FA012003F0BFFA02209B
:1008F00003F0BCFA012003F0F3FA00BF80BD80B51D
:1009000000AF0121002003F01FFB00BF80BD80B4B9
:1009100000AF00BFBD465DF8047B704780B582B074
:1009200000AF786039604FF0FF300AF065F900BF22
:100930000837BD4680BD80B582B000AF7860002129
:1009400080200AF059FA00BF0837BD4680BD80B547
:1009500082B000AF786002200AF0B4FA00BF083716
:10096000BD4680BD80B582B000AF786002200AF03D
:10097000C7FA00BF0837BD4680BD80B582B000AF62
:100980000346FB80FB88022B0AD0102B02D0012BE0
:1009900003D008E002F0F2FA05E002F0FFFA02E00C
:1009A00002F003FB00BF00BF0837BD4680BD00005A
:1009B00080B400AF054BDB68044A43F40043D360C6
:1009C00000BFBD465DF8047B704700BF00040058BF
:1009D00080B483B000AF7860064BD3F8D4200549CB
:1009E0007B681343C1F8D43000BF0C37BD465DF8B7
:1009F000047B70470008005880B483B000AF786073
:100A0000054B1A6A04497B6813430B6200BF0C371D
:100A1000BD465DF8047B70470008005880B485B07F
:100A200000AF78604FF0B0431A6D4FF0B0417B6873
:100A300013430B654FF0B0431A6D7B681340FB60A6
:100A4000FB6800BF1437BD465DF8047B704780B477
:100A500083B000AF78607B681B6843F480327B68AA
:100A60001A6000BF0C37BD465DF8047B704780B448
:100A700083B000AF78607B681B6843F001027B683D
:100A80001A6000BF0C37BD465DF8047B704780B428
:100A900083B000AF786039607B685A683B681B049C
:100AA000DB431A407B685A6000BF0C37BD465DF8D7
:100AB000047B704780B483B000AF786039607B6896
:100AC0005A683B681B041A437B685A6000BF0C37A6
:100AD000BD465DF8047B704780B483B000AF78609A
:100AE00039607B685A683B68DB431A407B685A6010
:100AF00000BF0C37BD465DF8047B704780B483B0FF
:100B000000AF786039607B683A689A6000BF0C3744
:100B1000BD465DF8047B704780B483B000AF786059
:100B200039603B681A047B689A6000BF0C37BD4689
:100B30005DF8047B704780B483B000AF78603960A3
:100B40007B68DA683B6813403A689A4201D1012316
:100B500000E0002318460C37BD465DF8047B704763
:100B600080B483B000AF786039607B68DA693B6835
:100B700013403A689A4201D1012300E0002318464D
:100B80000C37BD465DF8047B7047000080B500AFB0
:100B900002211948FFF7E4FF0346002B09D0164B4A
:100BA0005B68DB4303F00203002B02D000F0E6F8A1
:100BB0001FE001211048FFF7D3FF0346002B08D0A8
:100BC0000D4B5B6803F00103002B02D100F09AF893
:100BD0000FE008210848FFF7C3FF0346002B09D0A8
:100BE000054B5B68DB4303F00803002B02D000F0E9
:100BF00011F900BF00BF80BD000C005880B500AFE8
:100C000002212248FFF797FF0346002B09D11F4B13
:100C10005B68DB4303F40033002B02D000F0A2F842
:100C200031E002211948FFF786FF0346002B09D166
:100C3000164B5B68DB4303F40033002B02D000F05B
:100C400091F820E008211148FFF775FF0346002BBB
:100C500009D10E4B5B68DB4303F40023002B02D069
:100C600000F0BAF80FE020210848FFF764FF0346C0
:100C7000002B09D1054B5B68DB4303F40013002B09
:100C800002D000F04BF800BF00BF80BD000C005840
:100C900080B500AF4FF40070FFF79AFE4FF400707C
:100CA000FFF7AAFE40BF20BFFFF782FE00BF80BD56
:100CB00080B500AF4FF48010FFF7B0FE0648FFF795
:100CC000D6FE0548FFF7C3FE2C2003F0B8FC2D200C
:100CD00003F0B5FC00BF80BD000C005880B500AF2C
:100CE00001210248FFF7F8FE00BF80BD000C00584C
:100CF00080B500AF01210248FFF70EFF00BF80BDA5
:100D0000000C005880B500AF09F0E6FD0121024853
:100D1000FFF7F4FE00BF80BD000C005880B500AFA7
:100D200020210348FFF7C6FE09F0F2FD00BF80BD99
:100D3000000C005880B500AF02210248FFF7CCFE3E
:100D400000BF80BD000C005880B500AF02210448F0
:100D5000FFF7E2FE02210248FFF799FE00BF80BDC7
:100D6000000C005880B500AF02210348FFF7A2FE37
:100D700009F016FE00BF80BD000C005880B500AF22
:100D800009F01EFE02210248FFF7B8FE00BF80BD39
:100D9000000C005880B582B000AF786008210C4884
:100DA000FFF7C9FE0346002B07D00A4A7B68136091
:100DB00008210748FFF76BFE06E07B68984708218B
:100DC0000348FFF7A9FE00BF0837BD4680BD00BF3E
:100DD000000C00584802002080B500AF08210648EA
:100DE000FFF768FE054B1B68984708210248FFF78C
:100DF00093FE00BF80BD00BF000C005848020020D9
:100E000080B500AF08210248FFF766FE00BF80BD35
:100E1000000C005880B500AF09F08AFE0821024896
:100E2000FFF76CFE00BF80BD000C005880B483B09B
:100E300000AF7860064BD3F8802005497B681343E8
:100E4000C1F8803000BF0C37BD465DF8047B7047A9
:100E50000008005880B483B000AF7860054B1A6872
:100E600004497B6813430B6000BF0C37BD465DF837
:100E7000047B70470008005880B483B000AF0D4B6E
:100E80009B6A9BB27B600B4B9B6A9BB23B6005E00D
:100E90003B687B60074B9B6A9BB23B607A683B6810
:100EA0009A42F5D13B6818460C37BD465DF8047B85
:100EB000704700BF0028004080B485B000AF0346F3
:100EC0000A46FB711346BB71BA791D4913465B0094
:100ED0001344DB000B4415331B78FB73FB7B062BA1
:100EE00009D0FA7B164913465B001344DB000B4420
:100EF0001433FA791A70FA79114913465B001344D6
:100F0000DB000B441533FA7B1A70FA790C4913464F
:100F10005B001344DB000B441433BA791A70BA79BE
:100F2000074913465B001344DB000B441533FA7981
:100F30001A7000BF1437BD465DF8047B704700BFD0
:100F40009400002080B485B000AF03460A46FB71D0
:100F50001346BB71294B1B78DBB2BA799A4232D067
:100F6000BA79274913465B001344DB000B44143362
:100F70001B78FB73FA7B224913465B001344DB00AA
:100F80000B441533FA791A70FA791D4913465B0040
:100F90001344DB000B441533BA791A70FA791849F7
:100FA00013465B001344DB000B441433FA7B1A70C6
:100FB000BA79134913465B001344DB000B44143326
:100FC000FA791A7014E0FA790D4913465B0013445C
:100FD000DB000B441533BA791A70BA790849134605
:100FE0005B001344DB000B441433FA791A7000BF22
:100FF0001437BD465DF8047B704700BF2401002014
:101000009400002080B584B000AF0346FB714E4BC6
:101010001B78DBB2062B18D14B4B1B78DAB24B4B4B
:101020001A70494AFB791370FA79494913465B00F3
:101030001344DB000B44153306221A70454B4FF066
:10104000FF321A600023FB8178E000F009F90346C3
:10105000FB81FA793E4913465B001344DB000B44E5
:1010600008331968FB89FA791944394813465B003B
:101070001344DB00034408331960FA7934491346FA
:101080005B001344DB000B4408331B68BB602E4B32
:101090001B78DBB219462E4A0B465B000B44DB0083
:1010A000134408331B68BA689A4237D3264B1B781F
:1010B0007B737A7B264913465B001344DB000B44A9
:1010C00015331B783B7313E07A7B214913465B0091
:1010D0001344DB000B4415331B787B737A7B1C496C
:1010E00013465B001344DB000B4415331B783B7342
:1010F0003B7B062B0BD03A7B154913465B00134410
:10110000DB000B4408331B68BA689A42DCD27A7B56
:10111000FB7911461846FFF7CFFE0FE00A4B1B780C
:10112000DAB2FB7911461846FFF70CFF064B1B7825
:10113000DAB2064B1A70044AFB791370FB89184621
:101140001037BD4680BD00BF2401002025010020CE
:10115000940000202801002080B485B000AF034631
:101160000A46FB711346BB71394B1B78DBB2FA7927
:101170009A4211D1364B1B78DAB2364B1A70FA7993
:10118000354913465B001344DB000B4415331B78D1
:10119000DAB22F4B1A703EE0FA792F4913465B0002
:1011A0001344DB000B4414331B78FB73FA792A4990
:1011B00013465B001344DB000B4415331B78BB73F1
:1011C000F979FA7B24480B465B000B44DB000344AF
:1011D00015331B78D8B2204913465B001344DB005B
:1011E0000B44153302461A70BB7B062B13D0F979DA
:1011F000BA7B19480B465B000B44DB0003441433F5
:101200001B78D8B2144913465B001344DB000B442F
:10121000143302461A70FA790F4913465B001344DF
:10122000DB000B440C3301221A70094B1B78DBB234
:10123000062B07D1BB79002B04D1084B4FF0FF32AE
:101240001A6000BF00BF1437BD465DF8047B7047CD
:101250002401002025010020940000202801002006
:1012600080B582B000AF1A4B1B68B3F1FF3F26D0A8
:10127000FFF702FE7860164B1B687A689A4205D821
:10128000134B1A687B68D31A7B600AE0114B1B88EA
:101290001A467B68D31A3B600D4B1B683A681344AF
:1012A0007B600D4B1B781A467B6802FB03F37B6067
:1012B0000A4B1B781A467B68D3407B6001E0002311
:1012C0007B607B689BB218460837BD4680BD00BF77
:1012D000280100205202002051020020500200206C
:1012E00080B582B000AF0346FB80FB88002B08D19D
:1012F000FFF7C2FD0246244B1A60032003F0C7F932
:101300003EE0FB88012B03D8204B1B78012B02D039
:10131000FB88013BFB8000BF1D4B1B681B68DB6823
:1013200003F00403002BF7D0194B1B681B68DB6824
:10133000DAB2174B1B681B6862F49062DA60154BD7
:101340004FF40022DA60032003F0AFF9124B5B691F
:101350001B0C1B04FA88104913434B61FFF78CFDEB
:101360000246094B1A600A4B1B681B689A68084BB7
:101370001B681B6842F480629A60AFF3008000BF74
:101380000837BD4680BD00BF280100205002002064
:101390004C020020000800580028004080B584B0AE
:1013A00000AF474B9B6803F48063B3F5806F08D1AF
:1013B00000BF444B1B681B68DB6803F00403002B71
:1013C000F7D1404B1B681B689A683E4B1B681B6833
:1013D00022F480629A603C4B1B78FB73FA7B3B499A
:1013E00013465B001344DB000B4408331B68BB60EF
:1013F000FFF736FF0346FB80FB88BA689A4205D2A6
:101400000023BB81324B01221A704DE0FB88314A28
:10141000128892B213441A46BB68934206D92D4BE8
:101420001B88BB812A4B00221A703DE0BB689AB230
:10143000FB88D31ABB81264B01221A7034E0FA7B59
:10144000224913465B001344DB000B4408331A683F
:10145000FB889A420AD2FA7B1C4913465B0013446C
:10146000DB000B44083300221A6013E0FA7B1749B3
:1014700013465B001344DB000B4408331968FB88F8
:10148000FA7BC91A114813465B001344DB0003447E
:1014900008331960FA7B0D4913465B001344DB00E7
:1014A0000B4415331B78FB73FB7B062BC7D1BB8921
:1014B0001846FFF715FF00BF1037BD4680BD00BFBF
:1014C000002800404C02002024010020940000204D
:1014D0002C0100205402002080B58AB000AFEFF349
:1014E00010837B617B697B6272B65E4B1B681B68F5
:1014F000CA225A625B4B1B681B6853225A62594BC3
:101500001B681B689A68574B1B681B6822F4806233
:101510009A60554B1B7887F8233097F8232053495E
:1015200013465B001344DB000B440C331B78DBB227
:10153000022B70D197F823204C4913465B001344CB
:10154000DB000B441B68FB6197F8232047491346D7
:101550005B001344DB000B4410331B68BB61444B3E
:101560001B78DBB2002B4ED097F823203F4913465F
:101570005B001344DB000B440D331B78DBB2012B03
:1015800025D197F8233001211846FFF7E5FD7B6A46
:101590003B613B6983F3108897F823203349134656
:1015A0005B001344DB000B4404331A6897F82330C4
:1015B0001146184600F040FA2A4B1B681B68CA22E5
:1015C0005A62284B1B681B6853225A6213E07B6ADD
:1015D000FB60FB6883F3108897F82330184600F00F
:1015E000A1F9204B1B681B68CA225A621D4B1B685D
:1015F0001B6853225A6297F82330FA691946B86972
:1016000000F0A0FA24E0FFF7C9FE7B6ABB60BB686C
:1016100083F310881CE000BF124B1B681B68DB685B
:1016200003F00403002BF7D00E4B1B681B68DB682C
:10163000DAB20C4B1B681B6862F49062DA600D4BE7
:101640004FF40022DA607B6A7B607B6883F310884A
:10165000044B1B681B68FF225A6200BF2837BD4637
:1016600080BD00BF4C020020240100209400002017
:101670002C0100200008005880B586B000AF03465A
:101680003960FB71614A3B681360604B1B681B68E3
:10169000CA225A625D4B1B681B6853225A625C4B1C
:1016A0009B685B4A43F020039360594B9B68DBB215
:1016B00003F00703DBB2C3F10403DAB2554B1A702F
:1016C000534B1B6903F4FE034FF4FE02FA60FA6801
:1016D00092FAA2F2BA60BA68B2FA82F2D2B2D340F7
:1016E000DBB20133DAB24C4B1A70494B1B699BB227
:1016F000C3F30E039BB201339AB2484B1A80474B97
:101700001B88013B444A127802FB03F3A3F5A07344
:10171000404A1278D3403B613B694FF6FE729342D8
:1017200004D93F4B4FF6FF721A8003E03B699AB22F
:101730003B4B1A804FF40020FFF78CFB4FF4002046
:10174000FFF774FBFB79002B43D1364B01221A7053
:10175000354B4FF0FF321A600023FB750CE0FA7D29
:10176000324913465B001344DB000B440C33002268
:101770001A70FB7D0133FB75FB7D052BEFD92C4BDC
:1017800006221A70214B1B681B689A681F4B1B6846
:101790001B6822F480629A601C4B1B681B68DB6824
:1017A000DAB21A4B1B681B6862F49062DA60214B54
:1017B0004FF40022DA60032002F077FF134B1B681E
:1017C0001B689A68114B1B681B6842F480429A6040
:1017D0000AE00E4B1B681B68DB6803F48063002B78
:1017E00002D0032002F053FF084B1B681B68FF2246
:1017F0005A6200220321032002F007FF032002F0B7
:101800001EFF00BF1837BD4680BD00BF4C02002040
:101810000028004050020020510200205202002007
:10182000540200202C0100202801002094000020F8
:10183000240100200008005880B48BB000AFF8608D
:10184000B9603B601346FB71002387F82630EFF345
:101850001083FB61FB693B6272B604E097F82630A7
:10186000013387F8263097F82630052B0CD897F8E7
:1018700026202B4913465B001344DB000B440C333A
:101880001B78DBB2002BE9D197F82630062B37D036
:1018900097F82620224913465B001344DB000B44D3
:1018A0000C3301221A703B6ABB61BB6983F3108859
:1018B00097F826201A4913465B001344DB000B44BB
:1018C0001033FA681A6097F82620154913465B0012
:1018D0001344DB000B440D33FA791A7097F8262075
:1018E0000F4913465B001344DB000B443A681A604F
:1018F000BB6897F826201A70002387F8273007E086
:101900003B6A7B617B6983F31088012387F827306A
:1019100097F8273018462C37BD465DF8047B704792
:101920009400002080B586B000AF0346FB71EFF352
:101930001083FB60FB687B6172B6032002F08DFEB2
:10194000374B1B681B68CA225A62354B1B681B68E1
:1019500053225A62FA79334913465B001344DB0081
:101960000B440C331B78DBB2022B48D1FB790021EE
:101970001846FFF7F1FB2C4B1B78FB74FB7C062B06
:1019800035D12A4B9B6803F48063B3F5806F08D18F
:1019900000BF234B1B681B68DB6803F00403002BAC
:1019A000F7D11F4B1B681B689A681D4B1B681B688F
:1019B00022F480629A6000BF194B1B681B68DB68C9
:1019C00003F00403002BF7D0154B1B681B68DB6882
:1019D000DAB2134B1B681B6862F49062DA60144B36
:1019E0004FF40022DA60032002F05FFE07E0114BA3
:1019F0001B78DBB2FA7C9A4201D0FFF7CFFC084B90
:101A00001B681B68FF225A62032002F018FE7B69E4
:101A1000BB60BB6883F3108800BF1837BD4680BD2C
:101A20004C020020940000202401002000280040E7
:101A3000000800582501002080B586B000AF03469D
:101A40003960FB71FA793B4913465B001344DB00B4
:101A50000B440C331B78DBB2022B03D1FB79184605
:101A6000FFF760FFEFF31083FB60FB687B6172B6EA
:101A7000032002F0F2FD304B1B681B68CA225A6239
:101A80002D4B1B681B6853225A62FA792949134669
:101A90005B001344DB000B440C3302221A70FA790A
:101AA000244913465B001344DB000B4408333A68B7
:101AB0001A60FA791F4913465B001344DB000B449C
:101AC00004333A681A60FB791846FFF79BFA03461D
:101AD0007B821A4B1B787B74194B1B78DBB27A7CA8
:101AE0009A4202D0FFF75AFC13E0FA7911491346E3
:101AF0005B001344DB000B44083319687B8AFA79D6
:101B0000C91A0C4813465B001344DB000344083336
:101B10001960094B1B681B68FF225A62032002F000
:101B20008EFD7B69BB60BB6883F3108800BF1837EC
:101B3000BD4680BD940000204C02002024010020FE
:101B40002501002080B584B000AFF8600B467A60B4
:101B5000FB727B68984700BF1037BD4680BD000010
:101B600080B584B000AFB9607B600346FB73134659
:101B7000BB81FB7B002B00D00CE0084A7B68136024
:101B8000074B084A1A60BB891A46B968044805F031
:101B90000FFA00BF00BF1037BD4680BDFC1A002001
:101BA000F01B00200038014080B586B000AFB9605E
:101BB0007B600346FB731346BB810023FB75002348
:101BC000BB75FB7B002B00D00EE0174A7B681360CF
:101BD000164B174A1A60BB891A46B968134805F0B4
:101BE000BFFA0346FB7500BFFB7D032B16D801A28D
:101BF00052F823F0051C00080B1C0008111C0008FB
:101C0000171C00080023BB7509E00123BB7506E023
:101C10000223BB7503E00323BB7500E000BFBB7D5F
:101C200018461837BD4680BD001B0020F01B002061
:101C30000038014080B582B000AF78607B681B68D7
:101C40001A46084B9A4200D007E0074B1B68002B4E
:101C500002D0054B1B68984700BF00BF0837BD4640
:101C600080BD00BF00380140FC1A002080B582B062
:101C700000AF78607B681B681A46084B9A4200D018
:101C800007E0074B1B68002B02D0054B1B689847E9
:101C900000BF00BF0837BD4680BD00BF003801400F
:101CA000001B002080B483B000AF7860074BD3F8EE
:101CB00080207B68DB4305491340C1F8803000BFBA
:101CC0000C37BD465DF8047B704700BF0008005824
:101CD00080B483B000AF7860074BD3F890207B6866
:101CE000DB4305491340C1F8903000BF0C37BD46B7
:101CF0005DF8047B704700BF0008005880B483B0D3
:101D000000AF78604FF0B0430A4AC3F89C204FF010
:101D1000B043D3F89C3023F47C527B681B024FF015
:101D2000B0411343C1F89C3000BF0C37BD465DF88D
:101D3000047B7047FECAFECA80B483B000AF7860EF
:101D40004FF0B043D3F8903023F018024FF0B04179
:101D50007B681343C1F8903000BF0C37BD465DF877
:101D6000047B704780B400AF4FF0B043D3F890309D
:101D70004FF0B04243F48033C2F8903000BFBD460C
:101D80005DF8047B704780B400AF4FF0B043D3F8E8
:101D900090304FF0B04223F48033C2F8903000BF4F
:101DA000BD465DF8047B704780B400AF4FF0B04390
:101DB000D3F8943003F08063B3F1806F01D1012335
:101DC00000E000231846BD465DF8047B704780B4F0
:101DD00000AF4FF0B043D3F8943003F08053B3F129
:101DE000805F01D1012300E000231846BD465DF865
:101DF000047B704780B485B000AF78604FF0B0438B
:101E00009A6C4FF0B0417B6813438B644FF0B04342
:101E10009A6C7B681340FB60FB6800BF1437BD46BB
:101E20005DF8047B704780B485B000AF78604FF0F8
:101E3000B043DA6C4FF0B0417B681343CB644FF092
:101E4000B043DA6C7B681340FB60FB6800BF14375B
:101E5000BD465DF8047B704780B485B000AF786004
:101E60004FF0B0431A6D4FF0B0417B6813430B65E0
:101E70004FF0B0431A6D7B681340FB60FB6800BFF6
:101E80001437BD465DF8047B704780B483B000AF63
:101E9000786039607B685A683B681B041A437B682A
:101EA0005A6000BF0C37BD465DF8047B704780B4B4
:101EB00083B000AF786039607B685A683B681A432A
:101EC0007B685A6000BF0C37BD465DF8047B7047E5
:101ED00080B483B000AF786039607B685A693B6832
:101EE0001B041A437B685A6100BF0C37BD465DF87E
:101EF000047B704780B483B000AF786039607B6842
:101F00005A693B681A437B685A6100BF0C37BD466B
:101F10005DF8047B704780B483B000AF78603960AF
:101F20007B683A689A6000BF0C37BD465DF8047B59
:101F3000704780B483B000AF786039607B683A68DE
:101F40009A6100BF0C37BD465DF8047B7047000006
:101F500080B400AF054B1B69044A23F004031361EE
:101F600000BFBD465DF8047B704700BF00ED00E098
:101F700080B483B000AF78607B68FF225A6200BFF4
:101F80000C37BD465DF8047B704780B483B000AF6A
:101F900078607B68CA225A627B6853225A6200BF0B
:101FA0000C37BD465DF8047B704780B483B000AF4A
:101FB000786039607B689B6823F007023B681A43AE
:101FC0007B689A6000BF0C37BD465DF8047B7047A4
:101FD00080B500AF02F042F900F067F900F051F966
:101FE00000F014F800F046F900F0A1F900F035F91E
:101FF00000F016F900F0D8F800F0DEF8FEF7F8FB74
:102000004FF0FF3008F0F8FDFAE7000080B5AEB001
:1020100000AF07F1700348220021184609F02FF89D
:1020200007F1540300221A605A609A60DA601A615C
:102030005A619A613B1D50220021184609F01FF891
:1020400003F01AF80020FFF777FE2F4B1B6823F4EC
:10205000C0632D4A43F4007313602B4B1B6803F4D9
:10206000C0633B603B6807233B674FF480337B676B
:102070000123BB674FF48073FB674023C7F88030B0
:102080000023C7F89C3007F17003184603F0A6FB45
:102090000346002B01D000F07AF96F237B65022301
:1020A000BB650023FB6500233B6600237B660023A2
:1020B000BB660023FB6607F154030121184603F0B9
:1020C00021FF0346002B01D000F061F943F6030322
:1020D0007B600023FB6100233B624FF480737B64D1
:1020E0004FF48043BB640223FB6410233B653B1D1C
:1020F000184604F042FB0346002B01D000F047F9DC
:1021000000BFB837BD4680BD0004005880B500AFA1
:10211000234B244A1A60224B4FF4E1325A60204B81
:1021200000229A601E4B0022DA601D4B00221A61C9
:102130001B4B0C225A611A4B00229A61184B4FF428
:102140000042DA61164B00221A62154B00225A62D5
:10215000134B00229A62124804F0D9FE0346002B6A
:1021600001D000F014F900210D4806F078F803467C
:10217000002B01D000F00BF90021094806F0ADF862
:102180000346002B01D000F002F9054806F02EF8B6
:102190000346002B01D000F0FAF800BF80BD00BF5D
:1021A000F01B00200038014080B400AF00BFBD46E6
:1021B0005DF8047B7047000080B500AF164B174AEE
:1021C0001A60154B00225A60134B0F229A60124B73
:1021D00047F6FF72DA60104B00221A610E4B0022A4
:1021E0009A610D4B0022DA610B4B00225A610A48BA
:1021F00004F049FD0346002B01D000F0C8F8074861
:10220000FFF7C3FE00210548FFF7CFFE0348FFF7A5
:10221000AFFE00BF80BD00BF7C1C00200028004036
:1022200080B500AF0420FFF7E5FD0220FFF7E2FDD7
:102230000120FFF7DFFD00220F210E2002F0E5F95B
:102240000E2002F0FCF900220F213A2002F0DDF905
:102250003A2002F0F4F900BF80BD80B500AF042041
:10226000FFF7E1FD0120FFF7DEFD0220FFF7DBFDB8
:1022700000BF80BD80B400AF00BFBD465DF8047BE9
:10228000704780B582B000AF002007F0FBFA78609D
:102290007B68002B05D07B689B791846FFF72EFDE5
:1022A00000BF00BF0837BD4680BD80B500AF00F05D
:1022B00027F800F003F800BF80BD000080B500AF34
:1022C0004FF48010FFF7C8FD3F210C48FFF723FEB5
:1022D0003F210A48FFF72DFE3F210848FFF7D5FDB3
:1022E0003F210648FFF7F4FD3F210448FFF7DFFDDB
:1022F0003F210248FFF7FEFD00BF80BD000C0058E3
:1023000080B500AFFFF750FD0346002B0DD0FFF75F
:102310005EFD0346002B08D102F0AEFE02F0ACFEDB
:10232000FFF720FDFFF72FFD00BF00BF80BD80B588
:1023300000AF4FF0FF30FFF7B5FC6FF05000FFF734
:10234000C7FC00BF80BD80B584B000AF786001F0ED
:10235000F3FFB8607B68FB60FB68B3F1FF3F0AD016
:1023600002F002F803461A46FB681344FB6002E0E1
:10237000FFF7EEFD30BF01F0DFFF0246BB68D31A66
:10238000FA689A42F4D800BF1037BD4680BD80B4C9
:1023900000AF00BFBD465DF8047B704780B483B0DA
:1023A00000AF78604FF0B043D3F8903023F4407220
:1023B0004FF0B0417B681343C1F8903000BF0C3739
:1023C000BD465DF8047B704780B400AF4FF0B0436A
:1023D000D3F890304FF0B04243F40043C2F890304D
:1023E00000BFBD465DF8047B704780B485B000AF88
:1023F00078604FF0B043DA6C4FF0B0417B68134324
:10240000CB644FF0B043DA6C7B681340FB60FB6831
:1024100000BF1437BD465DF8047B704780B485B0BB
:1024200000AF78604FF0B0431A6D4FF0B0417B6859
:1024300013430B654FF0B0431A6D7B681340FB608C
:10244000FB6800BF1437BD465DF8047B704780B45D
:1024500085B000AF78604FF0B0439A6D4FF0B04157
:102460007B6813438B654FF0B0439A6D7B681340D4
:10247000FB60FB6800BF1437BD465DF8047B704706
:1024800080B485B000AF78604FF0B043DA6D4FF0A4
:10249000B0417B681343CB654FF0B043DA6D7B6886
:1024A0001340FB60FB6800BF1437BD465DF8047B3A
:1024B000704780B485B000AF78604FF0B0431A6EBB
:1024C0004FF0B0417B6813430B664FF0B0431A6E78
:1024D0007B681340FB60FB6800BF1437BD465DF8A6
:1024E000047B704780B500AF4FF40020FFF796FFE4
:1024F000002200212E2002F088F82E2002F09FF802
:1025000000BF80BD80B58CB000AF786007F11C03C0
:1025100000221A605A609A60DA601A617B681B6850
:102520006C4A93426FD10120FFF7AAFF0120FFF709
:102530005CFF0C23FB6102233B6200237B620323CD
:10254000BB620823FB6207F11C0319464FF0904061
:1025500002F0CEFB4023FB6102233B6200237B623F
:102560000023BB620823FB6207F11C0319464FF0EE
:10257000904002F0BDFB584B584A1A60564B11224E
:102580005A60554B10229A60534B0022DA60524B2E
:1025900080221A61504B00225A614F4B00229A61EF
:1025A0004D4B0022DA614C4B00221A624A4802F07D
:1025B0008BF80346002B01D0FFF7E9FE4FF088535C
:1025C000FB6000233B6100233B7500237B750123E7
:1025D000BB6107F10C0319463F4802F049FB034673
:1025E000002B01D0FFF7D3FE7B683B4A5A673A4A7B
:1025F0007B68936200220021252002F006F8252046
:1026000002F01DF861E07B681B68354A93425CD19B
:102610004FF48040FFF74DFF0120FFF7E6FE022058
:10262000FFF7E3FE4FF40063FB6102233B620023EC
:102630007B620023BB620723FB6207F11C03194680
:102640004FF0904002F054FBC023FB6102233B6239
:1026500001237B620323BB620723FB6207F11C0398
:102660001946204802F044FB1F4B204A1A601E4BBB
:102670000F225A601C4B10229A601B4B0022DA601A
:10268000194B80221A61184B00225A61164B002206
:102690009A61154B0022DA61134B00221A6212482C
:1026A00002F012F80346002B01D0FFF770FE7B68A2
:1026B0000D4A5A670C4A7B6893620022002124204D
:1026C00001F0A3FF242001F0BAFF00BF3037BD4660
:1026D00080BD00BF00800040A01C002044000240DC
:1026E0000038014000040048901B002044040240D0
:1026F00080B582B000AF78607B681B680B4A93425C
:1027000010D102F0B9FC02F0B7FC4FF48070FFF773
:1027100045FEFFF759FE4FF48060FFF798FE78689A
:1027200004F09FFB00BF0837BD4680BD0028004075
:1027300080B400AF00BFBD465DF8047B704780B435
:1027400000AFFEE780B400AFFEE780B400AFFEE765
:1027500080B400AFFEE780B400AF00BFBD465DF8B7
:10276000047B704780B400AF00BFBD465DF8047BBA
:10277000704780B400AF00BFBD465DF8047B704772
:1027800080B500AF01F0C4FD00BF80BD80B500AFD3
:10279000024802F01BF900BF80BD00BFA01C002052
:1027A00080B500AF024804F05BFD00BF80BD00BFF4
:1027B000F01B002080B500AF024804F051FD00BFBF
:1027C00080BD00BF041B002080B500AF02F030FCCC
:1027D00000BF80BD80B500AF024802F0F7F800BF2F
:1027E00080BD00BF901B002080B500AF102002F01C
:1027F00007FC00BF80BD80B500AFFEF76DFE00BFD7
:1028000080BD80B500AFFEF7F9F900BF80BD80B58F
:1028100000AFFEF7BBF900BF80BD80B586B000AF4A
:10282000F860B9607A6000237B610AE0AFF3008052
:102830000146BB685A1CBA60CAB21A707B69013380
:102840007B617A697B689A42F0DB7B6818461837AF
:10285000BD4680BD80B483B000AF78604FF0FF33D9
:1028600018460C37BD465DF8047B704780B483B0D2
:1028700000AF786039603B684FF400525A60002323
:1028800018460C37BD465DF8047B704780B483B0B2
:1028900000AF7860012318460C37BD465DF8047B15
:1028A000704780B485B000AFF860B9607A600023EB
:1028B00018461437BD465DF8047B704780B586B076
:1028C00000AF7860144A154BD31A7B617B693B617A
:1028D000134B1B68002B02D1114B124A1A60104B8C
:1028E0001A687B6813443A699A4207D208F092FB4F
:1028F00002460C2313604FF0FF3309E0084B1B68BE
:10290000FB60074B1A687B681344054A1360FB6839
:1029100018461837BD4680BD000003200010000097
:1029200058020020281D002080B400AF034B1B6814
:102930001846BD465DF8047B704700BF8075FF1FD9
:1029400080B400AF034B1B68DBB21846BD465DF890
:10295000047B70478475FF1F80B400AF034B1B6876
:102960001B0A1846BD465DF8047B70478475FF1F3F
:1029700080B500AF0121402008F03EFA00BF80BDC5
:10298000B0B58CB000AF204B3C461D460FCD0FC4F8
:102990000FCD0FC495E80F0007C4237000F00CFBA7
:1029A0000121022008F0FAF8184A0021202008F03E
:1029B00003FA3B46184606F08DFF00F013FB07F0C4
:1029C00047FE134A0021012008F0F6F9114A0021C0
:1029D000022008F0F1F9104A0021402008F0ECF93B
:1029E0000E4B002283F89020202006F092FB00F08E
:1029F00027FD0B4B00220B490020FEF71DFF00BFF7
:102A00003037BD46B0BD00BFE8BF0008D99400080C
:102A100059310008B5310008393200083001002072
:102A2000F5320008C1010020F0B59DB006AF786016
:102A30007B680133BB63BB6B02337B6300237B6525
:102A4000BB6B1B783E2B00F0F380FF2B03D0052BD4
:102A500000F0D0806CE2944B01221A70BB6B023301
:102A60003B633B6B1B889BB240F20742934207D00B
:102A700040F60202934261D0042B00F0AE80B8E031
:102A80003B6B02337B627B6A1B78022B40F0B08089
:102A90007B6A5B78002B40F0AB80002001F03AFAB3
:102AA000824808F07DFB824808F0F2FA814808F07D
:102AB000EFFA7F4808F0ECFA7F4808F0E9FA29E0DD
:102AC000396D7E4808F0E4FA0023FB6410E07C498D
:102AD0003A6D13465B0013445B00CA18FB6C134449
:102AE0001B781946774808F0D3FAFB6C0133FB6476
:102AF000FB6C052BEBDD744A3B6D134493F90030FE
:102B00001946724808F0C4FA714808F0C1FA3B6DE2
:102B100001333B656F4B1B781A463B6D9342CFDB0D
:102B20006C4B1A786C4B1A706C4808F0B1FA6C4B0D
:102B300002226C490020FFF713F859E03B6B023387
:102B4000FB62002006F0E5FAFB6A9A78664B1A7081
:102B5000FB6AB3F803309AB2634B5A80FB6AB3F84E
:102B600005309AB2604B9A80FB6AB3F807309AB28C
:102B70005D4BDA80FB6AB3F809309AB25A4B1A817E
:102B8000FB6AB3F80B309AB2574B5A81574BD88C2B
:102B9000554B9C88544BDD88534B1E89524B5B89A7
:102BA000514A1278012104910392102202921022BC
:102BB0000192009333462A46214606F018FB03464D
:102BC00087F82B3097F82B30002B02D0022001F031
:102BD00087F9202006F09DFA0BE0012001F080F932
:102BE000424B93F891300A211846FEF725FF00E08A
:102BF00000BF9DE17B6BB3F801309AB23B4BDB8C9D
:102C00009A4240F09481394B0022DA84374B0022FB
:102C100083F89020364808F0C3FA234B01221A703B
:102C2000324BDA8C204B5A801F4800F04FFC7EE17B
:102C3000BB6B02333B623B6A1B78012B02D0022B39
:102C400060D073E13B6A0133FB60FB68B3F801308D
:102C50009AB2264BDA84254B062283F89020254829
:102C600008F09EFA104B00221A70204BDA8C0E4BA3
:102C70005A800D4800F02AFC1C4BDB8C184605F0EE
:102C80005DFF034687F82B3097F82B30002B06D1D9
:102C9000194808F085FA194808F0FAF946E1184889
:102CA00008F0F6F942E100BF001D002018C000083E
:102CB00048C0000868C000088CC00008B8C0000800
:102CC00064020020C0C0000854030020C8C00008EF
:102CD000DCC00008BC090020041D0020E0C0000882
:102CE000712900081C1D0020101D0020300100204B
:102CF00008C1000830C1000854C1000888C100089C
:102D0000B8C100083B6A0133FB61FB695B78FB7665
:102D1000FB695B7ABB76FB69093301337B61002376
:102D2000BB64864B1B78272B00F2D880FB69DB78CD
:102D3000002B00F0D380FB691B79002B00F0CE80C4
:102D4000FB695B79002B00F0C980FB699B79002B44
:102D500000F0C480FB69DB79002B00F0BF80FB69C9
:102D60001B7A002B00F0BA8059E0FB69D97897F8FC
:102D70004720734813465B0013445B0003441B78F1
:102D8000994247D1FB69197997F847206C48134657
:102D90005B0013445B00034401331B78994239D133
:102DA000FB69597997F84720654813465B0013443F
:102DB0005B00034402331B7899422BD1FB6999795C
:102DC00097F847205E4813465B0013445B000344BA
:102DD00003331B7899421DD1FB69D97997F84720B5
:102DE000574813465B0013445B00034404331B78CD
:102DF00099420FD1FB69197A97F84720504813463A
:102E00005B0013445B00034405331B78994201D1F6
:102E10000123BB6497F84730013387F84730474BAD
:102E20001B7897F847209A429FD3BB6C002B55D153
:102E300000233B641EE0FB690A33002B08D03B6C87
:102E40005B00FF2202FA03F3002B01D0012200E015
:102E500000223A4B1B781946D0B23A4A0B469B00E7
:102E60000B44DB001A443B6C134402461A703B6C63
:102E700001333B64FB695B7A1A463B6C9342DADBB5
:102E8000FB695B7A1A467B6913441B78FB742B4BF6
:102E90001B7819462C4AFB7C53540023FB6314E037
:102EA000264B1B781946FA69FB6B134403331878D9
:102EB000234A0B465B000B445B001A44FB6B134434
:102EC00002461A70FB6B0133FB63FB6B052BE7DDDE
:102ED0001A4B1B780133DAB2184B1A7000237B654A
:102EE000FB7E002B21D11CE07B6D7A6913441B789B
:102EF000BB747B6D01337A6913441B787B747B7CD4
:102F00000A2B04D0162B04D0012B04D004E000BF00
:102F100002E000BF00E000BFBB7C01337A6D1344C8
:102F20007B65BB7E7A6D9A42DEDB00BF00E000BFAE
:102F3000012318465C37BD46F0BD00BFBC09002028
:102F4000640200207C0300205403002080B483B07E
:102F500000AF0346FB80084BDB8CFA889A4203D112
:102F6000054B93F8903000E0002318460C37BD461F
:102F70005DF8047B704700BF3001002080B500AFD2
:102F800000F0ECFD0346062B04D00021012007F0E1
:102F900033FF01E000F0CCFA00BF80BD80B400AF89
:102FA00000BFBD465DF8047B704780B400AF00BF32
:102FB000BD465DF8047B704780B582B000AF064B1C
:102FC0003B60064B7B603B461946054806F068FAB5
:102FD00000BF0837BD4680BD280003200934000823
:102FE000D1330008F0B591B006AF0023BB8006F0E6
:102FF000DAF800F087F938623A6A0621002005F015
:10300000C8FF4EF66E53FB60FFF78EFC0346BB60B5
:1030100007F108031A4606212E2005F0BAFF494A97
:103020001021182005F0B5FF474A1021082005F0AF
:10303000B0FF1821012006F015F805F0D3FC00239D
:10304000FB77FB7F43F00403FB77FB7F002B1ED055
:103050003E4BBB6107F11602F87F07F112030193A3
:1030600007F11403009313460722002105F0CEFA5E
:10307000FC8ABD8AB869FDF783F80346DAB2BB69FA
:103080000093134600222946204605F0D0FCF88A1A
:10309000798A3B1D00930223002205F0C8FC2C4BCB
:1030A00003221A702A4B1B78184605F0BDF9284BED
:1030B00001225A70264B0022DA70254B08225A75DD
:1030C000234B10229A75224B01221A75204B214A5C
:1030D0009A611F4B01229A70002387F827300BE07A
:1030E00097F827301A4A134497F827201A7197F84F
:1030F0002730013387F8273097F827300F2BEFD987
:10310000134B9D78124B5E78114B5B7D104A927D7C
:103110000F49097D0E4880690024049403900291B0
:1031200001920093002301223146284605F0C6F99A
:10313000074B9B78002B01D005F0F3FA00BF2C372A
:10314000BD46F0BDFCC600080CC70008F8C1000869
:103150003001002007B2010080B582B000AF124BF1
:1031600093F89030062B1AD0002000F0B9FE01230E
:1031700000224FF448714FF4487005F0F6FA034608
:10318000FB71FB79002B03D1084807F081FF06E0B3
:10319000022000F0A5FE064807F07AFF00BF00BF3E
:1031A0000837BD4680BD00BF3001002000C20008C6
:1031B00030C2000880B58AB008AF1C4807F068FF2D
:1031C000002000F08DFE1A4B93F89030062B28D08B
:1031D00010230693102305934FF4FA7304930023EE
:1031E0000393502302932823019300230093114B50
:1031F00000224FF448714FF4487005F02EFB03464F
:10320000FB71FB79002B04D1094B042283F8902039
:1032100007E0022000F064FE054B002283F89020B6
:1032200000BF00BF0837BD4680BD00BF60C20008B8
:1032300030010020081D002080B58AB008AF294B5E
:103240001B78303BFB71274B5B78303BBB71FB79C4
:103250001A46920013445B00DAB2BB7913447B71C7
:10326000214807F015FF002000F03AFE1F4B93F8AD
:103270009030062B32D07A7913465B0013445B0002
:103280001B4A1A4410230693102305934FF4FA7334
:1032900004930023039350230293282301930023D4
:1032A0000093134600224FF448714FF4487005F024
:1032B000D4FA03463B713B79002B07D1002000F084
:1032C00029FE0A4B042283F8902007E0022000F038
:1032D00007FE064B002283F8902000BF00BF08378E
:1032E000BD4680BD1C1D002060C2000830010020CA
:1032F0006402002080B500AF012000F00BFE00BF8B
:1033000080BD000080B586B000AFFFF70DFB3861CF
:103310003B69B3F1FF3F23D0FFF71EFBB860FFF717
:103320000FFB78603B69DAB2164B1A703B691B0AD7
:10333000DAB2144B5A703B691B0CDAB2114B9A701B
:103340007B68DAB20F4BDA70BB68DAB20D4B1A71D8
:10335000BB681B0ADAB20B4B5A710A4B7B610BE05C
:10336000002006F08FFAF860FB68002B02D0FB68A3
:103370007B6101E0044B7B617B6918461837BD46D1
:1033800080BD00BF5C020020F4C6000880B582B09A
:1033900000AF78600021202007F02EFD00BF083725
:1033A000BD4680BD80B582B000AF7860012007F0D7
:1033B00089FD00BF0837BD4680BD80B582B000AF33
:1033C0007860012007F09CFD00BF0837BD4680BD36
:1033D00080B584B000AF78607B68FB60FB685B6899
:1033E0000833184607F082F90346FB72FB7A002B7C
:1033F00003D0FB6801221A7002E0FB6800221A70F9
:1034000000BF1037BD4680BD80B584B000AF034615
:10341000FB71FB79002B02D0012B06D00BE07F2340
:10342000FB60F86807F012FD05E07F23FB60F86899
:1034300007F02AFD00BF00BF1037BD4680BD000069
:1034400080B582B000AF0023FB711A4A002104202E
:1034500007F0B2FC184A0021082007F0ADFC174B1A
:1034600000221A70154B0022DA80144B00225A7089
:10347000124B00229A70114B0122DA700F4B00227E
:103480001A710023FB7108E0FB790D4A1B011344FC
:1034900000221A70FB790133FB71FB79002BF3D00A
:1034A000084807F009F9084807F07AFE00BF083716
:1034B000BD4680BD313C0008E93B0008D401002036
:1034C000C40100204135000894C2000880B584B0D2
:1034D00000AF78607B681B78002B02D0012B05D0F1
:1034E0001EE07B685A88104BDA8019E00023FB73DA
:1034F0000D4B0022DA8005E0FB7B0C4A1B011344D4
:1035000000221A70FB7B002B06D1FB7B074A1B01B4
:1035100013441B78002BEFD1002000F0FBFC00BF10
:1035200000BF1037BD4680BDD4010020C40100207B
:1035300080B500AF0021082007F05EFC00BF80BD11
:1035400080B594B000AF7860002387F845307B6881
:1035500001333B643B6C1B78FF2B00D0B4E23B6C27
:103560000233FB63FB6B1B889BB2A3F604430C2B5B
:1035700000F29E8201A252F823F000BFB138000889
:10358000B13A000867370008B13A0008B13A0008BC
:10359000B13A0008B1350008B13A0008B13A000864
:1035A000B13A0008B13A0008DF3900085B3A000878
:1035B000FB6B02333B633B6B1A785B781B02134354
:1035C000FB85002387F84D302EE097F84D30BC4A3C
:1035D0001B01134402331B881846FFF7B7FC034650
:1035E00087F82D3097F84D30B54A1B0113441B78EE
:1035F000062B14D197F82D30002B10D197F84D30B1
:10360000AF4A1B01134400221A7097F84D30AC4AA0
:103610001B01134402334FF6FF721A8010E097F833
:103620004D30013387F84D3097F84D30002B07D1DE
:1036300097F84D30A24A1B0113441B78002BC4D1CC
:1036400097F84D30002B40F0358297F84D309C4A6A
:103650001B0113440233FA8D1A803B6BDA783B6B03
:103660009B78B2FBF3F387F82C303B6B9B78142BE1
:1036700040F02082102387F84E30002387F84F3027
:103680006AE097F84E303A6B13441B799AB297F878
:103690004E30396B0B44043301331B789BB21B0251
:1036A0009BB213437B857B8D4FF64062934249D199
:1036B00097F84D30824A1B01134402331B88194688
:1036C000804807F0E5FC97F84E30103B3A6B134406
:1036D0001B7999B297F84E30103B3A6B1344043380
:1036E00001331B789BB21B029AB297F84D300A4304
:1036F00091B2734A1B01134404330A461A8097F8A7
:103700004E300E3B3A6B13441B7999B297F84E300A
:103710000E3B3A6B1344043301331B789BB21B02FC
:103720009AB297F84D300A4391B2654A1B0113448F
:1037300006330A461A8097F84D30614A1B0113443C
:1037400008221A7097F84E30063387F84E3097F8F3
:103750004F30013387F84F3097F84F2097F82C30CF
:103760009A428ED3A6E1FB6B02337B62002387F87B
:103770004B3004E097F84B30013387F84B3097F823
:103780004B30002B0BD197F84B304D4A1B011344A3
:1037900002331A887B6A1B889BB29A42EAD197F857
:1037A0004B30002B40F08881112387F84C307B6A26
:1037B0009B78152B40F080817B6ADB78013BDAB285
:1037C0007B6ADA706FE097F84C307A6A13441B79A1
:1037D0009AB297F84C30796A0B44043301331B7862
:1037E0009BB21B029BB213437B8497F84C300E3B79
:1037F0007A6A13441B799AB297F84C300E3B796A77
:103800000B44043301331B789BB21B029BB213435E
:103810003B847B8C4FF6416293421AD197F84B3030
:10382000274A1B01134402331B881946264807F018
:103830002FFC97F84B30224A1B01134409221A70BF
:1038400097F84B301E4A1B01134408333A8C1A80F8
:103850001EE07B8C4FF64262934219D197F84B30B1
:10386000174A1B01134402331B881946174807F0F7
:103870000FFC97F84B30124A1B0113440A221A70AE
:1038800097F84B300E4A1B0113440C333A8C1A80C4
:103890007B6ADB78153BDAB27B6ADA7097F84C30DA
:1038A000153387F84C307B6ADB78002B8BD103E132
:1038B000FB6B0233FB61002387F848300DE000BF4B
:1038C000C4010020B0C20008ECC2000824C30008F4
:1038D00097F84830013387F8483097F84830002B84
:1038E0000BD197F848307B4A1B01134402331A88E6
:1038F000FB691B889BB29A42EAD197F84830002BAB
:1039000040F0DC80FB69DB789B08FB76002387F8BE
:103910004A30FB699B78012B40F0D080002387F868
:10392000493056E097F84A30FA6913441B799AB245
:1039300097F84A30F9690B44043301331B789BB282
:103940001B029BB213433B8397F84A300233FA6958
:1039500013441B799AB297F84A300233F9690B4441
:10396000043301331B789BB21B029BB21343FB82CF
:10397000FB8A42F60212934221D197F84830554A09
:103980001B01134402331B881946534807F080FB80
:1039900097F848304F4A1B0113441B780A2B0ED16D
:1039A00097F848304B4A1B0113440E333A8B1A8068
:1039B00097F84830474A1B0113440B221A7097F8B6
:1039C0004A30043387F84A3097F84930013387F892
:1039D000493097F84920FB7E9A42A3D36EE0FB6BF7
:1039E00002337B63002387F8473004E097F84730C1
:1039F000013387F8473097F84730002B0BD197F801
:103A00004730344A1B01134402331A887B6B1B88EE
:103A10009BB29A42EAD197F84730002B50D17B6B8A
:103A20005B889AB297F847302A491B010B440C3344
:103A30001B889A4244D17B6B1B79022B40D1022315
:103A40003B727B6B1B793B747B6B0533FB6007F12F
:103A50000803184600F044F832E0FB6B0233BB6306
:103A60001E4807F09DFB0A2007F02AFB002387F879
:103A7000463004E097F84630013387F8463097F82F
:103A80004630002B0BD197F84630124A1B011344E5
:103A900002331A88BB6B1B889BB29A42EAD197F813
:103AA0004630002B0ED10021042007F0A5F909E0D3
:103AB00000BF08E000BF06E000BF04E000BF02E076
:103AC00000BF00E000BF00BF97F8453018465037F0
:103AD000BD4680BDC401002068C30008B0C3000813
:103AE00080B582B000AF78607B681B78022B00D075
:103AF00027E07B685B681A78144B5A70134B5B782D
:103B0000012B00D01CE07B685B685A780F4B9A70E1
:103B10000E4B9B78002B09D1002000F0FBF90C48DC
:103B200007F0B6FA0B4807F0B3FA08E00A4807F0C6
:103B3000AFFA084807F0ACFA002000F0D1F900BF56
:103B400000BF00BF0837BD4680BD00BFD4010020C4
:103B5000DCC300081CC4000820C4000880B400AF07
:103B6000034B1B781846BD465DF8047B704700BFC9
:103B7000C401002080B584B000AF03463A60FB80EA
:103B80000B467B714223FB730023BB731BE0FB8856
:103B90004FF64162934200D012E0BB7B114A1B01F9
:103BA000134402331888BB7B0E4A1B0113440833AD
:103BB00019883B68022205F06AF90346FB7300BFCF
:103BC000BB7B0133BB73BB7B002B06D1BB7B054AA0
:103BD0001B0113441B78002BD9D1FB7B18461037EF
:103BE000BD4680BDC401002080B500AF0C4807F081
:103BF0004FFA0C4807F04CFA0B4B1B79002B03D102
:103C0000094B01221A7102E0074B00221A71074A80
:103C100000214FF64160FFF7ADFF00BF80BD00BF40
:103C200060C400081CC40008D4010020D701002093
:103C300080B582B000AF0123BB8000237B800023CE
:103C4000FB71A5E0FB795A4A1B0113441B78073B23
:103C5000052B00F2998001A252F823F0753C000870
:103C60007D3C0008AF3C0008E53C00081B3D000817
:103C7000553D00084F4807F093FA86E04E4807F09C
:103C80008FFAFB794A4A1B01134402331888FB79E7
:103C9000474A1B01134404331988FB79444A1B012A
:103CA000134406331B881A4604F096FF6DE0434820
:103CB00007F076FAFB793E4A1B0113440233188859
:103CC000FB793B4A1B01134408331988FB79384AB6
:103CD0001B01134408331B8802339BB21A4604F0BD
:103CE000E6FF52E0364807F05BFAFB79304A1B01E9
:103CF000134402331888FB792D4A1B0113440C33FB
:103D00001988FB792A4A1B0113440C331B880233A0
:103D10009BB21A4604F0CBFF37E02A4807F040FA7E
:103D2000FB79234A1B01134402331888FB79204A8C
:103D30001B0113440E3319883B1D022205F022F8A3
:103D4000FB791B4A1B01134406221A70022000F063
:103D5000E1F81AE01C4807F023FAFB79144A1B012A
:103D6000134402331888FB79114A1B0113440E33A4
:103D70001988BB1C022205F005F8FB790C4A1B01CF
:103D8000134406221A7000E000BFFB790133FB7177
:103D9000FB79002B08D1FB79054A1B0113441B78E2
:103DA000002B7FF44FAF00BF00BF0837BD4680BD7A
:103DB000C4010020A0C40008B8C40008E0C4000882
:103DC0001CC500085CC5000880C50008D458C45054
:103DD0000433C4188C42F9D370470360043088421E
:103DE000FBD370470C4885460C480D490D4A00230B
:103DF000FFF7EFFF0C480D490023FFF7F0FF0C48D9
:103E00000C490023FFF7EBFF00F010F907F008F969
:103E1000FEF7DEF8FEE700000000032004000020AB
:103E200094000020A0C800082C020020281D0020BB
:103E3000E0010320570A0320FEE780B485B000AFFD
:103E400078604FF0B043DA6C4FF0B0417B681343B9
:103E5000CB644FF0B043DA6C7B681340FB60FB68C7
:103E600000BF1437BD465DF8047B704780B588B04D
:103E700000AF0346FB7107F10C0300221A605A6081
:103E80009A60DA601A610220FFF7D7FFFB79124AC5
:103E900032F81330FB6001233B6100237B61022376
:103EA000BB61FB790D4A52F8233007F10C02114631
:103EB000184600F01DFFFB79084A52F82300FB79F1
:103EC000054A32F813300022194601F081F800BF8C
:103ED0002037BD4680BD00BF1CC70008040000207D
:103EE00080B582B000AF0346FB71FB79074A52F8F8
:103EF0002300FB79064A32F813300122194601F0FB
:103F000067F800BF0837BD4680BD00BF0400002031
:103F10001CC7000880B582B000AF0346FB71FB7977
:103F2000074A52F82300FB79064A32F81330002280
:103F3000194601F04DF800BF0837BD4680BD00BFEF
:103F4000040000201CC7000880B588B000AF0346FD
:103F50000A46FB711346BB7107F10C0300221A607D
:103F60005A609A60DA601A61FB79002B03D1042051
:103F7000FFF763FF0CE0FB79012B03D10820FFF76B
:103F80005CFF05E0FB79022B02D10820FFF755FF0B
:103F9000BB79002B17D1FB79204A32F81330FB6034
:103FA00000233B6101237B610223BB61FB791C4A37
:103FB00052F8233007F10C021146184600F098FE23
:103FC0000120FEF7C0F9BB79012B22D1FB79134AFE
:103FD00032F81330FB6001237B61124B3B61FB79AC
:103FE0000F4A52F8233007F10C021146184600F030
:103FF0007FFEFB790C4AD35C5BB200220F2118468E
:1040000000F003FBFB79084AD35C5BB2184600F072
:1040100016FB00BF2037BD4680BD00BF24C7000887
:1040200010000020000021102CC7000880B400AF51
:10403000264B00229A60254BD3F88830234A43F45C
:104040007003C2F888304FF0B0431B684FF0B042A5
:1040500043F0010313604FF0B0434FF4E0229A6045
:104060004FF0B0431A684FF0B041194B13400B604A
:104070004FF0B043D3F894304FF0B04223F0050333
:10408000C2F894304FF0B043D3F898304FF0B042BC
:1040900023F00103C2F898304FF0B0430D4ADA60C4
:1040A0004FF0B0430B4A1A614FF0B0431B684FF01A
:1040B000B04223F4802313604FF0B04300229A6192
:1040C00000BFBD465DF8047B704700BF00ED00E017
:1040D000FBFEF6FA0010042280B487B000AF4FF068
:1040E000B0431B681B0903F00F03474A52F8233003
:1040F0003B614FF0B0439B6803F00C030C2B67D877
:1041000001A252F823F000BF3D410008D141000850
:10411000D1410008D141000845410008D1410008C3
:10412000D1410008D14100084D410008D1410008AB
:10413000D1410008D141000855410008334A3B698C
:10414000136049E0314B324A1A6045E02F4B314A47
:104150001A6041E04FF0B043DB6803F00303FB60FB
:104160004FF0B043DB681B0903F007030133BB606A
:10417000FB68022B05D1264ABB68B2FBF3F37B61D7
:104180000DE0FB68032B05D1224ABB68B2FBF3F3B9
:104190007B6104E03A69BB68B2FBF3F37B614FF0EB
:1041A000B043DB681B0A03F07F027B6902FB03F369
:1041B0007B614FF0B043DB685B0F03F00703013313
:1041C0007B607A697B68B2FBF3F3104A136003E00B
:1041D0000E4A3B69136000BF4FF0B0439B681B0958
:1041E00003F00F030C4A52F823303B60074B1A6868
:1041F0003B68B2FBF3F3054A136000BF1C37BD46B2
:104200005DF8047B704700BF90C700081C000020C9
:104210000024F4000048E80130C7000880B400AF73
:10422000054B5B68044A43F00103536000BFBD4681
:104230005DF8047B704700BF002004E080B400AF4D
:10424000054B5B68044A43F00203536000BFBD4660
:104250005DF8047B704700BF002004E080B582B0A9
:1042600000AF0023FB710C4B1B680B4A43F48073B7
:104270001360032000F0BEF9002000F00FF80346A1
:10428000002B02D00123FB7101E0FEF72BF9FB7933
:1042900018460837BD4680BD0040005880B584B040
:1042A00000AF78600023FB73174B1B78002B24D0E2
:1042B00001F0CEFF0246144B1B7819464FF47A7377
:1042C000B3FBF1F3B2FBF3F3184600F0D4F9034665
:1042D000002B0FD17B680F2B09D8002279684FF093
:1042E000FF3000F092F9094A7B68136007E0012370
:1042F000FB7304E00123FB7301E00123FB73FB7BF1
:1043000018461037BD4680BD240000202000002044
:1043100080B400AF064B1B781A46064B1B6813444B
:10432000044A136000BFBD465DF8047B704700BFC0
:1043300024000020201D002080B400AF034B1B6828
:104340001846BD465DF8047B704700BF201D002065
:1043500080B400AF034B1B681846BD465DF8047B74
:10436000704700BF2000002080B400AF034B1B78D3
:104370001846BD465DF8047B704700BF240000204E
:1043800080B500AFFFF74AFF00BF80BD80B500AF2A
:10439000FFF754FF00BF80BD80B485B000AF7860E8
:1043A0007B6803F00703FB600C4BDB68BB60BA68FB
:1043B0004FF6FF031340BB60FB681A02BB68134350
:1043C00043F0BF6343F40033BB60044ABB68D3606F
:1043D00000BF1437BD465DF8047B704700ED00E078
:1043E00080B400AF044BDB681B0A03F007031846D8
:1043F000BD465DF8047B704700ED00E080B483B0FB
:1044000000AF0346FB7197F90730002B0BDBFB79FC
:1044100003F01F02074997F907305B09012000FAF2
:1044200002F241F8232000BF0C37BD465DF8047B43
:10443000704700BF00E100E080B483B000AF0346E6
:10444000FB7197F90730002B10DBFB7903F01F029B
:10445000094997F907305B09012000FA02F220337D
:1044600041F82320BFF34F8FBFF36F8F00BF0C378E
:10447000BD465DF8047B704700E100E080B483B086
:1044800000AF0346FB7197F90730002B0CDBFB797B
:1044900003F01F02074997F907305B09012000FA72
:1044A00002F2403341F8232000BF0C37BD465DF8CF
:1044B000047B704700E100E080B483B000AF0346A6
:1044C000FB7197F90730002B0CDBFB7903F01F021F
:1044D000074997F907305B09012000FA02F26033BF
:1044E00041F8232000BF0C37BD465DF8047B7047C0
:1044F00000E100E080B483B000AF03463960FB7197
:1045000097F90730002B0ADB3B68DAB20C4997F9C0
:1045100007301201D2B20B4483F800230AE03B6853
:10452000DAB20849FB7903F00F03043B1201D2B25F
:104530000B441A7600BF0C37BD465DF8047B70470C
:1045400000E100E000ED00E080B489B000AFF86069
:10455000B9607A60FB6803F00703FB61FB69C3F194
:104560000703042B28BF0423BB61FB690433062B1C
:1045700002D9FB69033B00E000237B614FF0FF326F
:10458000BB6902FA03F3DA43BB681A407B699A40BD
:104590004FF0FF317B6901FA03F3D9437B680B408D
:1045A000134318462437BD465DF8047B704700006E
:1045B00080B582B000AF78607B68013BB3F1807F4B
:1045C00001D301230FE00A4A7B68013B53600F21AE
:1045D0004FF0FF30FFF78EFF054B00229A60044B2F
:1045E00007221A60002318460837BD4680BD00BF69
:1045F00010E000E080B582B000AF78607868FFF727
:10460000CBFE00BF0837BD4680BD80B586B000AF89
:104610000346B9607A60FB73FFF7E2FE78617A685F
:10462000B9687869FFF790FF024697F90F30114695
:104630001846FFF75FFF00BF1837BD4680BD80B545
:1046400082B000AF0346FB7197F907301846FFF7B9
:10465000D5FE00BF0837BD4680BD80B582B000AF33
:104660000346FB7197F907301846FFF7E5FE00BFD8
:104670000837BD4680BD80B582B000AF78607868ED
:10468000FFF796FF034618460837BD4680BD80B544
:1046900082B000AF0346FB7197F907301846FFF769
:1046A000EDFE00BF0837BD4680BD80B582B000AFCB
:1046B0000346FB7197F907301846FFF7FDFE00BF70
:1046C0000837BD4680BD000080B584B000AF78607B
:1046D0007B68002B01D101238EE07B681B681A46A2
:1046E000474B9A420FD87B681B681A46454B1344C8
:1046F000454AA2FB03231B099A007B685A647B6826
:10470000424A1A640EE07B681B681A46404B134409
:104710003D4AA2FB03231B099A007B685A647B680D
:104720003C4A1A647B68022283F825207B681B6858
:104730001B68FB60FB6823F4FF4323F07003FB60FE
:104740007B689A687B68DB681A437B681B691A433D
:104750007B685B691A437B689B691A437B68DB69EA
:104760001A437B681B6A1343FA681343FB607B6838
:104770001B68FA681A60786800F016FA7B689B6814
:10478000B3F5804F02D17B6800225A607B685A687B
:104790007B689B6C02F03F021A607B68DB6C7A6876
:1047A000126D5A607B685B68002B10D07B685B6879
:1047B000042B0CD8786800F035FA7B685B6D00221A
:1047C0001A607B689B6D7A68D26D5A6008E07B68DE
:1047D00000225A657B6800229A657B680022DA65B0
:1047E0007B680022DA637B68012283F825207B68DE
:1047F000002283F82420002318461037BD4680BDD0
:1048000007040240F8FFFDBFCDCCCCCC0000024035
:10481000F8FBFDBF0004024080B586B000AFF86031
:10482000B9607A603B600023FB75FB6893F8243025
:10483000012B01D1022366E0FB68012283F82420CA
:10484000FB6893F82530DBB2012B55D1FB680222BF
:1048500083F82520FB680022DA63FB681B681A686E
:10486000FB681B6822F001021A603B687A68B9682D
:10487000F86800F05AF9FB681B6B002B08D0FB6846
:104880001B681A68FB681B6842F00E021A600FE092
:10489000FB681B681A68FB681B6822F004021A6038
:1048A000FB681B681A68FB681B6842F00A021A6002
:1048B000FB689B6C1B6803F48033002B07D0FB68FC
:1048C0009B6C1A68FB689B6C42F480721A60FB68F0
:1048D0005B6D002B07D0FB685B6D1A68FB685B6D36
:1048E00042F480721A60FB681B681A68FB681B68D8
:1048F00042F001021A6005E0FB68002283F82420E0
:104900000223FB75FB7D18461837BD4680BD80B578
:1049100084B000AF78600023FB737B6893F8253088
:10492000DBB2022B05D07B680422DA630123FB7320
:1049300047E07B681B681A687B681B6822F00E02E0
:104940001A607B681B681A687B681B6822F001028A
:104950001A607B689B6C1A687B689B6C22F480727F
:104960001A607B685B6C03F01C027B681B6C012186
:1049700001FA02F25A607B68DB6C7A68126D5A6049
:104980007B685B6D002B0CD07B685B6D1A687B6865
:104990005B6D22F480721A607B689B6D7A68D26DC1
:1049A0005A607B68012283F825207B68002283F807
:1049B00024207B689B6B002B03D07B689B6B786803
:1049C0009847FB7B18461037BD4680BD80B584B044
:1049D00000AF78607B681B6C1B68FB607B681B68A2
:1049E0001B68BB607B685B6C03F01C0304229A406D
:1049F000FB681340002B26D0BB6803F00403002B98
:104A000021D07B681B681B6803F02003002B07D1B3
:104A10007B681B681A687B681B6822F004021A60B6
:104A20007B685B6C03F01C027B681B6C042101FA41
:104A300002F25A607B681B6B002B71D07B681B6B8A
:104A4000786898476CE07B685B6C03F01C0302227B
:104A50009A40FB681340002B2ED0BB6803F0020382
:104A6000002B29D07B681B681B6803F02003002BF8
:104A70000BD17B681B681A687B681B6822F00A02EE
:104A80001A607B68012283F825207B685B6C03F049
:104A90001C027B681B6C022101FA02F25A607B68DF
:104AA000002283F824207B68DB6A002B38D07B68E7
:104AB000DB6A7868984733E07B685B6C03F01C0323
:104AC00008229A40FB681340002B2AD0BB6803F0F1
:104AD0000803002B25D07B681B681A687B681B685D
:104AE00022F00E021A607B685B6C03F01C027B688C
:104AF0001B6C012101FA02F25A607B680122DA6321
:104B00007B68012283F825207B68002283F824201B
:104B10007B685B6B002B04D07B685B6B7868984785
:104B200000BF00BF1037BD4680BD80B485B000AF68
:104B3000F860B9607A603B60FB68DB6CFA68126D04
:104B40005A60FB685B6D002B04D0FB689B6DFA68B4
:104B5000D26D5A60FB685B6C03F01C02FB681B6C37
:104B6000012101FA02F25A60FB681B683A685A6038
:104B7000FB689B68102B08D1FB681B687A689A60F9
:104B8000FB681B68BA68DA6007E0FB681B68BA68F4
:104B90009A60FB681B687A68DA6000BF1437BD460C
:104BA0005DF8047B7047000080B485B000AF78608A
:104BB0007B681B681A46174B9A420AD87B685B6C65
:104BC0009B089B0003F1804303F502337A689364EA
:104BD00007E07B685B6C9B089A000F4B13447A6874
:104BE00093647B681B68DBB2083B0C4AA2FB03237F
:104BF0001B09FB607B680A4ADA64FB6803F01F0349
:104C000001229A407B681A6500BF1437BD465DF8E3
:104C1000047B7047070402401C080240CDCCCCCC7A
:104C20008008024080B485B000AF78607B685B6824
:104C300003F03F03FB60FA680B4B13449B001A46DA
:104C40007B685A657B68094A9A65FB68013B03F0FB
:104C5000030301229A407B68DA6500BF1437BD4622
:104C60005DF8047B704700BF3F820010400902409E
:104C700080B483B000AF786039607B6893F82530EA
:104C8000DBB2012B2BD17B6893F82430012B01D1AF
:104C9000022325E07B68012283F824207B689B6C3B
:104CA0001A68124B13403A6811683A68D268013AA0
:104CB000D20411433A68526811433A68127A1204D6
:104CC00011433A68527A520211437A68926C0B434C
:104CD00013607B68002283F82420002300E0012376
:104CE00018460C37BD465DF8047B7047FFFD00E0B9
:104CF00080B487B000AF7860396000237B614CE1FD
:104D00003B681A6801217B6901FA03F31340FB60D9
:104D1000FB68002B00F03E813B685B68012B0BD0E9
:104D20003B685B68022B07D03B685B68112B03D0A4
:104D30003B685B68122B30D17B689B683B617B6969
:104D40005B00032202FA03F3DB433A6913403B6141
:104D50003B68DA687B695B0002FA03F33A69134344
:104D60003B617B683A699A607B685B683B610122C2
:104D70007B6902FA03F3DB433A6913403B613B680A
:104D80005B681B0903F001027B6902FA03F33A69CD
:104D900013433B617B683A695A607B68DB683B611F
:104DA0007B695B00032202FA03F3DB433A69134099
:104DB0003B613B689A687B695B0002FA03F33A69DE
:104DC00013433B617B683A69DA603B685B68022B9E
:104DD00003D03B685B68122B23D17B69DA087B68C0
:104DE000083253F822303B617B6903F007039B00D4
:104DF0000F2202FA03F3DB433A6913403B613B683D
:104E00001A697B6903F007039B0002FA03F33A690E
:104E100013433B617B69DA087B680832396943F8E0
:104E200022107B681B683B617B695B00032202FAEE
:104E300003F3DB433A6913403B613B685B6803F073
:104E400003027B695B0002FA03F33A6913433B6197
:104E50007B683A691A603B685B6803F08053002BFB
:104E600000F09880544A7B699B08023352F8233043
:104E70003B617B6903F003039B000F2202FA03F3FB
:104E8000DB433A6913403B617B68B3F1904F19D023
:104E90007B684A4A934213D07B68494A93420DD0BB
:104EA0007B68484A934207D07B68474A934201D1C6
:104EB000042308E0072306E0032304E0022302E0C2
:104EC000012300E000237A6902F00302920093407C
:104ED0003A6913433B6138497B699B0802333A695D
:104EE00041F82320394BD3F880303B61FB68DB432A
:104EF0003A6913403B613B685B6803F48033002BE5
:104F000003D03A69FB6813433B61304A3B69C2F8FE
:104F100080302E4BD3F884303B61FB68DB433A6929
:104F200013403B613B685B6803F40033002B03D004
:104F30003A69FB6813433B61244A3B69C2F88430F9
:104F4000224B1B683B61FB68DB433A6913403B61C2
:104F50003B685B6803F48013002B03D03A69FB685D
:104F600013433B61194A3B691360184B5B683B6113
:104F7000FB68DB433A6913403B613B685B6803F4C1
:104F80000013002B03D03A69FB6813433B610F4ABF
:104F90003B6953607B6901337B613B681A687B69BD
:104FA00022FA03F3002B7FF4ABAE00BF1C37BD46E3
:104FB0005DF8047B704700BF00000140000400481A
:104FC00000080048000C0048001000480008005885
:104FD00080B483B000AF78600B467B8013467B7053
:104FE0007B78002B03D07A887B689A6102E07A880C
:104FF0007B689A6200BF0C37BD465DF8047B704742
:1050000080B582B000AF0346FB80084BDA68FB88AE
:105010001340002B06D0054AFB88D360FB88184656
:10502000FBF7ABFC00BF0837BD4680BD0008005849
:1050300080B582B000AF0A4BDB687B60084B1A6812
:105040007B68DB43064913400B60054A7B6853606D
:10505000786800F007F800BF0837BD4680BD00BF84
:105060000015005880B483B000AF786000BF0C37E3
:10507000BD465DF8047B704780B400AF054B1B68EC
:10508000044A43F48073136000BFBD465DF8047B9F
:10509000704700BF0004005880B400AF044B1B6889
:1050A00003F4C0631846BD465DF8047B704700BF3B
:1050B0000004005880B400AF4FF0B0431B6803F405
:1050C0008013B3F5801F01D1012300E000231846AF
:1050D000BD465DF8047B704780B400AF4FF0B0432D
:1050E0001B684FF0B04243F48023136000BFBD46FD
:1050F0005DF8047B704780B400AF4FF0B0431B688D
:105100004FF0B04223F48023136000BFBD465DF82A
:10511000047B704780B400AF4FF0B0431B684FF082
:10512000B04243F48033136000BFBD465DF8047B9A
:10513000704780B400AF4FF0B0431B684FF0B042EF
:1051400023F48033136000BFBD465DF8047B7047D5
:1051500080B400AF4FF0B0431B6803F40033B3F5E5
:10516000003F01D1012300E000231846BD465DF851
:10517000047B704780B400AF4FF0B0431B684FF022
:10518000B04243F48073136000BFBD465DF8047BFA
:10519000704780B400AF4FF0B0431B684FF0B0428F
:1051A00023F48073136000BFBD465DF8047B704735
:1051B00080B400AF4FF0B0431B6803F48063B3F5D5
:1051C000806F01D1012300E000231846BD465DF841
:1051D000047B704780B483B000AF78604FF0B04379
:1051E0005B6823F0FE427B681B064FF0B04113431F
:1051F0004B6000BF0C37BD465DF8047B704780B440
:1052000000AF4FF0B043D3F898304FF0B04243F0C6
:105210000103C2F8983000BFBD465DF8047B7047BB
:1052200080B400AF4FF0B043D3F898304FF0B042A5
:1052300023F00103C2F8983000BFBD465DF8047B3F
:10524000704780B400AF4FF0B043D3F8983003F00C
:105250000203022B01D1012300E000231846BD46C2
:105260005DF8047B704780B400AF4FF0B043D3F8D3
:1052700090304FF0B04243F00103C2F8903000BFCD
:10528000BD465DF8047B704780B400AF4FF0B0437B
:10529000D3F890304FF0B04223F00103C2F89030C1
:1052A00000BFBD465DF8047B704780B400AF4FF08F
:1052B000B043D3F890304FF0B04243F00403C2F84B
:1052C000903000BFBD465DF8047B704780B400AFEE
:1052D0004FF0B043D3F890304FF0B04223F00403C6
:1052E000C2F8903000BFBD465DF8047B704780B4C3
:1052F00000AF4FF0B043D3F8903003F00203022B1D
:1053000001D1012300E000231846BD465DF8047B6F
:10531000704780B400AF4FF0B043D3F894304FF0F3
:10532000B04243F00103C2F8943000BFBD465DF8BF
:10533000047B704780B400AF4FF0B043D3F8943093
:105340004FF0B04223F00103C2F8943000BFBD46D5
:105350005DF8047B704780B400AF4FF0B043D3F8E2
:10536000943003F00203022B01D1012300E000235B
:105370001846BD465DF8047B704780B400AF4FF01F
:10538000B043D3F894304FF0B04243F00403C2F876
:10539000943000BFBD465DF8047B704780B400AF19
:1053A0004FF0B043D3F894304FF0B04223F00403F1
:1053B000C2F8943000BFBD465DF8047B704780B4EE
:1053C00000AF4FF0B043D3F8943003F00803082B3C
:1053D00001D1012300E000231846BD465DF8047B9F
:1053E000704780B483B000AF78604FF0B043D3F81B
:1053F000943023F470627B681B024FF0B04113437A
:10540000C1F8943000BF0C37BD465DF8047B70478F
:1054100080B400AF4FF0B0431B684FF0B04243F090
:105420000103136000BFBD465DF8047B704780B484
:1054300000AF4FF0B0431B684FF0B04223F00103C0
:10544000136000BFBD465DF8047B704780B400AFB9
:105450004FF0B0431B6803F00203022B01D101237C
:1054600000E000231846BD465DF8047B704780B419
:1054700083B000AF78604FF0B0431B6823F0F002B8
:105480004FF0B0417B6813430B6000BF0C37BD4643
:105490005DF8047B704780B483B000AF4FF0B04339
:1054A0001B6803F0F0037B607B68B02B01D9B0234D
:1054B0007B607B6818460C37BD465DF8047B7047FF
:1054C00080B483B000AF78604FF0B0435B6823F4E2
:1054D0007F427B681B024FF0B04113434B6000BF1B
:1054E0000C37BD465DF8047B704780B483B000AFD5
:1054F00078604FF0B0439B6823F003024FF0B04157
:105500007B6813438B6000BF0C37BD465DF8047B9E
:10551000704780B400AF4FF0B0439B6803F00C03BA
:105520001846BD465DF8047B704780B483B000AF79
:1055300078604FF0B0439B6823F0F0024FF0B04129
:105540007B6813438B6000BF0C37BD465DF8047B5E
:10555000704780B483B000AF78604FF0B043D3F8A9
:10556000083123F0F0024FF0B0417B681343C1F8DB
:10557000083100BF0C37BD465DF8047B704780B42E
:1055800083B000AF78604FF0B043D3F8083123F018
:105590000F027B681B094FF0B0411343C1F808317B
:1055A00000BF0C37BD465DF8047B704780B483B004
:1055B00000AF78604FF0B0439B6823F4E0624FF097
:1055C000B0417B6813438B6000BF0C37BD465DF86C
:1055D000047B704780B483B000AF78604FF0B04375
:1055E0009B6823F460524FF0B0417B6813438B609B
:1055F00000BF0C37BD465DF8047B704780B400AF38
:105600004FF0B0439B6803F0F0031846BD465DF8C9
:10561000047B704780B400AF4FF0B043D3F808313B
:105620001B0103F0F0031846BD465DF8047B70478C
:1056300080B400AF4FF0B0439B6803F4E0631846BA
:10564000BD465DF8047B704780B400AF4FF0B043B7
:105650009B6803F460531846BD465DF8047B7047B1
:1056600080B400AF4FF0B0431B684FF0B04243F03E
:105670008073136000BFBD465DF8047B704780B443
:1056800000AF4FF0B0431B684FF0B04223F080737F
:10569000136000BFBD465DF8047B704780B400AF67
:1056A0004FF0B0431B6803F00073B3F1007F01D1EA
:1056B000012300E000231846BD465DF8047B7047D7
:1056C00080B400AF4FF0B043DB681B0A03F07F03E8
:1056D0001846BD465DF8047B704780B400AF4FF0BC
:1056E000B043DB6803F060431846BD465DF8047BB9
:1056F000704780B400AF4FF0B043DB6803F0700335
:105700001846BD465DF8047B704780B400AF4FF08B
:10571000B043DB6803F003031846BD465DF8047B25
:10572000704780B400AF4FF0B0439B6803F4803300
:10573000B3F5803F01D1012300E000231846BD46A8
:105740005DF8047B704780B400AF4FF0B043D3F8EE
:10575000083103F40033B3F5003F01D1012300E029
:1057600000231846BD465DF8047B704780B400AF47
:105770004FF0B043D3F8083103F48033B3F5803FE2
:1057800001D1012300E000231846BD465DF8047BEB
:10579000704780B400AF4FF0B0439B6803F4003310
:1057A000B3F5003F01D1012300E000231846BD46B8
:1057B0005DF8047B704780B400AF4FF0B0439B6846
:1057C00003F48023B3F5802F01D1012300E00023EF
:1057D0001846BD465DF8047B7047000090B58DB05B
:1057E00000AF78607B68002B01D1012386E37B68E2
:1057F0001B6803F02003002B00F08F80FFF789FE69
:10580000F862FFF782FFB862FB6A002B05D0FB6AE3
:105810000C2B49D1BB6A012B46D1FFF717FE03467B
:10582000002B05D07B68DB69002B01D1012365E3E8
:105830007B685C6AFFF72FFE03469C4214D97B68A5
:105840005B6A184600F044FD0346002B01D001239B
:1058500054E37B685B6A1846FFF709FE7B681B6AA6
:105860001846FFF72DFE13E07B685B6A1846FFF7CA
:10587000FEFD7B681B6A1846FFF722FE7B685B6AA9
:10588000184600F025FD0346002B01D0012335E327
:10589000FEF722FCB44B1B681846FEF7FFFC0346DC
:1058A000002B39D0012329E37B68DB69002B1ED054
:1058B000FFF7AEFDFEF740FD786208E0FEF73CFD25
:1058C00002467B6AD31A022B01D9032316E3FFF7A2
:1058D000BDFD0346002BF1D07B685B6A1846FFF7DD
:1058E000C6FD7B681B6A1846FFF7EAFD15E0FFF767
:1058F0009EFDFEF721FD786208E0FEF71DFD0246E1
:105900007B6AD31A022B01D90323F7E2FFF79EFD2E
:105910000346002BF1D100E000BF7B681B6803F059
:105920000103002B5AD0FFF7F4FD3862FFF7EDFEBC
:10593000F8613B6A082B05D03B6A0C2B0DD1FB6943
:10594000032B0AD1FFF704FC0346002B45D07B68EC
:105950005B68002B41D10123D0E27B685B68B3F523
:10596000803F02D1FFF7D6FB0DE07B685B68B3F5A3
:10597000A02F04D1FFF7B0FBFFF7CCFB03E0FFF74C
:10598000D8FBFFF7B8FB7B685B68002B12D0FEF7F3
:10599000D3FC786208E0FEF7CFFC02467B6AD31A9C
:1059A000642B01D90323A9E2FFF7D2FB0346002BA6
:1059B000F1D013E0FEF7C0FC786208E0FEF7BCFC13
:1059C00002467B6AD31A642B01D9032396E2FFF7C0
:1059D000BFFB0346002BF1D100E000BF7B681B68D2
:1059E00003F00203002B51D0FFF793FDB861FFF7DE
:1059F0008CFE7861BB69042B05D0BB690C2B13D1DD
:105A00007B69022B10D1FFF7D3FB0346002B05D097
:105A10007B68DB68002B01D101236FE27B681B6987
:105A20001846FFF7D7FB31E07B68DB68002B19D005
:105A3000FFF7A0FBFEF780FC786208E0FEF77CFC35
:105A400002467B6AD31A022B01D9032356E2FFF7E1
:105A5000AFFB0346002BF1D07B681B691846FFF7AC
:105A6000B9FB13E0FFF795FBFEF766FC786208E0F0
:105A7000FEF762FC02467B6AD31A022B01D903238C
:105A80003CE2FFF795FB0346002BF1D17B681B68D6
:105A900003F00803002B06D17B681B6803F010039A
:105AA000002B00F0A2807B685B69002B75D07B68BF
:105AB0001B6803F01003002B46D0FFF74CFC034695
:105AC000002B13D1FFF725FCFEF736FC786208E0C7
:105AD000FEF732FC02467B6AD31A022B01D903235C
