:020000040800F2
:1000000000000320D1430008312700083F270008E3
:10001000452700084B270008512700080000000072
:10002000000000000000000000000000572700084A
:1000300065270008000000007327000881270008DA
:10004000254400082544000825440008F727000837
:1000500025440008254400082544000825440008DC
:100060002544000825440008E92700082544000825
:1000700025440008254400088D2700082544000871
:1000800025440008254400082544000825440008AC
:10009000254400082544000825440008254400089C
:1000A000254400082544000825440008254400088C
:1000B000254400082544000825440008254400087C
:1000C000254400082544000825440008254400086C
:1000D000A1270008B527000825440008254400088A
:1000E000254400082544000825440008254400084C
:1000F0000F28000803280008C92700082544000825
:10010000254400082544000825440008254400082B
:10011000254400082544000825440008254400081B
:100120002544000825440008D52700082544000878
:0C01300025440008254400082544000870
:1001400010B5054C237833B9044B13B10448AFF311
:1001500000800123237010BD2C020020000000004D
:10016000A0C5000808B5034B1BB103490348AFF312
:10017000008008BD0000000030020020A0C500087B
:10018000034613F8012B002AFBD1181A01387047D7
:1001900001F0FF01102A2BDB10F0070F08D010F838
:1001A000013B013A8B422DD010F0070F42B3F6D13C
:1001B000F0B441EA012141EA014122F007047FF055
:1001C00000070023F0E80256083C85EA010586EAAC
:1001D000010685FA47F5A3FA87F586FA47F6A5FAE8
:1001E00087F68EB9EED1F0BC01F0FF0102F00702F4
:1001F00032B110F8013B013A83EA010313B1F8D19F
:100200000020704701387047002D06BF354603387F
:10021000073815F0010F07D1013015F4807F02BFB8
:10022000013015F4C03F0130F0BC0138704700BF09
:1002300053B94AB9002908BF00281CBF4FF0FF314D
:100240004FF0FF3000F072B9ADF1080C6DE904CE4B
:1002500000F006F8DDF804E0DDE9022304B07047A1
:100260002DE9F047089E04468846002B4BD18A4270
:10027000154667D9B2FA82F24AB1C2F1200701FAF3
:1002800002F320FA07F7954047EA030894404FEA43
:10029000154E230CB8FBFEF71FFA85FC0EFB1788E2
:1002A00043EA084307FB0CF1994209D9EB1807F11F
:1002B000FF3080F01B81994240F21881023F2B44AD
:1002C0005B1AA4B2B3FBFEF00EFB103344EA034406
:1002D00000FB0CFCA44509D92C1900F1FF3380F078
:1002E0000781A44540F2048102382C4440EA0740CB
:1002F000A4EB0C0400271EB1D4400023C6E9004340
:100300003946BDE8F0878B4209D9002E00F0EB801A
:100310000027C6E9000138463946BDE8F087B3FA40
:1003200083F7002F47D18B4202D3824200F2FA803A
:10033000841A61EB030301209846002EE0D0C6E941
:100340000048DDE702B9FFDEB2FA82F2002A40F08F
:100350008F80491B4FEA154E1FFA85F80127B1FB24
:10036000FEFC230C0EFB1C1143EA014308FB0CF1BD
:10037000994207D9EB180CF1FF3002D2994200F2F2
:10038000CD808446591AA3B2B1FBFEF00EFB1014C7
:1003900043EA044408FB00F8A04507D92C1900F1F2
:1003A000FF3302D2A04500F2B6801846A4EB080441
:1003B00040EA0C409FE7C7F1200CBB4022FA0CFE3C
:1003C0004EEA030E01FA07F420FA0CF521FA0CF3B9
:1003D0004FEA1E482543B3FBF8F92C0C08FB1933F0
:1003E0001FFA8EFA44EA034309FB0AF49C4202FA1C
:1003F00007F200FA07F10BD91EEB030309F1FF30F6
:1004000080F087809C4240F28480A9F10209734405
:100410001B1BADB2B3FBF8F008FB103345EA0344F5
:1004200000FB0AFAA24508D91EEB040400F1FF33D1
:100430006BD2A24569D90238744440EA0940A0FB56
:100440000289A4EB0A044C45C2464B4654D351D012
:10045000002E69D0B1EB0A0564EB030404FA0CFC2E
:10046000FD40FC404CEA0505C6E90054002747E77B
:10047000C2F1200320FA03F7954001FA02F021FAB5
:1004800003F34FEA154E3843010CB3FBFEF71FFA96
:1004900085F80EFB173341EA034107FB08F38B4253
:1004A00004FA02F407D9691807F1FF3C2FD28B42F6
:1004B0002DD9023F2944CB1A81B2B3FBFEF00EFBCB
:1004C000103341EA034100FB08F38B4207D9691856
:1004D00000F1FF3C17D28B4215D902382944C91AC2
:1004E00040EA07473BE73746304609E70746E7E675
:1004F0001846FBE64145ABD2B8EB020A69EB0E02A7
:1005000001381346A4E76046E9E7184695E76746D1
:10051000D1E781467CE702382C4447E7ACF1020C76
:100520002B442FE7384608E73746E9E6704700BF17
:1005300080B483B000AF7860064BD3F890200549B3
:100540007B681343C1F8903000BF0C37BD465DF89F
:10055000047B70470008005880B485B000AF786015
:100560004FF0B043DA6C4FF0B0417B681343CB647B
:100570004FF0B043DA6C7B681340FB60FB6800BF50
:100580001437BD465DF8047B704780B485B000AF7A
:1005900078604FF0B043D3F84C214FF0B0417B6806
:1005A0001343C1F84C314FF0B043D3F84C217B6872
:1005B0001340FB60FB6800BF1437BD465DF8047B49
:1005C000704780B500AF04F0D1F904F0D5F94FF4CD
:1005D0008030FFF7ADFF09F0DFF900F021F800F0FF
:1005E000BFF800BF80BD0000B0B588B000AF0B4BB6
:1005F0003C1D1D460FCD0FC495E8070003C42280A3
:100600000234130C23700AF077FD3B1D184609F0E5
:100610006EFC00BF2037BD46B0BD00BFB8C50008A6
:1006200080B588B000AF3B1D00221A605A609A6006
:10063000DA601A610023BB8300237B8300233B83A2
:100640000023FB7733E0FB7F424ADB0013449B79B6
:10065000002B28D0FB7F3F4A52F833303E4A93426A
:100660000FD03E4A934215D0B3F1904F00D01BE01B
:10067000FB7F384ADB0013449A88BB8B1343BB8350
:1006800012E0FB7F334ADB0013449A887B8B1343D1
:100690007B8309E0FB7F2F4ADB0013449A883B8B66
:1006A00013433B8300E000BFFB7F0133FB77FB7FFD
:1006B000212BC8D90023FB600123BB6003233B61CE
:1006C000BB8B002B14D0BB8B7B600120FFF744FF5A
:1006D0000120FFF75AFF3B1D19464FF0904004F0F0
:1006E000FDFDBB8B002219464FF0904004F066FFE1
:1006F0007B8B002B12D07B8B7B600220FFF72CFFC3
:100700000220FFF742FF3B1D1946134804F0E6FDA7
:100710007B8B00221946104804F050FF3B8B002BC6
:1007200013D03B8B7B600420FFF716FF0420FFF7FC
:100730002CFF3B1D1946094804F0D0FD3B8B0022DD
:100740001946064804F03AFF00BF00BF2037BD46F7
:1007500080BD00BFA8CC0008000400480008004885
:1007600080B400AF00BFBD465DF8047B704780B524
:1007700000AF01F0CBFC00BF80BD80B584B000AFFE
:10078000F8600B467A607B817A897B68F968002083
:1007900001F00AFA00BF1037BD4680BD80B483B0B7
:1007A00000AF7860074BD3F8803023F0070205498B
:1007B0007B681343C1F8803000BF0C37BD465DF83D
:1007C000047B70470004005880B483B000AF7860A9
:1007D0004FF0B0439B6823F400424FF0B0417B6878
:1007E00013438B6000BF0C37BD465DF8047B704738
:1007F00080B500AF00F014F80849002000F03CFF7D
:10080000FFF7DFFE012101200AF0BEFC00F067F8CF
:1008100000F075F800F012F800BF80BD2815002028
:1008200080B500AF4FF40040FFF7CEFF0AF09AFC0E
:100830000420FFF7B3FF00BF80BD000080B588B083
:1008400000AF0AF0BDFA114A002180200AF0AAFD8B
:100850000F4B3B600F4B7B603B4619460E4809F03F
:100860005DFB0E4BBB600E4BFB600E4B3B6140F2E1
:100870003C537B6107F1080318460AF0B3FB0AF00A
:1008800099FA00BF2037BD4680BD00BF559F0008C4
:1008900024070320A9080008BF0800083C0903201A
:1008A00030080320E801032080B483B000AF034682
:1008B000FB7100BF0C37BD465DF8047B704780B507
:1008C00082B000AF7860FFF78FFE02F021F90021BF
:1008D00001200AF059FC00BF0837BD4680BD80B535
:1008E00000AF002003F0B8FD012003F0B5FD0220A9
:1008F00003F0B2FD012003F0E9FD00BF80BD80B52B
:1009000000AF0121002003F015FE00BF80BD80B4C0
:1009100000AF00BFBD465DF8047B704780B582B074
:1009200000AF786039604FF0FF300AF05BFC00BF29
:100930000837BD4680BD80B582B000AF7860002129
:1009400080200AF04FFD00BF0837BD4680BD80B54E
:1009500082B000AF786002200AF0AAFD00BF08371D
:10096000BD4680BD80B582B000AF786002200AF03D
:10097000BDFD00BF0837BD4680BD80B582B000AF69
:100980000346FB80FB88022B0AD0102B02D0012BE0
:1009900003D008E002F04CFC05E002F059FC02E054
:1009A00002F05DFC00BF00BF0837BD4680BD0000FF
:1009B00080B400AF054BDB68044A43F40043D360C6
:1009C00000BFBD465DF8047B704700BF00040058BF
:1009D00080B483B000AF7860064BD3F8D4200549CB
:1009E0007B681343C1F8D43000BF0C37BD465DF8B7
:1009F000047B70470008005880B483B000AF786073
:100A0000054B1A6A04497B6813430B6200BF0C371D
:100A1000BD465DF8047B70470008005880B485B07F
:100A200000AF78604FF0B0431A6D4FF0B0417B6873
:100A300013430B654FF0B0431A6D7B681340FB60A6
:100A4000FB6800BF1437BD465DF8047B704780B477
:100A500083B000AF78607B681B6843F480327B68AA
:100A60001A6000BF0C37BD465DF8047B704780B448
:100A700083B000AF78607B681B6843F001027B683D
:100A80001A6000BF0C37BD465DF8047B704780B428
:100A900083B000AF786039607B685A683B681B049C
:100AA000DB431A407B685A6000BF0C37BD465DF8D7
:100AB000047B704780B483B000AF786039607B6896
:100AC0005A683B681B041A437B685A6000BF0C37A6
:100AD000BD465DF8047B704780B483B000AF78609A
:100AE00039607B685A683B68DB431A407B685A6010
:100AF00000BF0C37BD465DF8047B704780B483B0FF
:100B000000AF786039607B683A689A6000BF0C3744
:100B1000BD465DF8047B704780B483B000AF786059
:100B200039603B681A047B689A6000BF0C37BD4689
:100B30005DF8047B704780B483B000AF78603960A3
:100B40007B68DA683B6813403A689A4201D1012316
:100B500000E0002318460C37BD465DF8047B704763
:100B600080B483B000AF786039607B68DA693B6835
:100B700013403A689A4201D1012300E0002318464D
:100B80000C37BD465DF8047B7047000080B500AFB0
:100B900002211948FFF7E4FF0346002B09D0164B4A
:100BA0005B68DB4303F00203002B02D000F0E6F8A1
:100BB0001FE001211048FFF7D3FF0346002B08D0A8
:100BC0000D4B5B6803F00103002B02D100F09AF893
:100BD0000FE008210848FFF7C3FF0346002B09D0A8
:100BE000054B5B68DB4303F00803002B02D000F0E9
:100BF00011F900BF00BF80BD000C005880B500AFE8
:100C000002212248FFF797FF0346002B09D11F4B13
:100C10005B68DB4303F40033002B02D000F0A2F842
:100C200031E002211948FFF786FF0346002B09D166
:100C3000164B5B68DB4303F40033002B02D000F05B
:100C400091F820E008211148FFF775FF0346002BBB
:100C500009D10E4B5B68DB4303F40023002B02D069
:100C600000F0BAF80FE020210848FFF764FF0346C0
:100C7000002B09D1054B5B68DB4303F40013002B09
:100C800002D000F04BF800BF00BF80BD000C005840
:100C900080B500AF4FF40070FFF79AFE4FF400707C
:100CA000FFF7AAFE40BF20BFFFF782FE00BF80BD56
:100CB00080B500AF4FF48010FFF7B0FE0648FFF795
:100CC000D6FE0548FFF7C3FE2C2003F0AEFF2D2013
:100CD00003F0ABFF00BF80BD000C005880B500AF33
:100CE00001210248FFF7F8FE00BF80BD000C00584C
:100CF00080B500AF01210248FFF70EFF00BF80BDA5
:100D0000000C005880B500AF0AF0DCF80121024861
:100D1000FFF7F4FE00BF80BD000C005880B500AFA7
:100D200020210348FFF7C6FE0AF0E8F800BF80BDA7
:100D3000000C005880B500AF02210248FFF7CCFE3E
:100D400000BF80BD000C005880B500AF02210448F0
:100D5000FFF7E2FE02210248FFF799FE00BF80BDC7
:100D6000000C005880B500AF02210348FFF7A2FE37
:100D70000AF00CF900BF80BD000C005880B500AF30
:100D80000AF014F902210248FFF7B8FE00BF80BD47
:100D9000000C005880B582B000AF786008210C4884
:100DA000FFF7C9FE0346002B07D00A4A7B68136091
:100DB00008210748FFF76BFE06E07B68984708218B
:100DC0000348FFF7A9FE00BF0837BD4680BD00BF3E
:100DD000000C00584802002080B500AF08210648EA
:100DE000FFF768FE054B1B68984708210248FFF78C
:100DF00093FE00BF80BD00BF000C005848020020D9
:100E000080B500AF08210248FFF766FE00BF80BD35
:100E1000000C005880B500AF0AF080F908210248A4
:100E2000FFF76CFE00BF80BD000C005880B483B09B
:100E300000AF7860064BD3F8802005497B681343E8
:100E4000C1F8803000BF0C37BD465DF8047B7047A9
:100E50000008005880B483B000AF7860054B1A6872
:100E600004497B6813430B6000BF0C37BD465DF837
:100E7000047B70470008005880B483B000AF0D4B6E
:100E80009B6A9BB27B600B4B9B6A9BB23B6005E00D
:100E90003B687B60074B9B6A9BB23B607A683B6810
:100EA0009A42F5D13B6818460C37BD465DF8047B85
:100EB000704700BF0028004080B485B000AF0346F3
:100EC0000A46FB711346BB71BA791D4913465B0094
:100ED0001344DB000B4415331B78FB73FB7B062BA1
:100EE00009D0FA7B164913465B001344DB000B4420
:100EF0001433FA791A70FA79114913465B001344D6
:100F0000DB000B441533FA7B1A70FA790C4913464F
:100F10005B001344DB000B441433BA791A70BA79BE
:100F2000074913465B001344DB000B441533FA7981
:100F30001A7000BF1437BD465DF8047B704700BFD0
:100F40009400002080B485B000AF03460A46FB71D0
:100F50001346BB71294B1B78DBB2BA799A4232D067
:100F6000BA79274913465B001344DB000B44143362
:100F70001B78FB73FA7B224913465B001344DB00AA
:100F80000B441533FA791A70FA791D4913465B0040
:100F90001344DB000B441533BA791A70FA791849F7
:100FA00013465B001344DB000B441433FA7B1A70C6
:100FB000BA79134913465B001344DB000B44143326
:100FC000FA791A7014E0FA790D4913465B0013445C
:100FD000DB000B441533BA791A70BA790849134605
:100FE0005B001344DB000B441433FA791A7000BF22
:100FF0001437BD465DF8047B704700BF2401002014
:101000009400002080B584B000AF0346FB714E4BC6
:101010001B78DBB2062B18D14B4B1B78DAB24B4B4B
:101020001A70494AFB791370FA79494913465B00F3
:101030001344DB000B44153306221A70454B4FF066
:10104000FF321A600023FB8178E000F009F90346C3
:10105000FB81FA793E4913465B001344DB000B44E5
:1010600008331968FB89FA791944394813465B003B
:101070001344DB00034408331960FA7934491346FA
:101080005B001344DB000B4408331B68BB602E4B32
:101090001B78DBB219462E4A0B465B000B44DB0083
:1010A000134408331B68BA689A4237D3264B1B781F
:1010B0007B737A7B264913465B001344DB000B44A9
:1010C00015331B783B7313E07A7B214913465B0091
:1010D0001344DB000B4415331B787B737A7B1C496C
:1010E00013465B001344DB000B4415331B783B7342
:1010F0003B7B062B0BD03A7B154913465B00134410
:10110000DB000B4408331B68BA689A42DCD27A7B56
:10111000FB7911461846FFF7CFFE0FE00A4B1B780C
:10112000DAB2FB7911461846FFF70CFF064B1B7825
:10113000DAB2064B1A70044AFB791370FB89184621
:101140001037BD4680BD00BF2401002025010020CE
:10115000940000202801002080B485B000AF034631
:101160000A46FB711346BB71394B1B78DBB2FA7927
:101170009A4211D1364B1B78DAB2364B1A70FA7993
:10118000354913465B001344DB000B4415331B78D1
:10119000DAB22F4B1A703EE0FA792F4913465B0002
:1011A0001344DB000B4414331B78FB73FA792A4990
:1011B00013465B001344DB000B4415331B78BB73F1
:1011C000F979FA7B24480B465B000B44DB000344AF
:1011D00015331B78D8B2204913465B001344DB005B
:1011E0000B44153302461A70BB7B062B13D0F979DA
:1011F000BA7B19480B465B000B44DB0003441433F5
:101200001B78D8B2144913465B001344DB000B442F
:10121000143302461A70FA790F4913465B001344DF
:10122000DB000B440C3301221A70094B1B78DBB234
:10123000062B07D1BB79002B04D1084B4FF0FF32AE
:101240001A6000BF00BF1437BD465DF8047B7047CD
:101250002401002025010020940000202801002006
:1012600080B582B000AF1A4B1B68B3F1FF3F26D0A8
:10127000FFF702FE7860164B1B687A689A4205D821
:10128000134B1A687B68D31A7B600AE0114B1B88EA
:101290001A467B68D31A3B600D4B1B683A681344AF
:1012A0007B600D4B1B781A467B6802FB03F37B6067
:1012B0000A4B1B781A467B68D3407B6001E0002311
:1012C0007B607B689BB218460837BD4680BD00BF77
:1012D000280100205202002051020020500200206C
:1012E00080B582B000AF0346FB80FB88002B08D19D
:1012F000FFF7C2FD0246244B1A60032003F0BDFC39
:101300003EE0FB88012B03D8204B1B78012B02D039
:10131000FB88013BFB8000BF1D4B1B681B68DB6823
:1013200003F00403002BF7D0194B1B681B68DB6824
:10133000DAB2174B1B681B6862F49062DA60154BD7
:101340004FF40022DA60032003F0A5FC124B5B6926
:101350001B0C1B04FA88104913434B61FFF78CFDEB
:101360000246094B1A600A4B1B681B689A68084BB7
:101370001B681B6842F480629A60AFF3008000BF74
:101380000837BD4680BD00BF280100205002002064
:101390004C020020000800580028004080B584B0AE
:1013A00000AF474B9B6803F48063B3F5806F08D1AF
:1013B00000BF444B1B681B68DB6803F00403002B71
:1013C000F7D1404B1B681B689A683E4B1B681B6833
:1013D00022F480629A603C4B1B78FB73FA7B3B499A
:1013E00013465B001344DB000B4408331B68BB60EF
:1013F000FFF736FF0346FB80FB88BA689A4205D2A6
:101400000023BB81324B01221A704DE0FB88314A28
:10141000128892B213441A46BB68934206D92D4BE8
:101420001B88BB812A4B00221A703DE0BB689AB230
:10143000FB88D31ABB81264B01221A7034E0FA7B59
:10144000224913465B001344DB000B4408331A683F
:10145000FB889A420AD2FA7B1C4913465B0013446C
:10146000DB000B44083300221A6013E0FA7B1749B3
:1014700013465B001344DB000B4408331968FB88F8
:10148000FA7BC91A114813465B001344DB0003447E
:1014900008331960FA7B0D4913465B001344DB00E7
:1014A0000B4415331B78FB73FB7B062BC7D1BB8921
:1014B0001846FFF715FF00BF1037BD4680BD00BFBF
:1014C000002800404C02002024010020940000204D
:1014D0002C0100205402002080B58AB000AFEFF349
:1014E00010837B617B697B6272B65E4B1B681B68F5
:1014F000CA225A625B4B1B681B6853225A62594BC3
:101500001B681B689A68574B1B681B6822F4806233
:101510009A60554B1B7887F8233097F8232053495E
:1015200013465B001344DB000B440C331B78DBB227
:10153000022B70D197F823204C4913465B001344CB
:10154000DB000B441B68FB6197F8232047491346D7
:101550005B001344DB000B4410331B68BB61444B3E
:101560001B78DBB2002B4ED097F823203F4913465F
:101570005B001344DB000B440D331B78DBB2012B03
:1015800025D197F8233001211846FFF7E5FD7B6A46
:101590003B613B6983F3108897F823203349134656
:1015A0005B001344DB000B4404331A6897F82330C4
:1015B0001146184600F040FA2A4B1B681B68CA22E5
:1015C0005A62284B1B681B6853225A6213E07B6ADD
:1015D000FB60FB6883F3108897F82330184600F00F
:1015E000A1F9204B1B681B68CA225A621D4B1B685D
:1015F0001B6853225A6297F82330FA691946B86972
:1016000000F0A0FA24E0FFF7C9FE7B6ABB60BB686C
:1016100083F310881CE000BF124B1B681B68DB685B
:1016200003F00403002BF7D00E4B1B681B68DB682C
:10163000DAB20C4B1B681B6862F49062DA600D4BE7
:101640004FF40022DA607B6A7B607B6883F310884A
:10165000044B1B681B68FF225A6200BF2837BD4637
:1016600080BD00BF4C020020240100209400002017
:101670002C0100200008005880B586B000AF03465A
:101680003960FB71614A3B681360604B1B681B68E3
:10169000CA225A625D4B1B681B6853225A625C4B1C
:1016A0009B685B4A43F020039360594B9B68DBB215
:1016B00003F00703DBB2C3F10403DAB2554B1A702F
:1016C000534B1B6903F4FE034FF4FE02FA60FA6801
:1016D00092FAA2F2BA60BA68B2FA82F2D2B2D340F7
:1016E000DBB20133DAB24C4B1A70494B1B699BB227
:1016F000C3F30E039BB201339AB2484B1A80474B97
:101700001B88013B444A127802FB03F3A3F5A07344
:10171000404A1278D3403B613B694FF6FE729342D8
:1017200004D93F4B4FF6FF721A8003E03B699AB22F
:101730003B4B1A804FF40020FFF78CFB4FF4002046
:10174000FFF774FBFB79002B43D1364B01221A7053
:10175000354B4FF0FF321A600023FB750CE0FA7D29
:10176000324913465B001344DB000B440C33002268
:101770001A70FB7D0133FB75FB7D052BEFD92C4BDC
:1017800006221A70214B1B681B689A681F4B1B6846
:101790001B6822F480629A601C4B1B681B68DB6824
:1017A000DAB21A4B1B681B6862F49062DA60214B54
:1017B0004FF40022DA60032003F06DFA134B1B682C
:1017C0001B689A68114B1B681B6842F480429A6040
:1017D0000AE00E4B1B681B68DB6803F48063002B78
:1017E00002D0032003F049FA084B1B681B68FF2254
:1017F0005A6200220321032003F0FDF9032003F0C5
:1018000014FA00BF1837BD4680BD00BF4C0200204F
:101810000028004050020020510200205202002007
:10182000540200202C0100202801002094000020F8
:10183000240100200008005880B48BB000AFF8608D
:10184000B9603B601346FB71002387F82630EFF345
:101850001083FB61FB693B6272B604E097F82630A7
:10186000013387F8263097F82630052B0CD897F8E7
:1018700026202B4913465B001344DB000B440C333A
:101880001B78DBB2002BE9D197F82630062B37D036
:1018900097F82620224913465B001344DB000B44D3
:1018A0000C3301221A703B6ABB61BB6983F3108859
:1018B00097F826201A4913465B001344DB000B44BB
:1018C0001033FA681A6097F82620154913465B0012
:1018D0001344DB000B440D33FA791A7097F8262075
:1018E0000F4913465B001344DB000B443A681A604F
:1018F000BB6897F826201A70002387F8273007E086
:101900003B6A7B617B6983F31088012387F827306A
:1019100097F8273018462C37BD465DF8047B704792
:101920009400002080B586B000AF0346FB71EFF352
:101930001083FB60FB687B6172B6032003F083F9C0
:10194000374B1B681B68CA225A62354B1B681B68E1
:1019500053225A62FA79334913465B001344DB0081
:101960000B440C331B78DBB2022B48D1FB790021EE
:101970001846FFF7F1FB2C4B1B78FB74FB7C062B06
:1019800035D12A4B9B6803F48063B3F5806F08D18F
:1019900000BF234B1B681B68DB6803F00403002BAC
:1019A000F7D11F4B1B681B689A681D4B1B681B688F
:1019B00022F480629A6000BF194B1B681B68DB68C9
:1019C00003F00403002BF7D0154B1B681B68DB6882
:1019D000DAB2134B1B681B6862F49062DA60144B36
:1019E0004FF40022DA60032003F055F907E0114BB1
:1019F0001B78DBB2FA7C9A4201D0FFF7CFFC084B90
:101A00001B681B68FF225A62032003F00EF97B69F2
:101A1000BB60BB6883F3108800BF1837BD4680BD2C
:101A20004C020020940000202401002000280040E7
:101A3000000800582501002080B586B000AF03469D
:101A40003960FB71FA793B4913465B001344DB00B4
:101A50000B440C331B78DBB2022B03D1FB79184605
:101A6000FFF760FFEFF31083FB60FB687B6172B6EA
:101A7000032003F0E8F8304B1B681B68CA225A6247
:101A80002D4B1B681B6853225A62FA792949134669
:101A90005B001344DB000B440C3302221A70FA790A
:101AA000244913465B001344DB000B4408333A68B7
:101AB0001A60FA791F4913465B001344DB000B449C
:101AC00004333A681A60FB791846FFF79BFA03461D
:101AD0007B821A4B1B787B74194B1B78DBB27A7CA8
:101AE0009A4202D0FFF75AFC13E0FA7911491346E3
:101AF0005B001344DB000B44083319687B8AFA79D6
:101B0000C91A0C4813465B001344DB000344083336
:101B10001960094B1B681B68FF225A62032003F0FF
:101B200084F87B69BB60BB6883F3108800BF1837FB
:101B3000BD4680BD940000204C02002024010020FE
:101B40002501002080B584B000AFF8600B467A60B4
:101B5000FB727B68984700BF1037BD4680BD000010
:101B600080B584B000AFB9607B600346FB73134659
:101B7000BB81FB7B002B00D00CE0084A7B68136024
:101B8000074B084A1A60BB891A46B968044805F031
:101B900005FD00BF00BF1037BD4680BDA813002063
:101BA0009C1400200038014080B586B000AFB960B9
:101BB0007B600346FB731346BB810023FB75002348
:101BC000BB75FB7B002B00D00EE0174A7B681360CF
:101BD000164B174A1A60BB891A46B968134805F0B4
:101BE000B5FD0346FB7500BFFB7D032B16D801A294
:101BF00052F823F0051C00080B1C0008111C0008FB
:101C0000171C00080023BB7509E00123BB7506E023
:101C10000223BB7503E00323BB7500E000BFBB7D5F
:101C200018461837BD4680BDAC1300209C14002018
:101C30000038014080B582B000AF78607B681B68D7
:101C40001A46084B9A4200D007E0074B1B68002B4E
:101C500002D0054B1B68984700BF00BF0837BD4640
:101C600080BD00BF00380140A813002080B582B0BD
:101C700000AF78607B681B681A46084B9A4200D018
:101C800007E0074B1B68002B02D0054B1B689847E9
:101C900000BF00BF0837BD4680BD00BF003801400F
:101CA000AC13002080B483B000AF7860074BD3F84A
:101CB00080207B68DB4305491340C1F8803000BFBA
:101CC0000C37BD465DF8047B704700BF0008005824
:101CD00080B483B000AF7860074BD3F890207B6866
:101CE000DB4305491340C1F8903000BF0C37BD46B7
:101CF0005DF8047B704700BF0008005880B483B0D3
:101D000000AF78604FF0B0430A4AC3F89C204FF010
:101D1000B043D3F89C3023F47C527B681B024FF015
:101D2000B0411343C1F89C3000BF0C37BD465DF88D
:101D3000047B7047FECAFECA80B483B000AF7860EF
:101D40004FF0B043D3F8903023F018024FF0B04179
:101D50007B681343C1F8903000BF0C37BD465DF877
:101D6000047B704780B400AF4FF0B043D3F890309D
:101D70004FF0B04243F48033C2F8903000BFBD460C
:101D80005DF8047B704780B400AF4FF0B043D3F8E8
:101D900090304FF0B04223F48033C2F8903000BF4F
:101DA000BD465DF8047B704780B400AF4FF0B04390
:101DB000D3F8943003F08063B3F1806F01D1012335
:101DC00000E000231846BD465DF8047B704780B4F0
:101DD00000AF4FF0B043D3F8943003F08053B3F129
:101DE000805F01D1012300E000231846BD465DF865
:101DF000047B704780B485B000AF78604FF0B0438B
:101E00009A6C4FF0B0417B6813438B644FF0B04342
:101E10009A6C7B681340FB60FB6800BF1437BD46BB
:101E20005DF8047B704780B485B000AF78604FF0F8
:101E3000B043DA6C4FF0B0417B681343CB644FF092
:101E4000B043DA6C7B681340FB60FB6800BF14375B
:101E5000BD465DF8047B704780B485B000AF786004
:101E60004FF0B0431A6D4FF0B0417B6813430B65E0
:101E70004FF0B0431A6D7B681340FB60FB6800BFF6
:101E80001437BD465DF8047B704780B483B000AF63
:101E9000786039607B685A683B681B041A437B682A
:101EA0005A6000BF0C37BD465DF8047B704780B4B4
:101EB00083B000AF786039607B685A683B681A432A
:101EC0007B685A6000BF0C37BD465DF8047B7047E5
:101ED00080B483B000AF786039607B685A693B6832
:101EE0001B041A437B685A6100BF0C37BD465DF87E
:101EF000047B704780B483B000AF786039607B6842
:101F00005A693B681A437B685A6100BF0C37BD466B
:101F10005DF8047B704780B483B000AF78603960AF
:101F20007B683A689A6000BF0C37BD465DF8047B59
:101F3000704780B483B000AF786039607B683A68DE
:101F40009A6100BF0C37BD465DF8047B7047000006
:101F500080B400AF054B1B69044A23F004031361EE
:101F600000BFBD465DF8047B704700BF00ED00E098
:101F700080B483B000AF78607B68FF225A6200BFF4
:101F80000C37BD465DF8047B704780B483B000AF6A
:101F900078607B68CA225A627B6853225A6200BF0B
:101FA0000C37BD465DF8047B704780B483B000AF4A
:101FB000786039607B689B6823F007023B681A43AE
:101FC0007B689A6000BF0C37BD465DF8047B7047A4
:101FD00080B500AF02F038FC00F067F900F051F96D
:101FE00000F014F800F046F900F0A1F900F035F91E
:101FF00000F016F900F0D8F800F0DEF8FEF7F8FB74
:102000004FF0FF3009F0EEF8FAE7000080B5AEB00F
:1020100000AF07F1700348220021184609F025FBA4
:1020200007F1540300221A605A609A60DA601A615C
:102030005A619A613B1D50220021184609F015FB98
:1020400003F010FB0020FFF777FE2F4B1B6823F4F3
:10205000C0632D4A43F4007313602B4B1B6803F4D9
:10206000C0633B603B6807233B674FF480337B676B
:102070000123BB674FF48073FB674023C7F88030B0
:102080000023C7F89C3007F17003184603F09CFE4C
:102090000346002B01D000F07AF96F237B65022301
:1020A000BB650023FB6500233B6600237B660023A2
:1020B000BB660023FB6607F154030121184604F0B8
:1020C00017FA0346002B01D000F061F943F6030331
:1020D0007B600023FB6100233B624FF480737B64D1
:1020E0004FF48043BB640223FB6410233B653B1D1C
:1020F000184604F038FE0346002B01D000F047F9E3
:1021000000BFB837BD4680BD0004005880B500AFA1
:10211000234B244A1A60224B4FF4E1325A60204B81
:1021200000229A601E4B0022DA601D4B00221A61C9
:102130001B4B0C225A611A4B00229A61184B4FF428
:102140000042DA61164B00221A62154B00225A62D5
:10215000134B00229A62124805F0CFF90346002B78
:1021600001D000F014F900210D4806F06EFB034683
:10217000002B01D000F00BF90021094806F0A3FB69
:102180000346002B01D000F002F9054806F024FBBD
:102190000346002B01D000F0FAF800BF80BD00BF5D
:1021A0009C1400200038014080B400AF00BFBD4641
:1021B0005DF8047B7047000080B500AF164B174AEE
:1021C0001A60154B00225A60134B0F229A60124B73
:1021D00047F6FF72DA60104B00221A610E4B0022A4
:1021E0009A610D4B0022DA610B4B00225A610A48BA
:1021F00005F03FF80346002B01D000F0C8F807486F
:10220000FFF7C3FE00210548FFF7CFFE0348FFF7A5
:10221000AFFE00BF80BD00BF281500200028004091
:1022200080B500AF0420FFF7E5FD0220FFF7E2FDD7
:102230000120FFF7DFFD00220F210E2002F0DBFC62
:102240000E2002F0F2FC00220F213A2002F0D3FC13
:102250003A2002F0EAFC00BF80BD80B500AF042048
:10226000FFF7E1FD0120FFF7DEFD0220FFF7DBFDB8
:1022700000BF80BD80B400AF00BFBD465DF8047BE9
:10228000704780B582B000AF002007F0F1FD7860A4
:102290007B68002B05D07B689B791846FFF72EFDE5
:1022A00000BF00BF0837BD4680BD80B500AF00F05D
:1022B00027F800F003F800BF80BD000080B500AF34
:1022C0004FF48010FFF7C8FD3F210C48FFF723FEB5
:1022D0003F210A48FFF72DFE3F210848FFF7D5FDB3
:1022E0003F210648FFF7F4FD3F210448FFF7DFFDDB
:1022F0003F210248FFF7FEFD00BF80BD000C0058E3
:1023000080B500AFFFF750FD0346002B0DD0FFF75F
:102310005EFD0346002B08D103F0A4F903F0A2F9F7
:10232000FFF720FDFFF72FFD00BF00BF80BD80B588
:1023300000AF4FF0FF30FFF7B5FC6FF05000FFF734
:10234000C7FC00BF80BD80B584B000AF786002F0EC
:10235000E9FAB8607B68FB60FB68B3F1FF3F0AD025
:1023600002F0F8FA03461A46FB681344FB6002E0E9
:10237000FFF7EEFD30BF02F0D5FA0246BB68D31A74
:10238000FA689A42F4D800BF1037BD4680BD80B4C9
:1023900000AF00BFBD465DF8047B704780B483B0DA
:1023A00000AF78604FF0B043D3F8903023F4407220
:1023B0004FF0B0417B681343C1F8903000BF0C3739
:1023C000BD465DF8047B704780B400AF4FF0B0436A
:1023D000D3F890304FF0B04243F40043C2F890304D
:1023E00000BFBD465DF8047B704780B485B000AF88
:1023F00078604FF0B043DA6C4FF0B0417B68134324
:10240000CB644FF0B043DA6C7B681340FB60FB6831
:1024100000BF1437BD465DF8047B704780B485B0BB
:1024200000AF78604FF0B0431A6D4FF0B0417B6859
:1024300013430B654FF0B0431A6D7B681340FB608C
:10244000FB6800BF1437BD465DF8047B704780B45D
:1024500085B000AF78604FF0B0439A6D4FF0B04157
:102460007B6813438B654FF0B0439A6D7B681340D4
:10247000FB60FB6800BF1437BD465DF8047B704706
:1024800080B485B000AF78604FF0B043DA6D4FF0A4
:10249000B0417B681343CB654FF0B043DA6D7B6886
:1024A0001340FB60FB6800BF1437BD465DF8047B3A
:1024B000704780B485B000AF78604FF0B0431A6EBB
:1024C0004FF0B0417B6813430B664FF0B0431A6E78
:1024D0007B681340FB60FB6800BF1437BD465DF8A6
:1024E000047B704780B500AF4FF40020FFF796FFE4
:1024F000002200212E2002F07EFB2E2002F095FB10
:1025000000BF80BD80B58CB000AF786007F11C03C0
:1025100000221A605A609A60DA601A617B681B6850
:102520006C4A93426FD10120FFF7AAFF0120FFF709
:102530005CFF0C23FB6102233B6200237B620323CD
:10254000BB620823FB6207F11C0319464FF0904061
:1025500002F0C4FE4023FB6102233B6200237B6246
:102560000023BB620823FB6207F11C0319464FF0EE
:10257000904002F0B3FE584B584A1A60564B112255
:102580005A60554B10229A60534B0022DA60524B2E
:1025900080221A61504B00225A614F4B00229A61EF
:1025A0004D4B0022DA614C4B00221A624A4802F07D
:1025B00081FB0346002B01D0FFF7E9FE4FF0885363
:1025C000FB6000233B6100233B7500237B750123E7
:1025D000BB6107F10C0319463F4802F03FFE03467A
:1025E000002B01D0FFF7D3FE7B683B4A5A673A4A7B
:1025F0007B68936200220021252002F0FCFA25204E
:1026000002F013FB61E07B681B68354A93425CD1A2
:102610004FF48040FFF74DFF0120FFF7E6FE022058
:10262000FFF7E3FE4FF40063FB6102233B620023EC
:102630007B620023BB620723FB6207F11C03194680
:102640004FF0904002F04AFEC023FB6102233B6240
:1026500001237B620323BB620723FB6207F11C0398
:102660001946204802F03AFE1F4B204A1A601E4BC2
:102670000F225A601C4B10229A601B4B0022DA601A
:10268000194B80221A61184B00225A61164B002206
:102690009A61154B0022DA61134B00221A6212482C
:1026A00002F008FB0346002B01D0FFF770FE7B68A9
:1026B0000D4A5A670C4A7B6893620022002124204D
:1026C00002F099FA242002F0B0FA00BF3037BD467C
:1026D00080BD00BF008000404C1500204400024037
:1026E00000380140000400483C140020440402402B
:1026F00080B582B000AF78607B681B680B4A93425C
:1027000010D102F0AFFF02F0ADFF4FF48070FFF781
:1027100045FEFFF759FE4FF48060FFF798FE78689A
:1027200004F095FE00BF0837BD4680BD002800407C
:1027300080B400AF00BFBD465DF8047B704780B435
:1027400000AFFEE780B400AFFEE780B400AFFEE765
:1027500080B400AFFEE780B400AF00BFBD465DF8B7
:10276000047B704780B400AF00BFBD465DF8047BBA
:10277000704780B400AF00BFBD465DF8047B704772
:1027800080B500AF02F0BAF800BF80BD80B500AFE1
:10279000024802F011FC00BF80BD00BF4C150020B4
:1027A00080B500AF024805F051F800BF80BD00BF02
:1027B0009C14002080B500AF024805F047F800BF28
:1027C00080BD00BFB013002080B500AF02F026FF2F
:1027D00000BF80BD80B500AF024802F0EDFB00BF36
:1027E00080BD00BF3C14002080B500AF102002F077
:1027F000FDFE00BF80BD80B500AFFEF76DFE00BFDF
:1028000080BD80B500AFFEF7F9F900BF80BD80B58F
:1028100000AFFEF7BBF900BF80BD80B586B000AF4A
:10282000F860B9607A6000237B610AE0AFF3008052
:102830000146BB685A1CBA60CAB21A707B69013380
:102840007B617A697B689A42F0DB7B6818461837AF
:10285000BD4680BD80B483B000AF78604FF0FF33D9
:1028600018460C37BD465DF8047B704780B483B0D2
:1028700000AF786039603B684FF400525A60002323
:1028800018460C37BD465DF8047B704780B483B0B2
:1028900000AF7860012318460C37BD465DF8047B15
:1028A000704780B485B000AFF860B9607A600023EB
:1028B00018461437BD465DF8047B704780B586B076
:1028C00000AF7860144A154BD31A7B617B693B617A
:1028D000134B1B68002B02D1114B124A1A60104B8C
:1028E0001A687B6813443A699A4207D208F088FE56
:1028F00002460C2313604FF0FF3309E0084B1B68BE
:10290000FB60074B1A687B681344054A1360FB6839
:1029100018461837BD4680BD000003200010000097
:1029200058020020B021002080B400AF034B1B6888
:102930001846BD465DF8047B704700BF8075FF1FD9
:1029400080B400AF034B1B68DBB21846BD465DF890
:10295000047B70478475FF1F80B400AF034B1B6876
:102960001B0A1846BD465DF8047B70478475FF1F3F
:1029700080B500AF0121402008F034FD00BF80BDCC
:1029800080B485B000AF78600B46FB700023FB730A
:102990000023BB60A7E0FB78002B50D17B681A783E
:1029A0005849BB68262000FB03F30B441B789A426E
:1029B00040F096807B6801331A785249BB68262024
:1029C00000FB03F30B4401331B789A4240F08880EC
:1029D0007B6802331A784B49BB68262000FB03F35F
:1029E0000B4402331B789A427AD17B6803331A78FE
:1029F0004449BB68262000FB03F30B4403331B78D8
:102A00009A426DD17B6804331A783E49BB68262010
:102A100000FB03F30B4404331B789A4260D17B68BC
:102A200005331A783749BB68262000FB03F30B44B3
:102A300005331B789A4253D10123FB7350E0FB7896
:102A4000012B4DD17B681A782F49BB68262000FBEB
:102A500003F30B441B789A4242D17B6801331A7806
:102A60002949BB68262000FB03F30B4401331B7884
:102A70009A4235D17B6802331A782349BB682620F5
:102A800000FB03F30B4402331B789A4228D17B6886
:102A900003331A781C49BB68262000FB03F30B4460
:102AA00003331B789A421BD17B6804331A7816498A
:102AB000BB68262000FB03F30B4404331B789A42C7
:102AC0000ED17B6805331A780F49BB68262000FBBE
:102AD00003F30B4405331B789A4201D10123FB73A6
:102AE000BB680133BB60094B1B781A46BB68934235
:102AF000FFF651AFFB7B18461437BD465DF8047BEB
:102B0000704700BFC4150020B81B002062020020DF
:102B1000B0B58CB000AF204B3C461D460FCD0FC466
:102B20000FCD0FC495E80F0007C4237000F09EFB83
:102B30000121022008F028FB184A0021202008F07B
:102B400031FC3B46184607F0BBF900F0A5FB08F046
:102B500075F8134A0021012008F024FC114A0021D5
:102B6000022008F01FFC104A0021402008F01AFC47
:102B70000E4B002283F89020202006F0C0FD00F0CC
:102B8000A5FE0B4B00220B490020FEF755FE00BFAF
:102B90003037BD46B0BD00BFD4C50008C59A000897
:102BA0000D34000869340008ED34000830010020BD
:102BB000F5350008C1010020F0B5A7B006AF786078
:102BC0007B6801337B657B6D02333B657B6D1B78D6
:102BD0003E2B00F0D181FF2B03D0052B00F0AE81FE
:102BE00005E3954B01221A707B6D0233FB64FB6C8D
:102BF0001B889BB240F20742934208D040F6020283
:102C0000934200F03F81042B00F08B8195E1FB6C37
:102C100002333B643B6C1B78022B40F08D813B6C94
:102C20005B78002B40F08881002001F069FC0023D4
:102C3000FB6797E00023BB678AE0804AFB6F262191
:102C400001FB03F313441A787D49BB6F262000FB78
:102C500003F30B441B789A4277D1784AFB6F262105
:102C600001FB03F3134401331A787549BB6F262027
:102C700000FB03F30B4401331B789A4265D16F4A82
:102C8000FB6F262101FB03F3134402331A786C49CE
:102C9000BB6F262000FB03F30B4402331B789A42E0
:102CA00053D1664AFB6F262101FB03F31344033320
:102CB0001A786349BB6F262000FB03F30B440333F0
:102CC0001B789A4241D15D4AFB6F262101FB03F339
:102CD000134404331A785A49BB6F262000FB03F3D0
:102CE0000B4404331B789A422FD1544AFB6F2621A0
:102CF00001FB03F3134405331A785149BB6F2620B7
:102D000000FB03F30B4405331B789A421DD10023CB
:102D10007B6717E0494AFB6F262101FB03F31A4446
:102D20007B6F134407331878454ABB6F262101FB9C
:102D300003F31A447B6F1344073302461A707B6F08
:102D400001337B677B6F1E2BE4D9BB6F0133BB67FD
:102D50003C4B1B781A46BB6F9342FFF66EAFFB6F7E
:102D60000133FB67384B1B68FA6F9A42FFF662AF7C
:102D7000364808F083FC364808F080FC354808F0F7
:102D80007DFC354808F07AFC344808F077FC0023D5
:102D90003B6737E0396F324808F070FC3B6F262202
:102DA00002FB03F3264A1344073319462D4808F063
:102DB00065FC0523FB660FE0214A3B6F262101FBE2
:102DC00003F31A44FB6E13441B781946264808F097
:102DD00055FCFB6E013BFB66FB6E002BECDA184AE0
:102DE0003B6F262101FB03F31344063393F90030B4
:102DF00019461E4808F042FC1D4808F03FFC3B6F96
:102E000001333B670F4B1B781A463B6F9342C1DB84
:102E10000C4B1A78174B1A700A4B00221A700A4B87
:102E200000221A60144808F029FC144B02221449AD
:102E30000020FEF795FE7FE0AC150020B81B0020B7
:102E4000C4150020620200206402002004C60008AD
:102E500038C6000858C6000878C6000898C600089A
:102E6000DCC60008E4C6000808C7000810C7000850
:102E700024C700086802002028C70008712900083C
:102E8000B41B0020FB6C0233BB64002006F037FC4F
:102E9000BB6C9A78AB4B1A70BB6CB3F803309AB228
:102EA000A84B5A80BB6CB3F805309AB2A54B9A80F8
:102EB000BB6CB3F807309AB2A24BDA80BB6CB3F8A4
:102EC00009309AB29F4B1A81BB6CB3F80B309AB29F
:102ED0009C4B5A819C4BD88C9A4B9C88994BDD8893
:102EE000984B1E89974B5B89964A12780121049171
:102EF00003921022029210220192009333462A4636
:102F0000214606F06AFC034687F8473097F84730B9
:102F1000002B02D0022001F0D9FA202006F0EFFBAE
:102F20000BE0012001F0D2FA874B93F891300A218F
:102F30001846FEF781FD00E000BF58E13B6DB3F895
:102F400001309AB2804BDB8C9A4240F04F817E4B2D
:102F50000022DA847C4B002283F890207B4808F022
:102F600015FC7B4B01221A70774BDA8C784B5A8018
:102F7000774800F0F1FC39E17B6D0233FB63FB6BBA
:102F80001B78012B02D0022B31D02EE1FB6B0133D9
:102F9000BB62BB6AB3F801309AB26B4BDA846A4BFE
:102FA000062283F890206B4808F0F0FB684B002263
:102FB0001A70654BDA8C664B5A80654800F0CCFC81
:102FC000614BDB8C184606F0AFF8034687F84730B4
:102FD00097F84730002B06D15F4808F0D7FB5F48D1
:102FE00008F04CFB01E15E4808F048FBFDE0FB6B9C
:102FF0000133BB63BB6B5B7887F83730BB6B5B7AA5
:1030000087F83630BB6B093301333B63554A07F110
:10301000080392E8030083E8030007F1100300228D
:103020001A605A609A60DA601A61C3F813200023AC
:10303000BB665DE0BB6E3A6B13441B7887F82E309D
:10304000BB6E01333A6B13441B7887F82D3097F829
:103050002D30092B46D1BB6B033301211846FFF7F6
:103060008FFC0346002B3DD100237B6616E0BB6E30
:103070009A1C7B6E13441A463B6B1A443A4B1B68EE
:1030800010783A4A262101FB03F31A447B6E13445D
:10309000073302461A707B6E01337B6697F82E3039
:1030A000013B7A6E9A42E2DB00233B6612E02E4B34
:1030B0001B68B96B3A6E0A44033210782B4A2621FA
:1030C00001FB03F31A443B6E134402461A703B6E35
:1030D00001333B663B6E052BE9DD234B1B68013357
:1030E000214A136097F82E300133BA6E1344BB6641
:1030F00097F83630BA6E9A429CDB1D4B1B78272B13
:1031000072D8BB6B033300211846FFF739FC034626
:10311000002B69D1BB6B5B7A1A463B6B13441B785F
:1031200087F82F30124B1B781946124A262303FBCF
:1031300001F31344063397F82F201A700023FB6520
:103140002FE000BFB81500203001002050C7000854
:10315000AC15002078C700089CC70008D0C700083D
:1031600000C8000840C8000864020020B81B002006
:1031700062020020C41500201F4B1B78184607F17F
:103180000802FB6D134419781C4A262303FB00F345
:103190001A44FB6D134407330A461A70FB6D013362
:1031A000FB65FB6D1F2BE7DD0023BB6513E0124BB6
:1031B0001B781846BA6BBB6D1344033319780F4A5A
:1031C000262303FB00F31A44BB6D13440A461A700E
:1031D000BB6D0133BB65BB6D052BE8DD064B1B7872
:1031E0000133DAB2044B1A7000BF00E000BF0123C4
:1031F00018468437BD46F0BD62020020C415002089
:1032000080B483B000AF0346FB80084BDB8CFA88A8
:103210009A4203D1054B93F8903000E00023184602
:103220000C37BD465DF8047B704700BF30010020BD
:1032300080B500AF00F082FF0346062B04D00021CA
:10324000012008F0CFF801E000F0B8FB00BF80BD1E
:1032500080B400AF00BFBD465DF8047B704780B40A
:1032600000AF00BFBD465DF8047B704780B582B0FB
:1032700000AF064B3B60064B7B603B46194605485A
:1032800006F004FC00BF0837BD4680BD28000320BF
:1032900009370008D1360008F0B591B006AF002319
:1032A000BB8006F076FA00F0ADF938623A6A062182
:1032B000002006F064F94EF66E53FB60FFF734FB16
:1032C0000346BB6007F108031A4606212E2006F0CC
:1032D00056F9494A1021182006F051F9474A1021A1
:1032E000082006F04CF91821012006F0B1F905F08C
:1032F0006FFE0023FB77FB7F43F00403FB77FB7F2C
:10330000002B1ED03E4BBB6107F11602F87F07F180
:103310001203019307F114030093134607220021BF
:1033200005F06AFCFC8ABD8AB869FCF729FF0346F0
:10333000DAB2BB690093134600222946204605F005
:103340006CFEF88A798A3B1D00930223002205F067
:1033500064FE2C4B03221A702A4B1B78184605F08A
:1033600059FB284B01225A70264B0022DA70254B5C
:1033700008225A75234B10229A75224B01221A7586
:10338000204B214A9A611F4B01229A70002387F833
:1033900027300BE097F827301A4A134497F8272074
:1033A0001A7197F82730013387F8273097F82730BC
:1033B0000F2BEFD9134B9D78124B5E78114B5B7D31
:1033C000104A927D0F49097D0E48806900240494BB
:1033D0000390029101920093002301223146284676
:1033E00005F062FB074B9B78002B01D005F08FFCAA
:1033F00000BF2C37BD46F0BDC0CD0008D0CD0008C1
:1034000060C800083001002007B2010080B582B01A
:1034100000AF124B93F89030062B1AD0002001F029
:1034200055F8012300224FF448714FF4487005F01D
:1034300092FC0346FB71FB79002B03D1084808F08E
:103440001DF906E0022001F041F8064808F016F9DF
:1034500000BF00BF0837BD4680BD00BF300100205F
:1034600068C8000898C8000880B58AB008AF1C4832
:1034700008F004F9002001F029F81A4B93F8903075
:10348000062B28D010230693102305934FF4FA73CC
:1034900004930023039350230293282301930023D2
:1034A0000093114B00224FF448714FF4487005F01F
:1034B000CAFC0346FB71FB79002B04D1094B0422A3
:1034C00083F8902007E0022001F000F8054B00226D
:1034D00083F8902000BF00BF0837BD4680BD00BF05
:1034E000C8C8000830010020B015002080B58AB09F
:1034F00008AF384B1B78303BFB71364B5B78303B69
:10350000BB71FB791A46920013445B00DAB2BB79B7
:1035100013447B71FB79092B0CD9BB79092B09D991
:103520002D4808F0ABF82D4B02222A490020FEF767
:1035300017FB4BE07A792A4B1B78013B9A4209DD55
:10354000284808F09BF8254B022222490020FEF76C
:1035500007FB3BE0244808F091F8002000F0B6FF9C
:10356000224B93F89030062B2FD07B79204AD35CE6
:103570001A4610230693102305934FF4FA7304930D
:1035800000230393502302932823019300230093E5
:10359000134600224FF448714FF4487005F053FC75
:1035A00003463B713B79002B07D1002000F0A8FFB8
:1035B0000E4B042283F8902007E0022000F086FFE3
:1035C0000A4B002283F8902000BF00BF0837BD4699
:1035D00080BD00BFB41B0020FCC800087129000892
:1035E0006802002030C90008C8C800083001002067
:1035F000C415002080B500AF012000F081FF00BF9E
:1036000080BD000080B586B000AFFFF78DF938614E
:103610003B69B3F1FF3F23D0FFF79EF9B860FFF796
:103620008FF978603B69DAB2164B1A703B691B0A56
:10363000DAB2144B5A703B691B0CDAB2114B9A7018
:103640007B68DAB20F4BDA70BB68DAB20D4B1A71D5
:10365000BB681B0ADAB20B4B5A710A4B7B610BE059
:10366000002006F005FCF860FB68002B02D0FB6828
:103670007B6101E0044B7B617B6918461837BD46CE
:1036800080BD00BF5C020020B8CD000880B582B0CC
:1036900000AF78600021202007F0A4FE00BF0837AB
:1036A000BD4680BD80B582B000AF7860012007F0D4
:1036B000FFFE00BF0837BD4680BD80B582B000AFB9
:1036C0007860012007F012FF00BF0837BD4680BDBB
:1036D00080B584B000AF78607B68FB60FB685B6896
:1036E0000833184607F0F8FA0346FB72FB7A002B02
:1036F00003D0FB6801221A7002E0FB6800221A70F6
:1037000000BF1037BD4680BD80B584B000AF034612
:10371000FB71FB79002B02D0012B06D00BE07F233D
:10372000FB60F86807F088FE05E07F23FB60F8681F
:1037300007F0A0FE00BF00BF1037BD4680BD0000EF
:1037400080B586B000AF78600B46FB70FB78023323
:103750007A6813441B789AB2FB78033379680B4478
:103760001B789BB21B029BB21343FB82FB78023B8C
:103770007A6813441B789AB2FB78013B79680B4452
:103780001B789BB21B029BB21343BB82FB780133B5
:103790007A6813441B789AB2FB78023379680B4439
:1037A0001B789BB21B029BB213437B82FB78043BCA
:1037B0007A6813441B789AB2FB78033B79680B4410
:1037C0001B789BB21B029BB213433B82FB78063BE8
:1037D0007A6813441B789AB2FB78053B79680B44EE
:1037E0001B789BB21B029BB21343FB81FB78083B07
:1037F0007A6813441B789AB2FB78073B79680B44CC
:103800001B789BB21B029BB21343BB81FB780A3B24
:103810007A6813441B789AB2FB78093B79680B44A9
:103820001B789BB21B029BB213437B81FB780C3B42
:103830007A6813441B789AB2FB780B3B79680B4487
:103840001B789BB21B029BB213433B811D4807F0C0
:1038500015FFFB8A19461C4807F010FF7B8A1946A2
:10386000194807F00BFF2D2007F020FFBB8A1946EF
:10387000154807F003FF2D2007F018FF3B8A194673
:10388000114807F0FBFE2D2007F010FFFB891946B9
:103890000D4807F0F3FE2D2007F008FFBB891946FD
:1038A000094807F0EBFE7B891946074807F0E6FE5A
:1038B0003B891946044807F0E1FE00BF1837BD46B2
:1038C00080BD00BF64C900086CC9000880B582B023
:1038D00000AF0023FB711A4A0021042007F062FDAB
:1038E000184A0021082007F05DFD174B00221A70CE
:1038F000154B0022DA80144B00225A70124B002222
:103900009A70114B0122DA700F4B00221A710023BA
:10391000FB7108E0FB790D4A1B01134400221A7069
:10392000FB790133FB71FB79002BF3D0084807F0DA
:10393000B9F9084807F0A2FE00BF0837BD4680BDB0
:1039400005420008C9410008D4010020C40100203C
:10395000CD39000870C9000880B584B000AF786028
:103960007B681B78002B02D0012B05D01EE07B6802
:103970005A88104BDA8019E00023FB730D4B0022AC
:10398000DA8005E0FB7B0C4A1B01134400221A700D
:10399000FB7B002B06D1FB7B074A1B0113441B78E2
:1039A000002BEFD1002000F0ABFD00BF00BF1037AF
:1039B000BD4680BDD4010020C401002080B500AF09
:1039C0000021082007F00EFD00BF80BD80B596B035
:1039D00000AF7860002387F848307B6801337B6450
:1039E0007B6C1B78FF2B00D064E37B6C02333B6461
:1039F0003B6C1B889BB2A3F604430C2B00F23A836A
:103A000001A252F823F000BF873E0008754000086D
:103A1000F73B000875400008754000087540000835
:103A20003D3A0008754000087540000875400008E0
:103A300075400008A33F00081F4000083B6C02339C
:103A40007B637B6B1A785B781B0213437B86C24BCC
:103A500000221A70002387F856302EE097F856306F
:103A6000BE4A1B01134402331B881846FFF7C8FBEC
:103A7000034687F8313097F85630B84A1B01134493
:103A80001B78062B14D197F83130002B10D197F802
:103A90005630B24A1B01134400221A7097F8563070
:103AA000AE4A1B01134402334FF6FF721A8010E036
:103AB00097F85630013387F8563097F85630002B78
:103AC00007D197F85630A54A1B0113441B78002BE9
:103AD000C4D197F85630002B40F0CE8297F856307C
:103AE0009E4A1B01134402337A8E1A807B6BDA786C
:103AF0007B6B9B78B2FBF3F387F830307B6B9B7862
:103B0000142B40F0B982102387F8573000233B650F
:103B10006BE0934807F0B2FD97F857307A6B134487
:103B20001B799AB297F85730796B0B440433013301
:103B30001B789BB21B029BB21343FB8597F857304F
:103B400001337A6B13441A79864B1A707B6B0433FA
:103B500097F8572011461846FFF7F2FD97F85730AF
:103B6000103B7A6B13441B7999B297F85730103B8E
:103B70007A6B1344043301331B789BB21B029AB255
:103B800097F856300A4391B2744A1B011344043328
:103B90000A461A8097F857300E3B7A6B13441B790C
:103BA00099B297F857300E3B7A6B134404330133C4
:103BB0001B789BB21B029AB297F856300A4391B217
:103BC000664A1B01134406330A461A8097F856309A
:103BD000624A1B01134408221A7097F857300633C3
:103BE00087F857303B6D01333B6597F830303A6DBD
:103BF0009A428EDB40E23B6C0233BB62002387F8C3
:103C00004E3004E097F84E30013387F84E3097F885
:103C10004E30002B0BD197F84E30504A1B01134405
:103C200002331A88BB6A1B889BB29A42EAD197F882
:103C30004E30002B40F02282112387F84F30BB6AB0
:103C40009B78152B40F01A82BB6ADB78013BDAB215
:103C5000BB6ADA7011E197F84F300133BA6A134446
:103C60001B799AB297F84F300133B96A0B44043389
:103C700001331B789BB21B029BB21343FB8497F862
:103C80004F300E3BBA6A13441B799AB297F84F3003
:103C90000E3BB96A0B44043301331B789BB21B0201
:103CA0009BB21343BB8497F84F300F3BBA6A13445F
:103CB0001B7987F8233097F84F30BA6A13441A7982
:103CC000284B1B789A4240F0CC8097F82330023B77
:103CD0001E2B00F2C08001A252F823F0693D0008BB
:103CE000573E00088B3D0008573E0008AD3D0008D8
:103CF000573E0008F13D0008573E0008CF3D000840
:103D0000573E0008573E0008573E0008573E00083F
:103D1000573E0008133E0008573E0008573E000873
:103D2000573E0008573E0008573E0008573E00081F
:103D3000573E0008573E0008573E0008573E00080F
:103D4000573E0008573E0008573E0008573E0008FF
:103D5000573E0008353E00086A020020C4010020DA
:103D600090C9000869020020BB6A043397F84F200D
:103D700011461846FFF7E4FCC34807F07FFC97F8AC
:103D80004E30013387F84E306CE0BB6A043397F84D
:103D90004F2011461846FFF7D3FCBC4807F06EFCD5
:103DA00097F84E30013387F84E305BE0BB6A04333E
:103DB00097F84F2011461846FFF7C2FCB44807F0A9
:103DC0005DFC97F84E30013387F84E304AE0BB6A0D
:103DD000043397F84F2011461846FFF7B1FCAD4861
:103DE00007F04CFC97F84E30013387F84E3039E03D
:103DF000BB6A043397F84F2011461846FFF7A0FC22
:103E0000A54807F03BFC97F84E30013387F84E3059
:103E100028E0BB6A043397F84F2011461846FFF795
:103E20008FFC9E4807F02AFC97F84E30013387F844
:103E30004E3017E0BB6A043397F84F2011461846FE
:103E4000FFF77EFC964807F019FC97F84E300133D7
:103E500087F84E3006E097F84E30013387F84E3041
:103E600000E000BFBB6ADB78153BDAB2BB6ADA70F0
:103E700097F84F30153387F84F30BB6ADB78002B4B
:103E80007FF4E9AEFAE03B6C0233FB61002387F874
:103E90004B3004E097F84B30013387F84B3097F8FC
:103EA0004B30002B0BD197F84B307E4A1B0113444B
:103EB00002331A88FB691B889BB29A42EAD197F8B1
:103EC0004B30002B40F0DC80FB69DB789B08FB76F5
:103ED000002387F84D30FB699B78012B40F0D080A0
:103EE000002387F84C3056E097F84D30FA691344B8
:103EF0001B799AB297F84D30F9690B4404330133BA
:103F00001B789BB21B029BB213433B8397F84D3047
:103F10000233FA6913441B799AB297F84D30023391
:103F2000F9690B44043301331B789BB21B029BB22B
:103F30001343FB82FB8A42F60212934221D197F887
:103F40004B30584A1B01134402331B88194656480C
:103F500007F094FB97F84B30524A1B0113441B782F
:103F60000A2B0ED197F84B304E4A1B0113440E33E7
:103F70003A8B1A8097F84B304A4A1B0113440B22A4
:103F80001A7097F84D30043387F84D3097F84C305D
:103F9000013387F84C3097F84C20FB7E9A42A3D32C
:103FA0006EE03B6C0233BB63002387F84A3004E0C9
:103FB00097F84A30013387F84A3097F84A30002B97
:103FC0000BD197F84A30374A1B01134402331A8841
:103FD000BB6B1B889BB29A42EAD197F84A30002B00
:103FE00050D1BB6B5B889AB297F84A302D491B01C0
:103FF0000B440C331B889A4244D1BB6B1B79022BB8
:1040000040D102233B72BB6B1B793B74BB6B053306
:10401000FB6007F10803184600F052F832E03B6CF1
:104020000233FB63214807F029FB0A2007F03EFB1F
:10403000002387F8493004E097F84930013387F8C6
:10404000493097F84930002B0BD197F84930154A81
:104050001B01134402331A88FB6B1B889BB29A42E4
:10406000EAD197F84930002B22D10021042007F033
:10407000B9F91DE000BF1CE000BF1AE000BF18E066
:1040800000BF16E000BF14E0A0C90008ACC90008DA
:10409000C8C90008ECC90008FCC9000808CA000823
:1040A00014CA0008C401002024CA00086CCA000811
:1040B00000BF00BF97F8483018465837BD4680BD4E
:1040C00080B582B000AF78607B681B78022B00D08F
:1040D00027E07B685B681A78144B5A70134B5B7847
:1040E000012B00D01CE07B685B685A780F4B9A70FC
:1040F0000E4B9B78002B09D1002000F001FA0C48F0
:1041000007F0BCFA0B4807F0B9FA08E00A4807F0D4
:10411000B5FA084807F0B2FA002000F0D7F900BF5E
:1041200000BF00BF0837BD4680BD00BFD4010020DE
:104130009CCA0008DCCA0008E0CA000880B400AFCE
:10414000034B1B781846BD465DF8047B704700BFE3
:10415000C401002080B584B000AF03463A60FB8004
:104160000B467B714223FB730023BB731BE0FB8870
:104170004FF64162934200D012E0BB7B114A1B0113
:10418000134402331888BB7B0E4A1B0113440833C7
:1041900019883B68022205F070F90346FB7300BFE3
:1041A000BB7B0133BB73BB7B002B06D1BB7B054ABA
:1041B0001B0113441B78002BD9D1FB7B1846103709
:1041C000BD4680BDC401002080B500AF0A4807F09D
:1041D00055FA0A4B1B79002B03D1084B01221A71A7
:1041E00002E0064B00221A71054A00214FF6416099
:1041F000FFF7B0FF00BF80BD20CB0008D401002036
:10420000D701002080B582B000AF0123BB8000231E
:104210007B8040F201133B800023FB71ACE0FB7913
:104220005D4A1B0113441B78073B052B00F29E805F
:1042300001A252F823F000BF514200085942000881
:10424000A1420008C9420008FF42000839430008A3
:10425000524807F013FA8CE0514B1B780133DAB265
:104260004F4B1A704E4B1B78012B00F281804D484A
:1042700007F004FAFB79484A1B01134402331888FB
:10428000FB79454A1B01134404331988FB79424AE0
:104290001B01134406331B881A4604F093FF67E0A2
:1042A000414807F073FAFB793B4A1B011344023380
:1042B0001888FB79384A1B0113440E3319883B4692
:1042C000022205F055F854E0384807F05FFAFB7910
:1042D000314A1B01134402331888FB792E4A1B0113
:1042E00013440C331988FB792B4A1B0113440C33FC
:1042F0001B8802339BB21A4604F0CFFF39E02C48EA
:1043000007F044FAFB79244A1B011344023318884E
:10431000FB79214A1B0113440E3319883B1D0222ED
:1043200005F026F8FB791C4A1B01134406221A707B
:10433000022000F0E5F81CE01E4807F027FAFB79A0
:10434000154A1B01134402331888FB79124A1B01DA
:1043500013440E331988BB1C022205F009F8FB79BF
:104360000D4A1B01134406221A7002E000BF00E050
:1043700000BFFB790133FB71FB79002B08D1FB797E
:10438000054A1B0113441B78002B7FF448AF00BF84
:1043900000BF0837BD4680BDC401002064CB0008C3
:1043A0006A0200207CCB0008A4CB0008E0CB000808
:1043B00020CC000844CC0008D458C4500433C4189E
:1043C0008C42F9D37047036004308842FBD37047B6
:1043D0000C4885460C480D490D4A0023FFF7EFFFB6
:1043E0000C480D490023FFF7F0FF0C480C4900234F
:1043F000FFF7EBFF00F010F907F008F9FDF7E8FD13
:10440000FEE70000000003200400002094000020CC
:1044100064CF00082C020020B0210020E00103201E
:10442000570A0320FEE780B485B000AF78604FF0F4
:10443000B043DA6C4FF0B0417B681343CB644FF06C
:10444000B043DA6C7B681340FB60FB6800BF143735
:10445000BD465DF8047B704780B588B000AF034669
:10446000FB7107F10C0300221A605A609A60DA604F
:104470001A610220FFF7D7FFFB79124A32F8133096
:10448000FB6001233B6100237B610223BB61FB795D
:104490000D4A52F8233007F10C021146184600F07D
:1044A0001DFFFB79084A52F82300FB79054A32F8D0
:1044B00013300022194601F081F800BF2037BD46B5
:1044C00080BD00BFE0CD00080400002080B582B0B0
:1044D00000AF0346FB71FB79074A52F82300FB79D2
:1044E000064A32F813300122194601F067F800BF7E
:1044F0000837BD4680BD00BF04000020E0CD0008A5
:1045000080B582B000AF0346FB71FB79074A52F8D1
:104510002300FB79064A32F813300022194601F0D5
:104520004DF800BF0837BD4680BD00BF0400002025
:10453000E0CD000880B588B000AF03460A46FB71A5
:104540001346BB7107F10C0300221A605A609A608F
:10455000DA601A61FB79002B03D10420FFF763FFB7
:104560000CE0FB79012B03D10820FFF75CFF05E08D
:10457000FB79022B02D10820FFF755FFBB79002BF6
:1045800017D1FB79204A32F81330FB6000233B61DE
:1045900001237B610223BB61FB791C4A52F8233063
:1045A00007F10C021146184600F098FE0120FDF7B5
:1045B000CAFEBB79012B22D1FB79134A32F81330A2
:1045C000FB6001237B61124B3B61FB790F4A52F880
:1045D000233007F10C021146184600F07FFEFB79EC
:1045E0000C4AD35C5BB200220F21184600F003FB9B
:1045F000FB79084AD35C5BB2184600F016FB00BF9B
:104600002037BD4680BD00BFE8CD00081000002067
:1046100000002110F0CD000880B400AF264B00222E
:104620009A60254BD3F88830234A43F47003C2F8CC
:1046300088304FF0B0431B684FF0B04243F00103A5
:1046400013604FF0B0434FF4E0229A604FF0B04354
:104650001A684FF0B041194B13400B604FF0B04354
:10466000D3F894304FF0B04223F00503C2F89430F1
:104670004FF0B043D3F898304FF0B04223F001032D
:10468000C2F898304FF0B0430D4ADA604FF0B043B3
:104690000B4A1A614FF0B0431B684FF0B04223F44D
:1046A000802313604FF0B04300229A6100BFBD46E3
:1046B0005DF8047B704700BF00ED00E0FBFEF6FAFA
:1046C0000010042280B487B000AF4FF0B0431B68E5
:1046D0001B0903F00F03474A52F823303B614FF0A8
:1046E000B0439B6803F00C030C2B67D801A252F86F
:1046F00023F000BF29470008BD470008BD47000858
:10470000BD47000831470008BD470008BD47000805
:10471000BD47000839470008BD470008BD470008ED
:10472000BD47000841470008334A3B69136049E030
:10473000314B324A1A6045E02F4B314A1A6041E052
:104740004FF0B043DB6803F00303FB604FF0B0436E
:10475000DB681B0903F007030133BB60FB68022B16
:1047600005D1264ABB68B2FBF3F37B610DE0FB6821
:10477000032B05D1224ABB68B2FBF3F37B6104E053
:104780003A69BB68B2FBF3F37B614FF0B043DB687F
:104790001B0A03F07F027B6902FB03F37B614FF08E
:1047A000B043DB685B0F03F0070301337B607A697A
:1047B0007B68B2FBF3F3104A136003E00E4A3B69D7
:1047C000136000BF4FF0B0439B681B0903F00F0359
:1047D0000C4A52F823303B60074B1A683B68B2FB27
:1047E000F3F3054A136000BF1C37BD465DF8047B38
:1047F000704700BF54CE00081C0000200024F400C5
:104800000048E801F4CD000880B400AF054B5B68B8
:10481000044A43F00103536000BFBD465DF8047BCA
:10482000704700BF002004E080B400AF054B5B6818
:10483000044A43F00203536000BFBD465DF8047BA9
:10484000704700BF002004E080B582B000AF0023B5
:10485000FB710C4B1B680B4A43F4807313600320FD
:1048600000F0BEF9002000F00FF80346002B02D044
:104870000123FB7101E0FDF735FEFB79184608378F
:10488000BD4680BD0040005880B584B000AF786060
:104890000023FB73174B1B78002B24D001F0CEFFB5
:1048A0000246144B1B7819464FF47A73B3FBF1F3AD
:1048B000B2FBF3F3184600F0D4F90346002B0FD1F6
:1048C0007B680F2B09D8002279684FF0FF3000F089
:1048D00092F9094A7B68136007E00123FB7304E047
:1048E0000123FB7301E00123FB73FB7B18461037A8
:1048F000BD4680BD240000202000002080B400AF11
:10490000064B1B781A46064B1B681344044A136077
:1049100000BFBD465DF8047B704700BF2400002047
:10492000A821002080B400AF034B1B681846BD4689
:104930005DF8047B704700BFA821002080B400AF61
:10494000034B1B681846BD465DF8047B704700BFEB
:104950002000002080B400AF034B1B781846BD46F2
:104960005DF8047B704700BF2400002080B500AFD5
:10497000FFF74AFF00BF80BD80B500AFFFF754FFCF
:1049800000BF80BD80B485B000AF78607B6803F065
:104990000703FB600C4BDB68BB60BA684FF6FF0394
:1049A0001340BB60FB681A02BB68134343F0BF634C
:1049B00043F40033BB60044ABB68D36000BF1437C4
:1049C000BD465DF8047B704700ED00E080B400AFA9
:1049D000044BDB681B0A03F007031846BD465DF86D
:1049E000047B704700ED00E080B483B000AF034665
:1049F000FB7197F90730002B0BDBFB7903F01F02EB
:104A0000074997F907305B09012000FA02F241F8E3
:104A1000232000BF0C37BD465DF8047B704700BF04
:104A200000E100E080B483B000AF0346FB7197F96A
:104A30000730002B10DBFB7903F01F02094997F9BF
:104A400007305B09012000FA02F2203341F82320ED
:104A5000BFF34F8FBFF36F8F00BF0C37BD465DF8BC
:104A6000047B704700E100E080B483B000AF0346F0
:104A7000FB7197F90730002B0CDBFB7903F01F0269
:104A8000074997F907305B09012000FA02F2403329
:104A900041F8232000BF0C37BD465DF8047B70470A
:104AA00000E100E080B483B000AF0346FB7197F9EA
:104AB0000730002B0CDBFB7903F01F02074997F945
:104AC00007305B09012000FA02F2603341F823202D
:104AD00000BF0C37BD465DF8047B704700E100E085
:104AE00080B483B000AF03463960FB7197F907309B
:104AF000002B0ADB3B68DAB20C4997F90730120148
:104B0000D2B20B4483F800230AE03B68DAB20849CA
:104B1000FB7903F00F03043B1201D2B20B441A7667
:104B200000BF0C37BD465DF8047B704700E100E034
:104B300000ED00E080B489B000AFF860B9607A6041
:104B4000FB6803F00703FB61FB69C3F10703042B58
:104B500028BF0423BB61FB690433062B02D9FB6920
:104B6000033B00E000237B614FF0FF32BB6902FA98
:104B700003F3DA43BB681A407B699A404FF0FF3178
:104B80007B6901FA03F3D9437B680B401343184652
:104B90002437BD465DF8047B7047000080B582B0C5
:104BA00000AF78607B68013BB3F1807F01D30123C4
:104BB0000FE00A4A7B68013B53600F214FF0FF3042
:104BC000FFF78EFF054B00229A60044B07221A6004
:104BD000002318460837BD4680BD00BF10E000E046
:104BE00080B582B000AF78607868FFF7CBFE00BF79
:104BF0000837BD4680BD80B586B000AF0346B960BA
:104C00007A60FB73FFF7E2FE78617A68B9687869C9
:104C1000FFF790FF024697F90F3011461846FFF74D
:104C20005FFF00BF1837BD4680BD80B582B000AFC2
:104C30000346FB7197F907301846FFF7D5FE00BF12
:104C40000837BD4680BD80B582B000AF0346FB711A
:104C500097F907301846FFF7E5FE00BF0837BD4655
:104C600080BD80B582B000AF78607868FFF796FFAE
:104C7000034618460837BD4680BD80B582B000AFF8
:104C80000346FB7197F907301846FFF7EDFE00BFAA
:104C90000837BD4680BD80B582B000AF0346FB71CA
:104CA00097F907301846FFF7FDFE00BF0837BD46ED
:104CB00080BD000080B584B000AF78607B68002BB9
:104CC00001D101238EE07B681B681A46474B9A424C
:104CD0000FD87B681B681A46454B1344454AA2FB14
:104CE00003231B099A007B685A647B68424A1A6452
:104CF0000EE07B681B681A46404B13443D4AA2FBFA
:104D000003231B099A007B685A647B683C4A1A6437
:104D10007B68022283F825207B681B681B68FB6088
:104D2000FB6823F4FF4323F07003FB607B689A6801
:104D30007B68DB681A437B681B691A437B685B6985
:104D40001A437B689B691A437B68DB691A437B685B
:104D50001B6A1343FA681343FB607B681B68FA689D
:104D60001A60786800F016FA7B689B68B3F5804F8C
:104D700002D17B6800225A607B685A687B689B6C12
:104D800002F03F021A607B68DB6C7A68126D5A6031
:104D90007B685B68002B10D07B685B68042B0CD8A9
:104DA000786800F035FA7B685B6D00221A607B68DA
:104DB0009B6D7A68D26D5A6008E07B6800225A6564
:104DC0007B6800229A657B680022DA657B68002296
:104DD000DA637B68012283F825207B68002283F850
:104DE0002420002318461037BD4680BD070402402A
:104DF000F8FFFDBFCDCCCCCC00000240F8FBFDBFDE
:104E00000004024080B586B000AFF860B9607A60F7
:104E10003B600023FB75FB6893F82430012B01D124
:104E2000022366E0FB68012283F82420FB6893F8E4
:104E30002530DBB2012B55D1FB68022283F82520F7
:104E4000FB680022DA63FB681B681A68FB681B6852
:104E500022F001021A603B687A68B968F86800F0CD
:104E60005AF9FB681B6B002B08D0FB681B681A689B
:104E7000FB681B6842F00E021A600FE0FB681B68BB
:104E80001A68FB681B6822F004021A60FB681B6842
:104E90001A68FB681B6842F00A021A60FB689B6C88
:104EA0001B6803F48033002B07D0FB689B6C1A68E7
:104EB000FB689B6C42F480721A60FB685B6D002B90
:104EC00007D0FB685B6D1A68FB685B6D42F480720B
:104ED0001A60FB681B681A68FB681B6842F00102D5
:104EE0001A6005E0FB68002283F824200223FB758A
:104EF000FB7D18461837BD4680BD80B584B000AF35
:104F000078600023FB737B6893F82530DBB2022BBB
:104F100005D07B680422DA630123FB7347E07B68DA
:104F20001B681A687B681B6822F00E021A607B6897
:104F30001B681A687B681B6822F001021A607B6894
:104F40009B6C1A687B689B6C22F480721A607B6889
:104F50005B6C03F01C027B681B6C012101FA02F2FE
:104F60005A607B68DB6C7A68126D5A607B685B6D97
:104F7000002B0CD07B685B6D1A687B685B6D22F43C
:104F800080721A607B689B6D7A68D26D5A607B680C
:104F9000012283F825207B68002283F824207B6887
:104FA0009B6B002B03D07B689B6B78689847FB7BDF
:104FB00018461037BD4680BD80B584B000AF78601C
:104FC0007B681B6C1B68FB607B681B681B68BB6095
:104FD0007B685B6C03F01C0304229A40FB6813405F
:104FE000002B26D0BB6803F00403002B21D07B6884
:104FF0001B681B6803F02003002B07D17B681B682C
:105000001A687B681B6822F004021A607B685B6C7C
:1050100003F01C027B681B6C042101FA02F25A6047
:105020007B681B6B002B71D07B681B6B7868984783
:105030006CE07B685B6C03F01C0302229A40FB6807
:105040001340002B2ED0BB6803F00203002B29D0A5
:105050007B681B681B6803F02003002B0BD17B6867
:105060001B681A687B681B6822F00A021A607B685A
:10507000012283F825207B685B6C03F01C027B68AF
:105080001B6C022101FA02F25A607B68002283F84D
:1050900024207B68DB6A002B38D07B68DB6A786869
:1050A000984733E07B685B6C03F01C0308229A404E
:1050B000FB681340002B2AD0BB6803F00803002BC9
:1050C00025D07B681B681A687B681B6822F00E027B
:1050D0001A607B685B6C03F01C027B681B6C01210F
:1050E00001FA02F25A607B680122DA637B680122CE
:1050F00083F825207B68002283F824207B685B6B83
:10510000002B04D07B685B6B7868984700BF00BFBA
:105110001037BD4680BD80B485B000AFF860B9607F
:105120007A603B60FB68DB6CFA68126D5A60FB6862
:105130005B6D002B04D0FB689B6DFA68D26D5A60E2
:10514000FB685B6C03F01C02FB681B6C012101FA1D
:1051500002F25A60FB681B683A685A60FB689B68F9
:10516000102B08D1FB681B687A689A60FB681B6883
:10517000BA68DA6007E0FB681B68BA689A60FB6887
:105180001B687A68DA6000BF1437BD465DF8047B9F
:105190007047000080B485B000AF78607B681B6802
:1051A0001A46174B9A420AD87B685B6C9B089B0097
:1051B00003F1804303F502337A68936407E07B6868
:1051C0005B6C9B089A000F4B13447A6893647B686E
:1051D0001B68DBB2083B0C4AA2FB03231B09FB60E4
:1051E0007B680A4ADA64FB6803F01F0301229A40D5
:1051F0007B681A6500BF1437BD465DF8047B7047B5
:10520000070402401C080240CDCCCCCC80080240F0
:1052100080B485B000AF78607B685B6803F03F03C3
:10522000FB60FA680B4B13449B001A467B685A6577
:105230007B68094A9A65FB68013B03F0030301227E
:105240009A407B68DA6500BF1437BD465DF8047B81
:10525000704700BF3F8200104009024080B483B015
:1052600000AF786039607B6893F82530DBB2012BA2
:105270002BD17B6893F82430012B01D1022325E048
:105280007B68012283F824207B689B6C1A68124B90
:1052900013403A6811683A68D268013AD20411435F
:1052A0003A68526811433A68127A120411433A6814
:1052B000527A520211437A68926C0B4313607B68F6
:1052C000002283F82420002300E0012318460C3735
:1052D000BD465DF8047B7047FFFD00E080B487B0F9
:1052E00000AF7860396000237B614CE13B681A684D
:1052F00001217B6901FA03F31340FB60FB68002B7B
:1053000000F03E813B685B68012B0BD03B685B681B
:10531000022B07D03B685B68112B03D03B685B68AE
:10532000122B30D17B689B683B617B695B00032259
:1053300002FA03F3DB433A6913403B613B68DA68E6
:105340007B695B0002FA03F33A6913433B617B68B4
:105350003A699A607B685B683B6101227B6902FA6B
:1053600003F3DB433A6913403B613B685B681B090D
:1053700003F001027B6902FA03F33A6913433B61CC
:105380007B683A695A607B68DB683B617B695B00DC
:10539000032202FA03F3DB433A6913403B613B68A3
:1053A0009A687B695B0002FA03F33A6913433B6135
:1053B0007B683A69DA603B685B68022B03D03B6824
:1053C0005B68122B23D17B69DA087B68083253F8BB
:1053D00022303B617B6903F007039B000F2202FA36
:1053E00003F3DB433A6913403B613B681A697B690D
:1053F00003F007039B0002FA03F33A6913433B618E
:105400007B69DA087B680832396943F822107B68C7
:105410001B683B617B695B00032202FA03F3DB43F9
:105420003A6913403B613B685B6803F003027B69A8
:105430005B0002FA03F33A6913433B617B683A6904
:105440001A603B685B6803F08053002B00F0988083
:10545000544A7B699B08023352F823303B617B69D5
:1054600003F003039B000F2202FA03F3DB433A69C4
:1054700013403B617B68B3F1904F19D07B684A4A77
:10548000934213D07B68494A93420DD07B68484AC7
:10549000934207D07B68474A934201D1042308E036
:1054A000072306E0032304E0022302E0012300E0D7
:1054B00000237A6902F00302920093403A69134391
:1054C0003B6138497B699B0802333A6941F82320E4
:1054D000394BD3F880303B61FB68DB433A691340BA
:1054E0003B613B685B6803F48033002B03D03A696F
:1054F000FB6813433B61304A3B69C2F880302E4B56
:10550000D3F884303B61FB68DB433A6913403B616D
:105510003B685B6803F40033002B03D03A69FB68F7
:1055200013433B61244A3B69C2F88430224B1B6819
:105530003B61FB68DB433A6913403B613B685B6856
:1055400003F48013002B03D03A69FB6813433B61DB
:10555000194A3B691360184B5B683B61FB68DB438E
:105560003A6913403B613B685B6803F40013002B0E
:1055700003D03A69FB6813433B610F4A3B695360B0
:105580007B6901337B613B681A687B6922FA03F30C
:10559000002B7FF4ABAE00BF1C37BD465DF8047B2B
:1055A000704700BF000001400004004800080048A8
:1055B000000C0048001000480008005880B483B078
:1055C00000AF78600B467B8013467B707B78002BA6
:1055D00003D07A887B689A6102E07A887B689A6255
:1055E00000BF0C37BD465DF8047B704780B582B0C4
:1055F00000AF0346FB80084BDA68FB881340002BA2
:1056000006D0054AFB88D360FB881846FBF7B5F93E
:1056100000BF0837BD4680BD0008005880B582B085
:1056200000AF0A4BDB687B60084B1A687B68DB4382
:10563000064913400B60054A7B685360786800F0A8
:1056400007F800BF0837BD4680BD00BF00150058F1
:1056500080B483B000AF786000BF0C37BD465DF802
:10566000047B704780B400AF054B1B68044A43F4C9
:105670008073136000BFBD465DF8047B704700BFB8
:105680000004005880B400AF044B1B6803F4C063EF
:105690001846BD465DF8047B704700BF0004005803
:1056A00080B400AF4FF0B0431B6803F48013B3F530
:1056B000801F01D1012300E000231846BD465DF89C
:1056C000047B704780B400AF4FF0B0431B684FF0CD
:1056D000B04243F48023136000BFBD465DF8047BF5
:1056E000704780B400AF4FF0B0431B684FF0B0423A
:1056F00023F48023136000BFBD465DF8047B704730
:1057000080B400AF4FF0B0431B684FF0B04243F499
:105710008033136000BFBD465DF8047B704780B4E2
:1057200000AF4FF0B0431B684FF0B04223F480331A
:10573000136000BFBD465DF8047B704780B400AFC6
:105740004FF0B0431B6803F40033B3F5003F01D1C1
:10575000012300E000231846BD465DF8047B704736
:1057600080B400AF4FF0B0431B684FF0B04243F439
:105770008073136000BFBD465DF8047B704780B442
:1057800000AF4FF0B0431B684FF0B04223F480737A
:10579000136000BFBD465DF8047B704780B400AF66
:1057A0004FF0B0431B6803F48063B3F5806F01D101
:1057B000012300E000231846BD465DF8047B7047D6
:1057C00080B483B000AF78604FF0B0435B6823F0E3
:1057D000FE427B681B064FF0B04113434B6000BF95
:1057E0000C37BD465DF8047B704780B400AF4FF0C6
:1057F000B043D3F898304FF0B04243F00103C2F801
:10580000983000BFBD465DF8047B704780B400AFA0
:105810004FF0B043D3F898304FF0B04223F001037B
:10582000C2F8983000BFBD465DF8047B704780B475
:1058300000AF4FF0B043D3F8983003F00203022BCF
:1058400001D1012300E000231846BD465DF8047B2A
:10585000704780B400AF4FF0B043D3F890304FF0B2
:10586000B04243F00103C2F8903000BFBD465DF87E
:10587000047B704780B400AF4FF0B043D3F8903052
:105880004FF0B04223F00103C2F8903000BFBD4694
:105890005DF8047B704780B400AF4FF0B043D3F89D
:1058A00090304FF0B04243F00403C2F8903000BF94
:1058B000BD465DF8047B704780B400AF4FF0B04345
:1058C000D3F890304FF0B04223F00403C2F8903088
:1058D00000BFBD465DF8047B704780B400AF4FF059
:1058E000B043D3F8903003F00203022B01D101231F
:1058F00000E000231846BD465DF8047B704780B485
:1059000000AF4FF0B043D3F894304FF0B04243F0C3
:105910000103C2F8943000BFBD465DF8047B7047B8
:1059200080B400AF4FF0B043D3F894304FF0B042A2
:1059300023F00103C2F8943000BFBD465DF8047B3C
:10594000704780B400AF4FF0B043D3F8943003F009
:105950000203022B01D1012300E000231846BD46BB
:105960005DF8047B704780B400AF4FF0B043D3F8CC
:1059700094304FF0B04243F00403C2F8943000BFBB
:10598000BD465DF8047B704780B400AF4FF0B04374
:10599000D3F894304FF0B04223F00403C2F89430AF
:1059A00000BFBD465DF8047B704780B400AF4FF088
:1059B000B043D3F8943003F00803082B01D101233E
:1059C00000E000231846BD465DF8047B704780B4B4
:1059D00083B000AF78604FF0B043D3F8943023F435
:1059E00070627B681B024FF0B0411343C1F89430E2
:1059F00000BF0C37BD465DF8047B704780B400AF34
:105A00004FF0B0431B684FF0B04243F00103136006
:105A100000BFBD465DF8047B704780B400AF4FF017
:105A2000B0431B684FF0B04223F00103136000BF86
:105A3000BD465DF8047B704780B400AF4FF0B043C3
:105A40001B6803F00203022B01D1012300E00023B5
:105A50001846BD465DF8047B704780B483B000AF44
:105A600078604FF0B0431B6823F0F0024FF0B04174
:105A70007B6813430B6000BF0C37BD465DF8047BA9
:105A8000704780B483B000AF4FF0B0431B6803F0A1
:105A9000F0037B607B68B02B01D9B0237B607B680F
:105AA00018460C37BD465DF8047B704780B483B060
:105AB00000AF78604FF0B0435B6823F47F427B68AF
:105AC0001B024FF0B04113434B6000BF0C37BD4683
:105AD0005DF8047B704780B483B000AF78604FF00E
