:020000040800F2
:1000000000000320A1440008312700083F27000812
:10001000452700084B270008512700080000000072
:10002000000000000000000000000000572700084A
:1000300065270008000000007327000881270008DA
:10004000F5440008F5440008F5440008F7270008C7
:10005000F5440008F5440008F5440008F54400089C
:10006000F5440008F5440008E9270008F5440008B5
:10007000F5440008F54400088D270008F544000801
:10008000F5440008F5440008F5440008F54400086C
:10009000F5440008F5440008F5440008F54400085C
:1000A000F5440008F5440008F5440008F54400084C
:1000B000F5440008F5440008F5440008F54400083C
:1000C000F5440008F5440008F5440008F54400082C
:1000D000A1270008B5270008F5440008F5440008EA
:1000E000F5440008F5440008F5440008F54400080C
:1000F0000F28000803280008C9270008F544000855
:10010000F5440008F5440008F5440008F5440008EB
:10011000F5440008F5440008F5440008F5440008DB
:10012000F5440008F5440008D5270008F544000808
:0C013000F5440008F5440008F544000800
:1001400010B5054C237833B9044B13B10448AFF311
:1001500000800123237010BD2C020020000000004D
:1001600024C7000808B5034B1BB103490348AFF38C
:10017000008008BD000000003002002024C70008F5
:10018000034613F8012B002AFBD1181A01387047D7
:1001900001F0FF01102A2BDB10F0070F08D010F838
:1001A000013B013A8B422DD010F0070F42B3F6D13C
:1001B000F0B441EA012141EA014122F007047FF055
:1001C00000070023F0E80256083C85EA010586EAAC
:1001D000010685FA47F5A3FA87F586FA47F6A5FAE8
:1001E00087F68EB9EED1F0BC01F0FF0102F00702F4
:1001F00032B110F8013B013A83EA010313B1F8D19F
:100200000020704701387047002D06BF354603387F
:10021000073815F0010F07D1013015F4807F02BFB8
:10022000013015F4C03F0130F0BC0138704700BF09
:1002300053B94AB9002908BF00281CBF4FF0FF314D
:100240004FF0FF3000F072B9ADF1080C6DE904CE4B
:1002500000F006F8DDF804E0DDE9022304B07047A1
:100260002DE9F047089E04468846002B4BD18A4270
:10027000154667D9B2FA82F24AB1C2F1200701FAF3
:1002800002F320FA07F7954047EA030894404FEA43
:10029000154E230CB8FBFEF71FFA85FC0EFB1788E2
:1002A00043EA084307FB0CF1994209D9EB1807F11F
:1002B000FF3080F01B81994240F21881023F2B44AD
:1002C0005B1AA4B2B3FBFEF00EFB103344EA034406
:1002D00000FB0CFCA44509D92C1900F1FF3380F078
:1002E0000781A44540F2048102382C4440EA0740CB
:1002F000A4EB0C0400271EB1D4400023C6E9004340
:100300003946BDE8F0878B4209D9002E00F0EB801A
:100310000027C6E9000138463946BDE8F087B3FA40
:1003200083F7002F47D18B4202D3824200F2FA803A
:10033000841A61EB030301209846002EE0D0C6E941
:100340000048DDE702B9FFDEB2FA82F2002A40F08F
:100350008F80491B4FEA154E1FFA85F80127B1FB24
:10036000FEFC230C0EFB1C1143EA014308FB0CF1BD
:10037000994207D9EB180CF1FF3002D2994200F2F2
:10038000CD808446591AA3B2B1FBFEF00EFB1014C7
:1003900043EA044408FB00F8A04507D92C1900F1F2
:1003A000FF3302D2A04500F2B6801846A4EB080441
:1003B00040EA0C409FE7C7F1200CBB4022FA0CFE3C
:1003C0004EEA030E01FA07F420FA0CF521FA0CF3B9
:1003D0004FEA1E482543B3FBF8F92C0C08FB1933F0
:1003E0001FFA8EFA44EA034309FB0AF49C4202FA1C
:1003F00007F200FA07F10BD91EEB030309F1FF30F6
:1004000080F087809C4240F28480A9F10209734405
:100410001B1BADB2B3FBF8F008FB103345EA0344F5
:1004200000FB0AFAA24508D91EEB040400F1FF33D1
:100430006BD2A24569D90238744440EA0940A0FB56
:100440000289A4EB0A044C45C2464B4654D351D012
:10045000002E69D0B1EB0A0564EB030404FA0CFC2E
:10046000FD40FC404CEA0505C6E90054002747E77B
:10047000C2F1200320FA03F7954001FA02F021FAB5
:1004800003F34FEA154E3843010CB3FBFEF71FFA96
:1004900085F80EFB173341EA034107FB08F38B4253
:1004A00004FA02F407D9691807F1FF3C2FD28B42F6
:1004B0002DD9023F2944CB1A81B2B3FBFEF00EFBCB
:1004C000103341EA034100FB08F38B4207D9691856
:1004D00000F1FF3C17D28B4215D902382944C91AC2
:1004E00040EA07473BE73746304609E70746E7E675
:1004F0001846FBE64145ABD2B8EB020A69EB0E02A7
:1005000001381346A4E76046E9E7184695E76746D1
:10051000D1E781467CE702382C4447E7ACF1020C76
:100520002B442FE7384608E73746E9E6704700BF17
:1005300080B483B000AF7860064BD3F890200549B3
:100540007B681343C1F8903000BF0C37BD465DF89F
:10055000047B70470008005880B485B000AF786015
:100560004FF0B043DA6C4FF0B0417B681343CB647B
:100570004FF0B043DA6C7B681340FB60FB6800BF50
:100580001437BD465DF8047B704780B485B000AF7A
:1005900078604FF0B043D3F84C214FF0B0417B6806
:1005A0001343C1F84C314FF0B043D3F84C217B6872
:1005B0001340FB60FB6800BF1437BD465DF8047B49
:1005C000704780B500AF04F039FA04F03DFA4FF4FB
:1005D0008030FFF7ADFF09F0A1FA00F021F800F03C
:1005E000BFF800BF80BD0000B0B588B000AF0B4BB6
:1005F0003C1D1D460FCD0FC495E8070003C42280A3
:100600000234130C23700AF039FE3B1D184609F022
:1006100030FD00BF2037BD46B0BD00BF3CC700085D
:1006200080B588B000AF3B1D00221A605A609A6006
:10063000DA601A610023BB8300237B8300233B83A2
:100640000023FB7733E0FB7F424ADB0013449B79B6
:10065000002B28D0FB7F3F4A52F833303E4A93426A
:100660000FD03E4A934215D0B3F1904F00D01BE01B
:10067000FB7F384ADB0013449A88BB8B1343BB8350
:1006800012E0FB7F334ADB0013449A887B8B1343D1
:100690007B8309E0FB7F2F4ADB0013449A883B8B66
:1006A00013433B8300E000BFFB7F0133FB77FB7FFD
:1006B000212BC8D90023FB600123BB6003233B61CE
:1006C000BB8B002B14D0BB8B7B600120FFF744FF5A
:1006D0000120FFF75AFF3B1D19464FF0904004F0F0
:1006E00065FEBB8B002219464FF0904004F0CEFF10
:1006F0007B8B002B12D07B8B7B600220FFF72CFFC3
:100700000220FFF742FF3B1D1946134804F04EFE3E
:100710007B8B00221946104804F0B8FF3B8B002B5E
:1007200013D03B8B7B600420FFF716FF0420FFF7FC
:100730002CFF3B1D1946094804F038FE3B8B002274
:100740001946064804F0A2FF00BF00BF2037BD468F
:1007500080BD00BF28CF0008000400480008004802
:1007600080B400AF00BFBD465DF8047B704780B524
:1007700000AF01F0CBFC00BF80BD80B584B000AFFE
:10078000F8600B467A607B817A897B68F968002083
:1007900001F00AFA00BF1037BD4680BD80B483B0B7
:1007A00000AF7860074BD3F8803023F0070205498B
:1007B0007B681343C1F8803000BF0C37BD465DF83D
:1007C000047B70470004005880B483B000AF7860A9
:1007D0004FF0B0439B6823F400424FF0B0417B6878
:1007E00013438B6000BF0C37BD465DF8047B704738
:1007F00080B500AF00F014F80849002000F03CFF7D
:10080000FFF7DFFE012101200AF080FD00F067F80C
:1008100000F075F800F012F800BF80BD241500202C
:1008200080B500AF4FF40040FFF7CEFF0AF05CFD4B
:100830000420FFF7B3FF00BF80BD000080B588B083
:1008400000AF0AF07FFB114A002180200AF06CFE05
:100850000F4B3B600F4B7B603B4619460E4809F03F
:100860001FFC0E4BBB600E4BFB600E4B3B6140F21E
:100870003C537B6107F1080318460AF075FC0AF047
:100880005BFB00BF2037BD4680BD00BFD9A000087C
:1008900024070320A9080008BF0800083C0903201A
:1008A00030080320E801032080B483B000AF034682
:1008B000FB7100BF0C37BD465DF8047B704780B507
:1008C00082B000AF7860FFF78FFE02F0CBF8002116
:1008D00001200AF01BFD00BF0837BD4680BD80B572
:1008E00000AF002003F020FE012003F01DFE0220D7
:1008F00003F01AFE012003F051FE00BF80BD80B559
:1009000000AF0121002003F07DFE00BF80BD80B458
:1009100000AF00BFBD465DF8047B704780B582B074
:1009200000AF786039604FF0FF300AF01DFD00BF66
:100930000837BD4680BD80B582B000AF7860002129
:1009400080200AF011FE00BF0837BD4680BD80B58B
:1009500082B000AF786002200AF06CFE00BF08375A
:10096000BD4680BD80B582B000AF786002200AF03D
:100970007FFE00BF0837BD4680BD80B582B000AFA6
:100980000346FB80FB88022B0AD0102B02D0012BE0
:1009900003D008E002F004FB05E002F011FB02E0E6
:1009A00002F015FB00BF00BF0837BD4680BD000048
:1009B00080B400AF054BDB68044A43F40043D360C6
:1009C00000BFBD465DF8047B704700BF00040058BF
:1009D00080B483B000AF7860064BD3F8D4200549CB
:1009E0007B681343C1F8D43000BF0C37BD465DF8B7
:1009F000047B70470008005880B483B000AF786073
:100A0000054B1A6A04497B6813430B6200BF0C371D
:100A1000BD465DF8047B70470008005880B485B07F
:100A200000AF78604FF0B0431A6D4FF0B0417B6873
:100A300013430B654FF0B0431A6D7B681340FB60A6
:100A4000FB6800BF1437BD465DF8047B704780B477
:100A500083B000AF78607B681B6843F480327B68AA
:100A60001A6000BF0C37BD465DF8047B704780B448
:100A700083B000AF78607B681B6843F001027B683D
:100A80001A6000BF0C37BD465DF8047B704780B428
:100A900083B000AF786039607B685A683B681B049C
:100AA000DB431A407B685A6000BF0C37BD465DF8D7
:100AB000047B704780B483B000AF786039607B6896
:100AC0005A683B681B041A437B685A6000BF0C37A6
:100AD000BD465DF8047B704780B483B000AF78609A
:100AE00039607B685A683B68DB431A407B685A6010
:100AF00000BF0C37BD465DF8047B704780B483B0FF
:100B000000AF786039607B683A689A6000BF0C3744
:100B1000BD465DF8047B704780B483B000AF786059
:100B200039603B681A047B689A6000BF0C37BD4689
:100B30005DF8047B704780B483B000AF78603960A3
:100B40007B68DA683B6813403A689A4201D1012316
:100B500000E0002318460C37BD465DF8047B704763
:100B600080B483B000AF786039607B68DA693B6835
:100B700013403A689A4201D1012300E0002318464D
:100B80000C37BD465DF8047B7047000080B500AFB0
:100B900002211948FFF7E4FF0346002B09D0164B4A
:100BA0005B68DB4303F00203002B02D000F0E6F8A1
:100BB0001FE001211048FFF7D3FF0346002B08D0A8
:100BC0000D4B5B6803F00103002B02D100F09AF893
:100BD0000FE008210848FFF7C3FF0346002B09D0A8
:100BE000054B5B68DB4303F00803002B02D000F0E9
:100BF00011F900BF00BF80BD000C005880B500AFE8
:100C000002212248FFF797FF0346002B09D11F4B13
:100C10005B68DB4303F40033002B02D000F0A2F842
:100C200031E002211948FFF786FF0346002B09D166
:100C3000164B5B68DB4303F40033002B02D000F05B
:100C400091F820E008211148FFF775FF0346002BBB
:100C500009D10E4B5B68DB4303F40023002B02D069
:100C600000F0BAF80FE020210848FFF764FF0346C0
:100C7000002B09D1054B5B68DB4303F40013002B09
:100C800002D000F04BF800BF00BF80BD000C005840
:100C900080B500AF4FF40070FFF79AFE4FF400707C
:100CA000FFF7AAFE40BF20BFFFF782FE00BF80BD56
:100CB00080B500AF4FF48010FFF7B0FE0648FFF795
:100CC000D6FE0548FFF7C3FE2C2004F016F82D20B1
:100CD00004F013F800BF80BD000C005880B500AFD1
:100CE00001210248FFF7F8FE00BF80BD000C00584C
:100CF00080B500AF01210248FFF70EFF00BF80BDA5
:100D0000000C005880B500AF0AF09EF9012102489E
:100D1000FFF7F4FE00BF80BD000C005880B500AFA7
:100D200020210348FFF7C6FE0AF0AAF900BF80BDE4
:100D3000000C005880B500AF02210248FFF7CCFE3E
:100D400000BF80BD000C005880B500AF02210448F0
:100D5000FFF7E2FE02210248FFF799FE00BF80BDC7
:100D6000000C005880B500AF02210348FFF7A2FE37
:100D70000AF0CEF900BF80BD000C005880B500AF6E
:100D80000AF0D6F902210248FFF7B8FE00BF80BD85
:100D9000000C005880B582B000AF786008210C4884
:100DA000FFF7C9FE0346002B07D00A4A7B68136091
:100DB00008210748FFF76BFE06E07B68984708218B
:100DC0000348FFF7A9FE00BF0837BD4680BD00BF3E
:100DD000000C00584802002080B500AF08210648EA
:100DE000FFF768FE054B1B68984708210248FFF78C
:100DF00093FE00BF80BD00BF000C005848020020D9
:100E000080B500AF08210248FFF766FE00BF80BD35
:100E1000000C005880B500AF0AF042FA08210248E1
:100E2000FFF76CFE00BF80BD000C005880B483B09B
:100E300000AF7860064BD3F8802005497B681343E8
:100E4000C1F8803000BF0C37BD465DF8047B7047A9
:100E50000008005880B483B000AF7860054B1A6872
:100E600004497B6813430B6000BF0C37BD465DF837
:100E7000047B70470008005880B483B000AF0D4B6E
:100E80009B6A9BB27B600B4B9B6A9BB23B6005E00D
:100E90003B687B60074B9B6A9BB23B607A683B6810
:100EA0009A42F5D13B6818460C37BD465DF8047B85
:100EB000704700BF0028004080B485B000AF0346F3
:100EC0000A46FB711346BB71BA791D4913465B0094
:100ED0001344DB000B4415331B78FB73FB7B062BA1
:100EE00009D0FA7B164913465B001344DB000B4420
:100EF0001433FA791A70FA79114913465B001344D6
:100F0000DB000B441533FA7B1A70FA790C4913464F
:100F10005B001344DB000B441433BA791A70BA79BE
:100F2000074913465B001344DB000B441533FA7981
:100F30001A7000BF1437BD465DF8047B704700BFD0
:100F40009400002080B485B000AF03460A46FB71D0
:100F50001346BB71294B1B78DBB2BA799A4232D067
:100F6000BA79274913465B001344DB000B44143362
:100F70001B78FB73FA7B224913465B001344DB00AA
:100F80000B441533FA791A70FA791D4913465B0040
:100F90001344DB000B441533BA791A70FA791849F7
:100FA00013465B001344DB000B441433FA7B1A70C6
:100FB000BA79134913465B001344DB000B44143326
:100FC000FA791A7014E0FA790D4913465B0013445C
:100FD000DB000B441533BA791A70BA790849134605
:100FE0005B001344DB000B441433FA791A7000BF22
:100FF0001437BD465DF8047B704700BF2401002014
:101000009400002080B584B000AF0346FB714E4BC6
:101010001B78DBB2062B18D14B4B1B78DAB24B4B4B
:101020001A70494AFB791370FA79494913465B00F3
:101030001344DB000B44153306221A70454B4FF066
:10104000FF321A600023FB8178E000F009F90346C3
:10105000FB81FA793E4913465B001344DB000B44E5
:1010600008331968FB89FA791944394813465B003B
:101070001344DB00034408331960FA7934491346FA
:101080005B001344DB000B4408331B68BB602E4B32
:101090001B78DBB219462E4A0B465B000B44DB0083
:1010A000134408331B68BA689A4237D3264B1B781F
:1010B0007B737A7B264913465B001344DB000B44A9
:1010C00015331B783B7313E07A7B214913465B0091
:1010D0001344DB000B4415331B787B737A7B1C496C
:1010E00013465B001344DB000B4415331B783B7342
:1010F0003B7B062B0BD03A7B154913465B00134410
:10110000DB000B4408331B68BA689A42DCD27A7B56
:10111000FB7911461846FFF7CFFE0FE00A4B1B780C
:10112000DAB2FB7911461846FFF70CFF064B1B7825
:10113000DAB2064B1A70044AFB791370FB89184621
:101140001037BD4680BD00BF2401002025010020CE
:10115000940000202801002080B485B000AF034631
:101160000A46FB711346BB71394B1B78DBB2FA7927
:101170009A4211D1364B1B78DAB2364B1A70FA7993
:10118000354913465B001344DB000B4415331B78D1
:10119000DAB22F4B1A703EE0FA792F4913465B0002
:1011A0001344DB000B4414331B78FB73FA792A4990
:1011B00013465B001344DB000B4415331B78BB73F1
:1011C000F979FA7B24480B465B000B44DB000344AF
:1011D00015331B78D8B2204913465B001344DB005B
:1011E0000B44153302461A70BB7B062B13D0F979DA
:1011F000BA7B19480B465B000B44DB0003441433F5
:101200001B78D8B2144913465B001344DB000B442F
:10121000143302461A70FA790F4913465B001344DF
:10122000DB000B440C3301221A70094B1B78DBB234
:10123000062B07D1BB79002B04D1084B4FF0FF32AE
:101240001A6000BF00BF1437BD465DF8047B7047CD
:101250002401002025010020940000202801002006
:1012600080B582B000AF1A4B1B68B3F1FF3F26D0A8
:10127000FFF702FE7860164B1B687A689A4205D821
:10128000134B1A687B68D31A7B600AE0114B1B88EA
:101290001A467B68D31A3B600D4B1B683A681344AF
:1012A0007B600D4B1B781A467B6802FB03F37B6067
:1012B0000A4B1B781A467B68D3407B6001E0002311
:1012C0007B607B689BB218460837BD4680BD00BF77
:1012D000280100205202002051020020500200206C
:1012E00080B582B000AF0346FB80FB88002B08D19D
:1012F000FFF7C2FD0246244B1A60032003F025FDD0
:101300003EE0FB88012B03D8204B1B78012B02D039
:10131000FB88013BFB8000BF1D4B1B681B68DB6823
:1013200003F00403002BF7D0194B1B681B68DB6824
:10133000DAB2174B1B681B6862F49062DA60154BD7
:101340004FF40022DA60032003F00DFD124B5B69BD
:101350001B0C1B04FA88104913434B61FFF78CFDEB
:101360000246094B1A600A4B1B681B689A68084BB7
:101370001B681B6842F480629A60AFF3008000BF74
:101380000837BD4680BD00BF280100205002002064
:101390004C020020000800580028004080B584B0AE
:1013A00000AF474B9B6803F48063B3F5806F08D1AF
:1013B00000BF444B1B681B68DB6803F00403002B71
:1013C000F7D1404B1B681B689A683E4B1B681B6833
:1013D00022F480629A603C4B1B78FB73FA7B3B499A
:1013E00013465B001344DB000B4408331B68BB60EF
:1013F000FFF736FF0346FB80FB88BA689A4205D2A6
:101400000023BB81324B01221A704DE0FB88314A28
:10141000128892B213441A46BB68934206D92D4BE8
:101420001B88BB812A4B00221A703DE0BB689AB230
:10143000FB88D31ABB81264B01221A7034E0FA7B59
:10144000224913465B001344DB000B4408331A683F
:10145000FB889A420AD2FA7B1C4913465B0013446C
:10146000DB000B44083300221A6013E0FA7B1749B3
:1014700013465B001344DB000B4408331968FB88F8
:10148000FA7BC91A114813465B001344DB0003447E
:1014900008331960FA7B0D4913465B001344DB00E7
:1014A0000B4415331B78FB73FB7B062BC7D1BB8921
:1014B0001846FFF715FF00BF1037BD4680BD00BFBF
:1014C000002800404C02002024010020940000204D
:1014D0002C0100205402002080B58AB000AFEFF349
:1014E00010837B617B697B6272B65E4B1B681B68F5
:1014F000CA225A625B4B1B681B6853225A62594BC3
:101500001B681B689A68574B1B681B6822F4806233
:101510009A60554B1B7887F8233097F8232053495E
:1015200013465B001344DB000B440C331B78DBB227
:10153000022B70D197F823204C4913465B001344CB
:10154000DB000B441B68FB6197F8232047491346D7
:101550005B001344DB000B4410331B68BB61444B3E
:101560001B78DBB2002B4ED097F823203F4913465F
:101570005B001344DB000B440D331B78DBB2012B03
:1015800025D197F8233001211846FFF7E5FD7B6A46
:101590003B613B6983F3108897F823203349134656
:1015A0005B001344DB000B4404331A6897F82330C4
:1015B0001146184600F040FA2A4B1B681B68CA22E5
:1015C0005A62284B1B681B6853225A6213E07B6ADD
:1015D000FB60FB6883F3108897F82330184600F00F
:1015E000A1F9204B1B681B68CA225A621D4B1B685D
:1015F0001B6853225A6297F82330FA691946B86972
:1016000000F0A0FA24E0FFF7C9FE7B6ABB60BB686C
:1016100083F310881CE000BF124B1B681B68DB685B
:1016200003F00403002BF7D00E4B1B681B68DB682C
:10163000DAB20C4B1B681B6862F49062DA600D4BE7
:101640004FF40022DA607B6A7B607B6883F310884A
:10165000044B1B681B68FF225A6200BF2837BD4637
:1016600080BD00BF4C020020240100209400002017
:101670002C0100200008005880B586B000AF03465A
:101680003960FB71614A3B681360604B1B681B68E3
:10169000CA225A625D4B1B681B6853225A625C4B1C
:1016A0009B685B4A43F020039360594B9B68DBB215
:1016B00003F00703DBB2C3F10403DAB2554B1A702F
:1016C000534B1B6903F4FE034FF4FE02FA60FA6801
:1016D00092FAA2F2BA60BA68B2FA82F2D2B2D340F7
:1016E000DBB20133DAB24C4B1A70494B1B699BB227
:1016F000C3F30E039BB201339AB2484B1A80474B97
:101700001B88013B444A127802FB03F3A3F5A07344
:10171000404A1278D3403B613B694FF6FE729342D8
:1017200004D93F4B4FF6FF721A8003E03B699AB22F
:101730003B4B1A804FF40020FFF78CFB4FF4002046
:10174000FFF774FBFB79002B43D1364B01221A7053
:10175000354B4FF0FF321A600023FB750CE0FA7D29
:10176000324913465B001344DB000B440C33002268
:101770001A70FB7D0133FB75FB7D052BEFD92C4BDC
:1017800006221A70214B1B681B689A681F4B1B6846
:101790001B6822F480629A601C4B1B681B68DB6824
:1017A000DAB21A4B1B681B6862F49062DA60214B54
:1017B0004FF40022DA60032003F0D5FA134B1B68C4
:1017C0001B689A68114B1B681B6842F480429A6040
:1017D0000AE00E4B1B681B68DB6803F48063002B78
:1017E00002D0032003F0B1FA084B1B681B68FF22EC
:1017F0005A6200220321032003F065FA032003F05C
:101800007CFA00BF1837BD4680BD00BF4C020020E7
:101810000028004050020020510200205202002007
:10182000540200202C0100202801002094000020F8
:10183000240100200008005880B48BB000AFF8608D
:10184000B9603B601346FB71002387F82630EFF345
:101850001083FB61FB693B6272B604E097F82630A7
:10186000013387F8263097F82630052B0CD897F8E7
:1018700026202B4913465B001344DB000B440C333A
:101880001B78DBB2002BE9D197F82630062B37D036
:1018900097F82620224913465B001344DB000B44D3
:1018A0000C3301221A703B6ABB61BB6983F3108859
:1018B00097F826201A4913465B001344DB000B44BB
:1018C0001033FA681A6097F82620154913465B0012
:1018D0001344DB000B440D33FA791A7097F8262075
:1018E0000F4913465B001344DB000B443A681A604F
:1018F000BB6897F826201A70002387F8273007E086
:101900003B6A7B617B6983F31088012387F827306A
:1019100097F8273018462C37BD465DF8047B704792
:101920009400002080B586B000AF0346FB71EFF352
:101930001083FB60FB687B6172B6032003F0EBF958
:10194000374B1B681B68CA225A62354B1B681B68E1
:1019500053225A62FA79334913465B001344DB0081
:101960000B440C331B78DBB2022B48D1FB790021EE
:101970001846FFF7F1FB2C4B1B78FB74FB7C062B06
:1019800035D12A4B9B6803F48063B3F5806F08D18F
:1019900000BF234B1B681B68DB6803F00403002BAC
:1019A000F7D11F4B1B681B689A681D4B1B681B688F
:1019B00022F480629A6000BF194B1B681B68DB68C9
:1019C00003F00403002BF7D0154B1B681B68DB6882
:1019D000DAB2134B1B681B6862F49062DA60144B36
:1019E0004FF40022DA60032003F0BDF907E0114B49
:1019F0001B78DBB2FA7C9A4201D0FFF7CFFC084B90
:101A00001B681B68FF225A62032003F076F97B698A
:101A1000BB60BB6883F3108800BF1837BD4680BD2C
:101A20004C020020940000202401002000280040E7
:101A3000000800582501002080B586B000AF03469D
:101A40003960FB71FA793B4913465B001344DB00B4
:101A50000B440C331B78DBB2022B03D1FB79184605
:101A6000FFF760FFEFF31083FB60FB687B6172B6EA
:101A7000032003F050F9304B1B681B68CA225A62DE
:101A80002D4B1B681B6853225A62FA792949134669
:101A90005B001344DB000B440C3302221A70FA790A
:101AA000244913465B001344DB000B4408333A68B7
:101AB0001A60FA791F4913465B001344DB000B449C
:101AC00004333A681A60FB791846FFF79BFA03461D
:101AD0007B821A4B1B787B74194B1B78DBB27A7CA8
:101AE0009A4202D0FFF75AFC13E0FA7911491346E3
:101AF0005B001344DB000B44083319687B8AFA79D6
:101B0000C91A0C4813465B001344DB000344083336
:101B10001960094B1B681B68FF225A62032003F0FF
:101B2000ECF87B69BB60BB6883F3108800BF183793
:101B3000BD4680BD940000204C02002024010020FE
:101B40002501002080B584B000AFF8600B467A60B4
:101B5000FB727B68984700BF1037BD4680BD000010
:101B600080B584B000AFB9607B600346FB73134659
:101B7000BB81FB7B002B00D00CE0084A7B68136024
:101B8000074B084A1A60BB891A46B968044805F031
:101B90006DFD00BF00BF1037BD4680BDA4130020FF
:101BA000981400200038014080B586B000AFB960BD
:101BB0007B600346FB731346BB810023FB75002348
:101BC000BB75FB7B002B00D00EE0174A7B681360CF
:101BD000164B174A1A60BB891A46B968134805F0B4
:101BE0001DFE0346FB7500BFFB7D032B16D801A22B
:101BF00052F823F0051C00080B1C0008111C0008FB
:101C0000171C00080023BB7509E00123BB7506E023
:101C10000223BB7503E00323BB7500E000BFBB7D5F
:101C200018461837BD4680BDA81300209814002020
:101C30000038014080B582B000AF78607B681B68D7
:101C40001A46084B9A4200D007E0074B1B68002B4E
:101C500002D0054B1B68984700BF00BF0837BD4640
:101C600080BD00BF00380140A413002080B582B0C1
:101C700000AF78607B681B681A46084B9A4200D018
:101C800007E0074B1B68002B02D0054B1B689847E9
:101C900000BF00BF0837BD4680BD00BF003801400F
:101CA000A813002080B483B000AF7860074BD3F84E
:101CB00080207B68DB4305491340C1F8803000BFBA
:101CC0000C37BD465DF8047B704700BF0008005824
:101CD00080B483B000AF7860074BD3F890207B6866
:101CE000DB4305491340C1F8903000BF0C37BD46B7
:101CF0005DF8047B704700BF0008005880B483B0D3
:101D000000AF78604FF0B0430A4AC3F89C204FF010
:101D1000B043D3F89C3023F47C527B681B024FF015
:101D2000B0411343C1F89C3000BF0C37BD465DF88D
:101D3000047B7047FECAFECA80B483B000AF7860EF
:101D40004FF0B043D3F8903023F018024FF0B04179
:101D50007B681343C1F8903000BF0C37BD465DF877
:101D6000047B704780B400AF4FF0B043D3F890309D
:101D70004FF0B04243F48033C2F8903000BFBD460C
:101D80005DF8047B704780B400AF4FF0B043D3F8E8
:101D900090304FF0B04223F48033C2F8903000BF4F
:101DA000BD465DF8047B704780B400AF4FF0B04390
:101DB000D3F8943003F08063B3F1806F01D1012335
:101DC00000E000231846BD465DF8047B704780B4F0
:101DD00000AF4FF0B043D3F8943003F08053B3F129
:101DE000805F01D1012300E000231846BD465DF865
:101DF000047B704780B485B000AF78604FF0B0438B
:101E00009A6C4FF0B0417B6813438B644FF0B04342
:101E10009A6C7B681340FB60FB6800BF1437BD46BB
:101E20005DF8047B704780B485B000AF78604FF0F8
:101E3000B043DA6C4FF0B0417B681343CB644FF092
:101E4000B043DA6C7B681340FB60FB6800BF14375B
:101E5000BD465DF8047B704780B485B000AF786004
:101E60004FF0B0431A6D4FF0B0417B6813430B65E0
:101E70004FF0B0431A6D7B681340FB60FB6800BFF6
:101E80001437BD465DF8047B704780B483B000AF63
:101E9000786039607B685A683B681B041A437B682A
:101EA0005A6000BF0C37BD465DF8047B704780B4B4
:101EB00083B000AF786039607B685A683B681A432A
:101EC0007B685A6000BF0C37BD465DF8047B7047E5
:101ED00080B483B000AF786039607B685A693B6832
:101EE0001B041A437B685A6100BF0C37BD465DF87E
:101EF000047B704780B483B000AF786039607B6842
:101F00005A693B681A437B685A6100BF0C37BD466B
:101F10005DF8047B704780B483B000AF78603960AF
:101F20007B683A689A6000BF0C37BD465DF8047B59
:101F3000704780B483B000AF786039607B683A68DE
:101F40009A6100BF0C37BD465DF8047B7047000006
:101F500080B400AF054B1B69044A23F004031361EE
:101F600000BFBD465DF8047B704700BF00ED00E098
:101F700080B483B000AF78607B68FF225A6200BFF4
:101F80000C37BD465DF8047B704780B483B000AF6A
:101F900078607B68CA225A627B6853225A6200BF0B
:101FA0000C37BD465DF8047B704780B483B000AF4A
:101FB000786039607B689B6823F007023B681A43AE
:101FC0007B689A6000BF0C37BD465DF8047B7047A4
:101FD00080B500AF02F0A0FC00F067F900F051F905
:101FE00000F014F800F046F900F0A1F900F035F91E
:101FF00000F016F900F0D8F800F0DEF8FEF7F8FB74
:102000004FF0FF3009F0B0F9FAE7000080B5AEB04C
:1020100000AF07F1700348220021184609F0E7FBE2
:1020200007F1540300221A605A609A60DA601A615C
:102030005A619A613B1D50220021184609F0D7FBD6
:1020400003F078FB0020FFF777FE2F4B1B6823F48B
:10205000C0632D4A43F4007313602B4B1B6803F4D9
:10206000C0633B603B6807233B674FF480337B676B
:102070000123BB674FF48073FB674023C7F88030B0
:102080000023C7F89C3007F17003184603F004FFE3
:102090000346002B01D000F07AF96F237B65022301
:1020A000BB650023FB6500233B6600237B660023A2
:1020B000BB660023FB6607F154030121184604F0B8
:1020C0007FFA0346002B01D000F061F943F60303C9
:1020D0007B600023FB6100233B624FF480737B64D1
:1020E0004FF48043BB640223FB6410233B653B1D1C
:1020F000184604F0A0FE0346002B01D000F047F97B
:1021000000BFB837BD4680BD0004005880B500AFA1
:10211000234B244A1A60224B4FF4E1325A60204B81
:1021200000229A601E4B0022DA601D4B00221A61C9
:102130001B4B0C225A611A4B00229A61184B4FF428
:102140000042DA61164B00221A62154B00225A62D5
:10215000134B00229A62124805F037FA0346002B0F
:1021600001D000F014F900210D4806F0D6FB03461B
:10217000002B01D000F00BF90021094806F00BFC00
:102180000346002B01D000F002F9054806F08CFB55
:102190000346002B01D000F0FAF800BF80BD00BF5D
:1021A000981400200038014080B400AF00BFBD4645
:1021B0005DF8047B7047000080B500AF164B174AEE
:1021C0001A60154B00225A60134B0F229A60124B73
:1021D00047F6FF72DA60104B00221A610E4B0022A4
:1021E0009A610D4B0022DA610B4B00225A610A48BA
:1021F00005F0A7F80346002B01D000F0C8F8074807
:10220000FFF7C3FE00210548FFF7CFFE0348FFF7A5
:10221000AFFE00BF80BD00BF241500200028004095
:1022200080B500AF0420FFF7E5FD0220FFF7E2FDD7
:102230000120FFF7DFFD00220F210E2002F043FDF9
:102240000E2002F05AFD00220F213A2002F03BFD41
:102250003A2002F052FD00BF80BD80B500AF0420DF
:10226000FFF7E1FD0120FFF7DEFD0220FFF7DBFDB8
:1022700000BF80BD80B400AF00BFBD465DF8047BE9
:10228000704780B582B000AF002007F0B3FE7860E1
:102290007B68002B05D07B689B791846FFF72EFDE5
:1022A00000BF00BF0837BD4680BD80B500AF00F05D
:1022B00027F800F003F800BF80BD000080B500AF34
:1022C0004FF48010FFF7C8FD3F210C48FFF723FEB5
:1022D0003F210A48FFF72DFE3F210848FFF7D5FDB3
:1022E0003F210648FFF7F4FD3F210448FFF7DFFDDB
:1022F0003F210248FFF7FEFD00BF80BD000C0058E3
:1023000080B500AFFFF750FD0346002B0DD0FFF75F
:102310005EFD0346002B08D103F00CFA03F00AFA25
:10232000FFF720FDFFF72FFD00BF00BF80BD80B588
:1023300000AF4FF0FF30FFF7B5FC6FF05000FFF734
:10234000C7FC00BF80BD80B584B000AF786002F0EC
:1023500051FBB8607B68FB60FB68B3F1FF3F0AD0BC
:1023600002F060FB03461A46FB681344FB6002E080
:10237000FFF7EEFD30BF02F03DFB0246BB68D31A0B
:10238000FA689A42F4D800BF1037BD4680BD80B4C9
:1023900000AF00BFBD465DF8047B704780B483B0DA
:1023A00000AF78604FF0B043D3F8903023F4407220
:1023B0004FF0B0417B681343C1F8903000BF0C3739
:1023C000BD465DF8047B704780B400AF4FF0B0436A
:1023D000D3F890304FF0B04243F40043C2F890304D
:1023E00000BFBD465DF8047B704780B485B000AF88
:1023F00078604FF0B043DA6C4FF0B0417B68134324
:10240000CB644FF0B043DA6C7B681340FB60FB6831
:1024100000BF1437BD465DF8047B704780B485B0BB
:1024200000AF78604FF0B0431A6D4FF0B0417B6859
:1024300013430B654FF0B0431A6D7B681340FB608C
:10244000FB6800BF1437BD465DF8047B704780B45D
:1024500085B000AF78604FF0B0439A6D4FF0B04157
:102460007B6813438B654FF0B0439A6D7B681340D4
:10247000FB60FB6800BF1437BD465DF8047B704706
:1024800080B485B000AF78604FF0B043DA6D4FF0A4
:10249000B0417B681343CB654FF0B043DA6D7B6886
:1024A0001340FB60FB6800BF1437BD465DF8047B3A
:1024B000704780B485B000AF78604FF0B0431A6EBB
:1024C0004FF0B0417B6813430B664FF0B0431A6E78
:1024D0007B681340FB60FB6800BF1437BD465DF8A6
:1024E000047B704780B500AF4FF40020FFF796FFE4
:1024F000002200212E2002F0E6FB2E2002F0FDFB40
:1025000000BF80BD80B58CB000AF786007F11C03C0
:1025100000221A605A609A60DA601A617B681B6850
:102520006C4A93426FD10120FFF7AAFF0120FFF709
:102530005CFF0C23FB6102233B6200237B620323CD
:10254000BB620823FB6207F11C0319464FF0904061
:1025500002F02CFF4023FB6102233B6200237B62DD
:102560000023BB620823FB6207F11C0319464FF0EE
:10257000904002F01BFF584B584A1A60564B1122EC
:102580005A60554B10229A60534B0022DA60524B2E
:1025900080221A61504B00225A614F4B00229A61EF
:1025A0004D4B0022DA614C4B00221A624A4802F07D
:1025B000E9FB0346002B01D0FFF7E9FE4FF08853FB
:1025C000FB6000233B6100233B7500237B750123E7
:1025D000BB6107F10C0319463F4802F0A7FE034612
:1025E000002B01D0FFF7D3FE7B683B4A5A673A4A7B
:1025F0007B68936200220021252002F064FB2520E5
:1026000002F07BFB61E07B681B68354A93425CD13A
:102610004FF48040FFF74DFF0120FFF7E6FE022058
:10262000FFF7E3FE4FF40063FB6102233B620023EC
:102630007B620023BB620723FB6207F11C03194680
:102640004FF0904002F0B2FEC023FB6102233B62D8
:1026500001237B620323BB620723FB6207F11C0398
:102660001946204802F0A2FE1F4B204A1A601E4B5A
:102670000F225A601C4B10229A601B4B0022DA601A
:10268000194B80221A61184B00225A61164B002206
:102690009A61154B0022DA61134B00221A6212482C
:1026A00002F070FB0346002B01D0FFF770FE7B6841
:1026B0000D4A5A670C4A7B6893620022002124204D
:1026C00002F001FB242002F018FB00BF3037BD46AA
:1026D00080BD00BF0080004048150020440002403B
:1026E000003801400004004838140020440402402F
:1026F00080B582B000AF78607B681B680B4A93425C
:1027000010D103F017F803F015F84FF48070FFF7BD
:1027100045FEFFF759FE4FF48060FFF798FE78689A
:1027200004F0FDFE00BF0837BD4680BD0028004014
:1027300080B400AF00BFBD465DF8047B704780B435
:1027400000AFFEE780B400AFFEE780B400AFFEE765
:1027500080B400AFFEE780B400AF00BFBD465DF8B7
:10276000047B704780B400AF00BFBD465DF8047BBA
:10277000704780B400AF00BFBD465DF8047B704772
:1027800080B500AF02F022F900BF80BD80B500AF78
:10279000024802F079FC00BF80BD00BF4815002050
:1027A00080B500AF024805F0B9F800BF80BD00BF9A
:1027B0009814002080B500AF024805F0AFF800BFC4
:1027C00080BD00BFAC13002080B500AF02F08EFFCB
:1027D00000BF80BD80B500AF024802F055FC00BFCD
:1027E00080BD00BF3814002080B500AF102002F07B
:1027F00065FF00BF80BD80B500AFFEF76DFE00BF76
:1028000080BD80B500AFFEF7F9F900BF80BD80B58F
:1028100000AFFEF7BBF900BF80BD80B586B000AF4A
:10282000F860B9607A6000237B610AE0AFF3008052
:102830000146BB685A1CBA60CAB21A707B69013380
:102840007B617A697B689A42F0DB7B6818461837AF
:10285000BD4680BD80B483B000AF78604FF0FF33D9
:1028600018460C37BD465DF8047B704780B483B0D2
:1028700000AF786039603B684FF400525A60002323
:1028800018460C37BD465DF8047B704780B483B0B2
:1028900000AF7860012318460C37BD465DF8047B15
:1028A000704780B485B000AFF860B9607A600023EB
:1028B00018461437BD465DF8047B704780B586B076
:1028C00000AF7860144A154BD31A7B617B693B617A
:1028D000134B1B68002B02D1114B124A1A60104B8C
:1028E0001A687B6813443A699A4207D208F04AFF93
:1028F00002460C2313604FF0FF3309E0084B1B68BE
:10290000FB60074B1A687B681344054A1360FB6839
:1029100018461837BD4680BD000003200010000097
:10292000580200201824002080B400AF034B1B681D
:102930001846BD465DF8047B704700BF8075FF1FD9
:1029400080B400AF034B1B68DBB21846BD465DF890
:10295000047B70478475FF1F80B400AF034B1B6876
:102960001B0A1846BD465DF8047B70478475FF1F3F
:1029700080B500AF0121402008F0F6FD00BF80BD0A
:1029800080B485B000AF786039600023FB6054E00C
:102990007B681A783149FB68262000FB03F30B445F
:1029A0001B789A4246D17B6801331A782B49FB6821
:1029B000262000FB03F30B4401331B789A4239D1E4
:1029C0007B6802331A782549FB68262000FB03F355
:1029D0000B4402331B789A422CD17B6803331A785C
:1029E0001E49FB68262000FB03F30B4403331B78CE
:1029F0009A421FD17B6804331A781849FB68262055
:102A000000FB03F30B4404331B789A4212D17B681A
:102A100005331A781149FB68262000FB03F30B44A9
:102A200005331B789A4205D1FB68DAB23B681A700D
:102A300001230DE0FB680133FB60094B1B781A464C
:102A4000FB689342A4DBFB68DAB23B681A70002390
:102A500018461437BD465DF8047B7047C01500204A
:102A600062020020B0B58CB000AF204B3C461D4642
:102A70000FCD0FC40FCD0FC495E80F0007C423700E
:102A800000F0ACFA0121022008F040FC184A0021B5
:102A9000202008F049FD3B46184607F0D3FA00F025
:102AA000B3FA08F08DF9134A0021012008F03CFD2B
:102AB000114A0021022008F037FD104A0021402071
:102AC00008F032FD0E4B002283F89020202006F003
:102AD000D9FE00F0BBFE0B4B00220B490020FEF795
:102AE000ABFE00BF3037BD46B0BD00BF58C70008C1
:102AF000499C00087D310008D93100085D3200088A
:102B00003001002069330008C1010020F0B59BB0FE
:102B100006AF78607B680133BB63BB6B02337B63BA
:102B2000BB6B1B783E2B00F01681FF2B03D0052BCF
:102B300000F0F38012E2A54B01221A70BB6B023346
:102B40003B633B6B1B889BB240F20742934208D029
:102B500040F60202934200F08480042B00F0D08003
:102B6000DAE03B6B02337B627B6A1B78022B40F01E
:102B7000D2807B6A5B78002B40F0CD80002001F092
:102B800027FD934808F03CFE924808F039FE924831
:102B900008F036FE914808F033FE914808F030FE08
:102BA0000023FB6446E0F96C8E4808F029FE8E4A4B
:102BB000FB6C262101FB03F3134407331B78002B26
:102BC00004D18A498A4808F01BFE0AE0FB6C2622E1
:102BD00002FB03F3844A134407331946844808F080
:102BE0000FFE0523BB640FE07F4AFB6C262101FB2F
:102BF00003F31A44BB6C13441B7819467D4808F054
:102C0000FFFDBB6C013BBB64BB6C002BECDA764A6E
:102C1000FB6C262101FB03F31344063393F90030C8
:102C20001946754808F0ECFD744808F0E9FDFB6CA6
:102C30000133FB64724B1B781A46FB6C9342B2DB88
:102C40006F4B1A786F4B1A706D4B00221A706E48DA
:102C500008F0D6FD6D4B02226D490020FEF780FF83
:102C600059E03B6B0233FB62002006F00BFEFB6A6F
:102C70009A78684B1A70FB6AB3F803309AB2654BC6
:102C80005A80FB6AB3F805309AB2624B9A80FB6AAD
:102C9000B3F807309AB25F4BDA80FB6AB3F80930B9
:102CA0009AB25C4B1A81FB6AB3F80B309AB2594B5B
:102CB0005A81594BD88C574B9C88564BDD88554BC5
:102CC0001E89544B5B89534A127801210491039267
:102CD0001022029210220192009333462A46214686
:102CE00006F03EFE034687F82B3097F82B30002B7A
:102CF00002D0022001F052FC202006F0C3FD0BE0C0
:102D0000012001F04BFC444B93F891300A21184606
:102D1000FEF792FE00E000BF20E17B6BB3F80130CC
:102D20009AB23D4BDB8C9A4240F017813A4B00221D
:102D3000DA84394B002283F89020384808F0E8FD07
:102D4000224B01221A70344BDA8C204B5A801F48D8
:102D500000F0C2FD01E1BB6B02333B623B6A1B78B2
:102D6000012B02D0022B63D0F6E03B6A0133FB60FB
:102D7000FB68B3F801309AB2274BDA84264B06225F
:102D800083F89020264808F0C3FD104B00221A70EB
:102D9000214BDA8C0D4B5A800C4800F09DFD1E4BE8
:102DA000DB8C184606F028FA034687F82B3097F894
:102DB0002B30002B06D11B4808F0AAFD1A4808F05A
:102DC0001FFDC9E0194808F01BFDC5E0A81500204B
:102DD00088C70008BCC70008DCC70008FCC700089B
:102DE0001CC8000860C80008C015002068C800089A
:102DF00070C8000894C800089CC80008B0C8000843
:102E00006202002063020020B4C800087129000893
:102E1000B01B0020B415002030010020DCC80008E1
:102E200004C9000828C900085CC900088CC900084A
:102E30003B6A0133FB61FB695B78FB76FB695B7A7C
:102E4000BB76FB69093301337B61FB69033307F10F
:102E50000B0211461846FFF793FD0346002B1ED1C7
:102E6000414B1B780133DAB23F4B1A7000237B646D
:102E700012E0FB7A1846FA697B6C13440333197825
:102E80003A4A262303FB00F31A447B6C13440A4698
:102E90001A707B6C01337B647B6C052BE9D9FB6971
:102EA0005B7A1A467B691344FA7A104693F900104C
:102EB0002E4A262303FB00F3134406330A461A70F6
:102EC00000233B6443E03B6C7A6913441B78FB743A
:102ED0003B6C01337A6913441B78BB74BB7C0A2BAF
:102EE0002BD00A2B04DC012B29D0092B05D029E09B
:102EF000162B26D0FF2B24D024E00023FB6316E002
:102F00003B6C9A1CFB6B13441A467B691344FA7A98
:102F100010461978154A262303FB00F31A44FB6B6D
:102F2000134407330A461A70FB6B0133FB63FB7CC7
:102F3000013BFA6B9A42E3DB04E000BF02E000BF12
:102F400000E000BFFB7C01333A6C13443B64BB7E62
:102F50003A6C9A42B7DB00BF00E000BF012318467D
:102F60005437BD46F0BD00BF62020020C0150020EE
:102F700080B483B000AF0346FB80084BDB8CFA883B
:102F80009A4203D1054B93F8903000E00023184695
:102F90000C37BD465DF8047B704700BF3001002050
:102FA00080B500AF01F020F90346062B04D00021C4
:102FB000012008F0D9FA01E000F0C0FC00BF80BD9C
:102FC00080B400AF00BFBD465DF8047B704780B49D
:102FD00000AF00BFBD465DF8047B704780B582B08E
:102FE00000AF064B3B60064B7B603B4619460548ED
:102FF00006F00EFE00BF0837BD4680BD2800032046
:103000007D34000845340008F0B591B006AF0023C8
:10301000BB8006F081FC00F0AFF938623A6A062105
:10302000002006F06FFB4EF66E53FB60FFF77CFC52
:103030000346BB6007F108031A4606212E2006F05E
:1030400061FB494A1021182006F05CFB474A102119
:10305000082006F057FB1821012006F0BCFB06F003
:103060001FF80023FB77FB7F43F00403FB77FB7F14
:10307000002B1ED03E4BBB6107F11602F87F07F113
:103080001203019307F11403009313460722002152
:1030900005F01AFEFC8ABD8AB869FDF771F803468F
:1030A000DAB2BB690093134600222946204606F097
:1030B0001CF8F88A798A3B1D00930223002206F04F
:1030C00014F82C4B03221A702A4B1B78184605F073
:1030D00009FD284B01225A70264B0022DA70254B3D
:1030E00008225A75234B10229A75224B01221A7519
:1030F000204B214A9A611F4B01229A70002387F8C6
:1031000027300BE097F827301A4A134497F8272006
:103110001A7197F82730013387F8273097F827304E
:103120000F2BEFD9134B9D78124B5E78114B5B7DC3
:10313000104A927D0F49097D0E488069002404944D
:103140000390029101920093002301223146284608
:1031500005F012FD074B9B78002B01D005F03FFED8
:1031600000BF2C37BD46F0BD40D0000850D000084D
:10317000CCC900083001002007B2010080B582B040
:1031800000AF124B93F89030062B1AD0002001F0BC
:1031900005FA012300224FF448714FF4487005F0FE
:1031A00042FE0346FB71FB79002B03D1084808F06F
:1031B00027FB06E0022001F0F1F9064808F020FBA9
:1031C00000BF00BF0837BD4680BD00BF30010020F2
:1031D000D4C9000804CA000880B58AB008AF1C48EA
:1031E00008F00EFB002001F0D9F91A4B93F890304B
:1031F000062B28D010230693102305934FF4FA735F
:103200000493002303935023029328230193002364
:103210000093114B00224FF448714FF4487005F0B1
:103220007AFE0346FB71FB79002B04D1094B042283
:1032300083F8902007E0022001F0B0F9054B00224E
:1032400083F8902000BF00BF0837BD4680BD00BF97
:1032500034CA000830010020AC15002080B58AB0C7
:1032600008AF394B1B78303BFB71374B5B78303BF9
:10327000BB71FB791A46920013445B00DAB2BB794A
:1032800013447B71FB79092B0CD9BB79092B09D924
:103290002E4808F0B5FA2E4B02222B490020FEF7EB
:1032A0005FFC4DE07A792B4B1B78013B9A4209DD9C
:1032B000294808F0A5FA264B022223490020FEF7F0
:1032C0004FFC3DE0254808F09BFA002001F066F92C
:1032D000234B93F89030062B31D07B79262202FBCA
:1032E00003F3204A1A4410230693102305934FF446
:1032F000FA7304930023039350230293282301932A
:1033000000230093134600224FF448714FF4487095
:1033100005F001FE03463B713B79002B07D10020ED
:1033200001F056F90E4B042283F8902007E00220AA
:1033300001F034F90A4B002283F8902000BF00BF4F
:103340000837BD4680BD00BFB01B002068CA00081A
:1033500071290008630200209CCA000834CA0008D2
:1033600030010020C015002080B500AF012001F021
:103370002FF900BF80BD000080B586B000AFFFF719
:10338000D3FA38613B69B3F1FF3F23D0FFF7E4FA8A
:10339000B860FFF7D5FA78603B69DAB2164B1A705D
:1033A0003B691B0ADAB2144B5A703B691B0CDAB248
:1033B000114B9A707B68DAB20F4BDA70BB68DAB2E5
:1033C0000D4B1A71BB681B0ADAB20B4B5A710A4BD0
:1033D0007B610BE0002006F00DFEF860FB68002B1F
:1033E00002D0FB687B6101E0044B7B617B6918467E
:1033F0001837BD4680BD00BF5C02002038D00008F1
:1034000080B582B000AF78600021202008F0ACF8D1
:1034100000BF0837BD4680BD80B582B000AF786080
:10342000012008F007F900BF0837BD4680BD80B510
:1034300082B000AF7860012008F01AF900BF0837A9
:10344000BD4680BD80B584B000AF78607B68FB600E
:10345000FB685B680833184607F000FD0346FB7203
:10346000FB7A002B03D0FB6801221A7002E0FB6894
:1034700000221A7000BF1037BD4680BD80B584B0F1
:1034800000AF0346FB71FB79002B02D0012B06D065
:103490000BE07F23FB60F86808F090F805E07F23DD
:1034A000FB60F86808F0A8F800BF00BF1037BD4601
:1034B00080BD000090B583B000AF2B4B5B78FB71F3
:1034C000FB79012B02D0FB79022B40D1FB79012B38
:1034D0001ED1264B1B78264A1B0113440D221A705D
:1034E000244B1B781946214B1B781C461F4B1B781D
:1034F0001846214A0B461B015B1A5B00234432F835
:1035000013101B4A0301134408330A461A8027E0AC
:10351000164B1B78164A1B01134409221A70154BCF
:103520001B781946114B1B781C46104B1B7818460C
:10353000114A0B461B015B1A5B00234432F813103F
:103540000B4A0301134408330A461A8008E00B486B
:1035500008F056F90A4B012203490020FEF700FB50
:1035600000BF0C37BD4690BDA8210020A42100203B
:10357000C401002004240020AC210020D0CA00088F
:10358000B534000890B583B000AF814B1B78303B59
:10359000FB717F4B5B78303BBB717E4ABB7913700C
:1035A0007D4AFB791370FB79092B0CD9BB79092B68
:1035B00009D97A4808F024F9794B0222744900208D
:1035C000FEF7CEFADFE0FA79B979764813461B01A7
:1035D0009B1A9B0003440B4428331B787B717B7937
:1035E000023B1E2B00F2CE8001A252F823F000BF56
:1035F0006D360008853700089D36000885370008BD
:10360000CD36000885370008F536000885370008F4
:10361000E13600088537000885370008853700083F
:1036200085370008853700082537000885370008EA
:10363000853700088537000885370008853700087A
:10364000853700088537000885370008853700086A
:10365000853700088537000885370008853700085A
:10366000853700088537000855370008BB794E4A72
:103670001B0113440D221A70FA79B879B979494CB3
:1036800013461B019B1A5B00034434F81300464A9F
:103690000B011344083302461A8074E0BB79424A96
:1036A0001B01134409221A70FA79B879B9793D4C93
:1036B00013461B019B1A5B00034434F813003A4A7B
:1036C0000B011344083302461A805CE0374808F0C7
:1036D00097F8374B012237490020FEF741FA52E0B4
:1036E000324808F08DF8324B012232490020FEF7B3
:1036F00037FA48E0BB792C4A1B01134409221A709F
:10370000FA79B879B979274C13461B019B1A5B00EB
:10371000034434F81300244A0B01134408330246CF
:103720001A8030E0BB79204A1B0113440B221A7027
:10373000FA79B879B9791B4C13461B019B1A5B00C7
:10374000034434F81300184A0B0113440C330246A7
:103750001A8018E0BB79144A1B0113440B221A701B
:10376000FA79B879B9790F4C13461B019B1A5B00A3
:10377000034434F813000C4A0B0113440C33024683
:103780001A8000E000BF00BF0C37BD4690BD00BFEF
:103790000C240020A421002004240020F8CA0008E2
:1037A00085350008AC210020C40100202CCB000886
:1037B000B5340008A8210020F0B58DB006AF7860C0
:1037C0000B46FB700023FB7521E0FB789A1CFB7D08
:1037D0005B00D31A1A467B6813441B7899B2FB78B6
:1037E0009A1CFB7D5B00D31A01337A6813441B7863
:1037F0009BB21B029AB2FB7D0A4392B25B0007F1B7
:1038000018010B4423F8102CFB7D0133FB75FB7D65
:10381000072BDAD93B891D467B891E46BB899C460E
:10382000FB893A8A798AB88AFC8A049403900291C7
:1038300001920093634632462946034807F0E0FFB1
:1038400000BF1C37BD46F0BD60CB000880B582B01C
:1038500000AF0023FB711A4A0021042007F064FE28
:10386000184A0021082007F05FFE174B00221A704B
:10387000154B0022DA80144B00225A70124B0022A2
:103880009A70114B0122DA700F4B00221A7100233B
:10389000FB7108E0FB790D4A1B01134400221A70EA
:1038A000FB790133FB71FB79002BF3D0084807F05B
:1038B000BBFA084807F0A4FF00BF0837BD4680BD2B
:1038C0009D42000865420008D4010020C401002088
:1038D0004D39000884CB000880B584B000AF786013
:1038E0007B681B78002B02D0012B05D01EE07B6883
:1038F0005A88104BDA8019E00023FB730D4B00222D
:10390000DA8005E0FB7B0C4A1B01134400221A708D
:10391000FB7B002B06D1FB7B074A1B0113441B7862
:10392000002BEFD1002000F053FE00BF00BF103786
:10393000BD4680BDD4010020C401002080B500AF89
:103940000021082007F010FE00BF80BD80B596B0B2
:1039500000AF7860002387F848307B6801337B64D0
:103960007B6C1B78FF2B00D0F4E37B6C02333B6451
:103970003B6C1B889BB2A3F604430C2B00F2DE8346
:1039800001A252F823F000BF233F00083D41000888
:103990007B3B00083D4100083D4100083D410008D7
:1039A000BD3900083D4100083D4100083D41000887
:1039B0003D4100086B400008E74000083B6C0233C3
:1039C0007B637B6B1A785B781B0213437B86002337
:1039D00087F856302EE097F85630BD4A1B01134445
:1039E00002331B881846FFF7C3FA034687F83130C5
:1039F00097F85630B64A1B0113441B78062B14D196
:103A000097F83130002B10D197F85630B04A1B018F
:103A1000134400221A7097F85630AD4A1B01134424
:103A200002334FF6FF721A800CE097F856300133DC
:103A300087F8563097F85630A54A1B0113441B7877
:103A4000002BC8D197F85630A14A1B01134402330A
:103A50007A8E1A807B6BDA787B6B9B78B2FBF3F300
:103A600087F830307B6B9B78142B40F069831023F0
:103A700087F8573000233B6579E0964B1B78194651
:103A8000954807F0BDFE97F857307A6B13441B79C1
:103A90009AB297F85730796B0B44043301331B7893
:103AA0009BB21B029BB21343FB8597F8573001333F
:103AB0007A6B13441A79894B1A707B6B043397F82D
:103AC000572011461846FFF777FE97F85730103BFE
:103AD0007A6B13441B7999B297F85730103B7A6B85
:103AE0001344043301331B789BB21B029AB297F83C
:103AF00056300A4391B2764A1B01134404330A46F6
:103B00001A8097F857300E3B7A6B13441B7999B2A1
:103B100097F857300E3B7A6B1344043301331B780C
:103B20009BB21B029AB297F856300A4391B2684A88
:103B30001B01134406330A461A80664B1B78013377
:103B4000DAB2644B1A7097F85630614A1B0113447D
:103B500008221A7097F85730063387F8573097F8CD
:103B60005630013387F856303B6D01333B6597F88B
:103B700030303A6D9A4280DBE2E23B6C0233BB624A
:103B8000002387F84E3004E097F84E30013387F871
:103B90004E30534B1B784E4A1B01134402331A8894
:103BA000BB6A1B889BB29A42EED1112387F84F3033
:103BB000BB6A9B78152B40F0C582BB6ADB78013B62
:103BC000DAB2BB6ADA70A6E197F84F300133BA6A0D
:103BD00013441B799AB297F84F300133B96A0B44FA
:103BE000043301331B789BB21B029BB21343FB844B
:103BF00097F84F300E3BBA6A13441B799AB297F884
:103C00004F300E3BB96A0B44043301331B789BB22F
:103C10001B029BB21343BB8497F84F300F3BBA6A29
:103C200013441B7987F823302C4B1B789BB2FA8CFA
:103C30009A4240F0658197F823301946294807F0E9
:103C4000DFFD97F82330023B1E2B00F2518101A2C9
:103C500052F823F0E93C0008F13E00082F3D00082F
:103C6000F13E0008933D0008F13E00081F3E0008A9
:103C7000F13E0008D93D0008F13E0008F13E000881
:103C8000F13E0008F13E0008F13E0008653E0008E4
:103C9000F13E0008F13E0008F13E0008F13E000848
:103CA000F13E0008F13E0008F13E0008F13E000838
:103CB000F13E0008F13E0008F13E0008F13E000828
:103CC000F13E0008F13E0008F13E0008AB3E00085E
:103CD000C401002065020020A4CB0008640200207B
:103CE00066020020B8CB0008BB6A043397F84F2067
:103CF00011461846FFF760FDA24807F081FDA24B70
:103D00001B781946A14B1B781846A14A0B461B018C
:103D10005B1A9B0013440344283397F823201A703E
:103D20009A4B1B780133DAB2984B1A70E1E0BB6A08
:103D3000043397F84F2011461846FFF73DFD95488C
:103D400007F05EFD904B1B781946904B1B78184688
:103D50008F4A0B461B015B1A9B0013440344283314
:103D600097F823201A70884B1B781A46874B1B78CC
:103D70001846874913461B019B1A5B000344BA8C03
:103D800021F81320814B1B780133DAB27F4B1A7074
:103D9000AFE0BB6A043397F84F2011461846FFF78F
:103DA0000BFD7D4807F02CFD774B1B781946774BB0
:103DB0001B781846764A0B461B015B1A9B0013447E
:103DC0000344283397F823201A70704B1B78013373
:103DD000DAB26E4B1A708CE0BB6A043397F84F204E
:103DE00011461846FFF7E8FC6C4807F009FD664BE2
:103DF0001B781946654B1B781846654A0B461B0114
:103E00005B1A9B0013440344283397F823201A704D
:103E10005E4B1B780133DAB25C4B1A7069E0BB6A07
:103E2000043397F84F2011461846FFF7C5FC5C484D
:103E300007F0E6FC544B1B781946544B1B78184688
:103E4000534A0B461B015B1A9B001344034428335F
:103E500097F823201A704D4B1B780133DAB24B4B85
:103E60001A7046E0BB6A043397F84F201146184693
:103E7000FFF7A2FC4B4807F0C3FC434B1B781946E5
:103E8000424B1B781846424A0B461B015B1A9B00AB
:103E900013440344283397F823201A703B4B1B78B4
:103EA0000133DAB2394B1A7023E0BB6A043397F856
:103EB0004F2011461846FFF77FFC3B4807F0A0FC57
:103EC000314B1B781946314B1B781846304A0B464C
:103ED0001B015B1A9B0013440344283397F82320EB
:103EE0001A702A4B1B780133DAB2284B1A7000E0A3
:103EF00000BF264B1B782D4A1B0113440E221A705B
:103F0000BB6ADB78153BDAB2BB6ADA7097F84F30E0
:103F1000153387F84F30BB6ADB78002B7FF454AE43
:103F200010E13B6C0233FB61002387F84B3004E067
:103F300097F84B30013387F84B3097F84B30002B14
:103F40000BD197F84B30194A1B01134402331A88DE
:103F5000FB691B889BB29A42EAD197F84B30002B41
:103F600040F0F280FB69DB789B08FB76002387F842
:103F70004D30FB699B78012B40F0E680002387F8E9
:103F80004C306CE0C0CB00086502002066020020C7
:103F9000AC210020CCCB0008E8CB00080CCC0008FA
:103FA0001CCC000828CC000834CC0008C401002038
:103FB00097F84D30FA6913441B799AB297F84D304F
:103FC000F9690B44043301331B789BB21B029BB28B
:103FD00013433B8397F84D300233FA6913441B793E
:103FE0009AB297F84D300233F9690B440433013328
:103FF0001B789BB21B029BB21343FB82FB8A42F6E7
:104000000212934221D197F84B30554A1B011344B9
:1040100002331B881946534807F0F2FB97F84B30E0
:104020004F4A1B0113441B780A2B0ED197F84B30D3
:104030004B4A1B0113440E333A8B1A8097F84B30CE
:10404000474A1B0113440B221A7097F84D30043372
:1040500087F84D3097F84C30013387F84C3097F89B
:104060004C20FB7E9A42A3D36EE03B6C0233BB63D1
:10407000002387F84A3004E097F84A30013387F884
:104080004A3097F84A30002B0BD197F84A30344A1F
:104090001B01134402331A88BB6B1B889BB29A42E4
:1040A000EAD197F84A30002B50D1BB6B5B889AB2AB
:1040B00097F84A302A491B010B440C331B889A425B
:1040C00044D1BB6B1B79022B40D102233B72BB6BEB
:1040D0001B793B74BB6B0533FB6007F10803184683
:1040E00000F044F832E03B6C0233FB631E4807F0FB
:1040F00087FB0A2007F09CFB002387F8493004E087
:1041000097F84930013387F8493097F84930002B48
:104110000BD197F84930124A1B01134402331A8815
:10412000FB6B1B889BB29A42EAD197F84930002B6F
:104130000ED10021042007F017FA09E000BF08E0C3
:1041400000BF06E000BF04E000BF02E000BF00E0E7
:1041500000BF00BF97F8483018465837BD4680BDAD
:10416000C401002044CC00088CCC000880B582B08B
:1041700000AF78607B681B78022B00D027E07B685B
:104180005B681A78144B5A70134B5B78012B00D084
:104190001CE07B685B685A780F4B9A700E4B9B78DB
:1041A000002B09D1002000F013FA0C4807F028FB7F
:1041B0000B4807F025FB08E00A4807F021FB0848F8
:1041C00007F01EFB002000F0E9F900BF00BF00BFB0
:1041D0000837BD4680BD00BFD4010020BCCC00081C
:1041E000FCCC000800CD000880B400AF034B1B7866
:1041F0001846BD465DF8047B704700BFC40100202F
:1042000080B584B000AF03463960FB714223FB7375
:104210000023BB7314E0BB7B114A1B011344023320
:104220001888BB7B0E4A1B011344083319883B686E
:10423000022205F0E5F90346FB73BB7B0133BB7338
:10424000BB7B002B06D1BB7B054A1B0113441B78AB
:10425000002BE0D1FB7B18461037BD4680BD00BF68
:10426000C401002080B500AF094807F0C9FA094B26
:104270001B79002B03D1074B01221A7102E0054B79
:1042800000221A7104490020FFF7BAFF00BF80BD69
:1042900040CD0008D4010020D701002080B582B0B5
:1042A00000AF0123BB8000237B8040F201133B80E1
:1042B0000023FB71C3E0FB79694A1B0113441B789F
:1042C000073B072B00F2B78001A252F823F000BF92
:1042D000F14200080D4300083F430008674300080F
:1042E0009D43000803440008D7430008F942000832
:1042F0005C4807F085FA9FE05B4807F081FA5B4B6A
:1043000002225B490020FDF72BFC95E0594807F09D
:1043100077FAFB79524A1B01134402331888FB7960
:104320004F4A1B01134404331988FB794C4A1B0183
:10433000134406331B881A4604F0ACFF7CE04E4859
:1043400007F0E6FAFB79464A1B011344023318884A
:10435000FB79434A1B0113440E3319883B46042260
:1043600005F04EF968E0454807F0D2FAFB793C4A7F
:104370001B01134402331888FB79394A1B0113448B
:104380000C331988FB79364A1B0113440C331B8804
:1043900002339BB21A4604F0E8FF4DE0384807F0BC
:1043A000B7FAFB792E4A1B01134402331888FB79B4
:1043B0002B4A1B0113440E3319883B1D022205F0C2
:1043C0001FF9FB79264A1B01134406221A700220AA
:1043D00000F0FEF830E0FB79214A1B011344023360
:1043E0001888FB791E4A1B0113440E331B8819469B
:1043F00005F026F8FB791A4A1B01134406221A70AD
:104400001AE0204807F084FAFB79154A1B0113448F
:1044100002331888FB79124A1B0113440E331988A2
:10442000BB1C022205F067F8FB790D4A1B011344FF
:1044300006221A7000E000BFFB790133FB71FB79A3
:10444000002B08D1FB79064A1B0113441B78002B73
:104450007FF431AF00BF00BF0837BD4680BD00BF4D
:10446000C401002084CD00089CCD000885350008DB
:104470000C240020FCCD000824CE000860CE0008EB
:10448000A0CE0008C4CE0008D458C4500433C418C9
:104490008C42F9D37047036004308842FBD37047E5
:1044A0000C4885460C480D490D4A0023FFF7EFFFE5
:1044B0000C480D490023FFF7F0FF0C480C4900237E
:1044C000FFF7EBFF00F010F907F062F9FDF780FD50
:1044D000FEE70000000003200400002094000020FC
:1044E000E4D100082C02002018240020E001032061
:1044F000570A0320FEE780B485B000AF78604FF024
:10450000B043DA6C4FF0B0417B681343CB644FF09B
:10451000B043DA6C7B681340FB60FB6800BF143764
:10452000BD465DF8047B704780B588B000AF034698
:10453000FB7107F10C0300221A605A609A60DA607E
:104540001A610220FFF7D7FFFB79124A32F81330C5
:10455000FB6001233B6100237B610223BB61FB798C
:104560000D4A52F8233007F10C021146184600F0AC
:104570001DFFFB79084A52F82300FB79054A32F8FF
:1045800013300022194601F081F800BF2037BD46E4
:1045900080BD00BF60D000080400002080B582B05C
:1045A00000AF0346FB71FB79074A52F82300FB7901
:1045B000064A32F813300122194601F067F800BFAD
:1045C0000837BD4680BD00BF0400002060D0000851
:1045D00080B582B000AF0346FB71FB79074A52F801
:1045E0002300FB79064A32F813300022194601F005
:1045F0004DF800BF0837BD4680BD00BF0400002055
:1046000060D0000880B588B000AF03460A46FB7151
:104610001346BB7107F10C0300221A605A609A60BE
:10462000DA601A61FB79002B03D10420FFF763FFE6
:104630000CE0FB79012B03D10820FFF75CFF05E0BC
:10464000FB79022B02D10820FFF755FFBB79002B25
:1046500017D1FB79204A32F81330FB6000233B610D
:1046600001237B610223BB61FB791C4A52F8233092
:1046700007F10C021146184600F098FE0120FDF7E4
:1046800062FEBB79012B22D1FB79134A32F8133039
:10469000FB6001237B61124B3B61FB790F4A52F8AF
:1046A000233007F10C021146184600F07FFEFB791B
:1046B0000C4AD35C5BB200220F21184600F003FBCA
:1046C000FB79084AD35C5BB2184600F016FB00BFCA
:1046D0002037BD4680BD00BF68D000081000002014
:1046E0000000211070D0000880B400AF264B0022DB
:1046F0009A60254BD3F88830234A43F47003C2F8FC
:1047000088304FF0B0431B684FF0B04243F00103D4
:1047100013604FF0B0434FF4E0229A604FF0B04383
:104720001A684FF0B041194B13400B604FF0B04383
:10473000D3F894304FF0B04223F00503C2F8943020
:104740004FF0B043D3F898304FF0B04223F001035C
:10475000C2F898304FF0B0430D4ADA604FF0B043E2
:104760000B4A1A614FF0B0431B684FF0B04223F47C
:10477000802313604FF0B04300229A6100BFBD4612
:104780005DF8047B704700BF00ED00E0FBFEF6FA29
:104790000010042280B487B000AF4FF0B0431B6814
:1047A0001B0903F00F03474A52F823303B614FF0D7
:1047B000B0439B6803F00C030C2B67D801A252F89E
:1047C00023F000BFF94700088D4800088D48000815
:1047D0008D480008014800088D4800088D480008F1
:1047E0008D480008094800088D4800088D480008D9
:1047F0008D48000811480008334A3B69136049E0BE
:10480000314B324A1A6045E02F4B314A1A6041E081
:104810004FF0B043DB6803F00303FB604FF0B0439D
:10482000DB681B0903F007030133BB60FB68022B45
:1048300005D1264ABB68B2FBF3F37B610DE0FB6850
:10484000032B05D1224ABB68B2FBF3F37B6104E082
:104850003A69BB68B2FBF3F37B614FF0B043DB68AE
:104860001B0A03F07F027B6902FB03F37B614FF0BD
:10487000B043DB685B0F03F0070301337B607A69A9
:104880007B68B2FBF3F3104A136003E00E4A3B6906
:10489000136000BF4FF0B0439B681B0903F00F0388
:1048A0000C4A52F823303B60074B1A683B68B2FB56
:1048B000F3F3054A136000BF1C37BD465DF8047B67
:1048C000704700BFD4D000081C0000200024F40072
:1048D0000048E80174D0000880B400AF054B5B6865
:1048E000044A43F00103536000BFBD465DF8047BFA
:1048F000704700BF002004E080B400AF054B5B6848
:10490000044A43F00203536000BFBD465DF8047BD8
:10491000704700BF002004E080B582B000AF0023E4
:10492000FB710C4B1B680B4A43F48073136003202C
:1049300000F0BEF9002000F00FF80346002B02D073
:104940000123FB7101E0FDF7CDFDFB791846083727
:10495000BD4680BD0040005880B584B000AF78608F
:104960000023FB73174B1B78002B24D001F0CEFFE4
:104970000246144B1B7819464FF47A73B3FBF1F3DC
:10498000B2FBF3F3184600F0D4F90346002B0FD125
:104990007B680F2B09D8002279684FF0FF3000F0B8
:1049A00092F9094A7B68136007E00123FB7304E076
:1049B0000123FB7301E00123FB73FB7B18461037D7
:1049C000BD4680BD240000202000002080B400AF40
:1049D000064B1B781A46064B1B681344044A1360A7
:1049E00000BFBD465DF8047B704700BF2400002077
:1049F0001024002080B400AF034B1B681846BD464E
:104A00005DF8047B704700BF1024002080B400AF25
:104A1000034B1B681846BD465DF8047B704700BF1A
:104A20002000002080B400AF034B1B781846BD4621
:104A30005DF8047B704700BF2400002080B500AF04
:104A4000FFF74AFF00BF80BD80B500AFFFF754FFFE
:104A500000BF80BD80B485B000AF78607B6803F094
:104A60000703FB600C4BDB68BB60BA684FF6FF03C3
:104A70001340BB60FB681A02BB68134343F0BF637B
:104A800043F40033BB60044ABB68D36000BF1437F3
:104A9000BD465DF8047B704700ED00E080B400AFD8
:104AA000044BDB681B0A03F007031846BD465DF89C
:104AB000047B704700ED00E080B483B000AF034694
:104AC000FB7197F90730002B0BDBFB7903F01F021A
:104AD000074997F907305B09012000FA02F241F813
:104AE000232000BF0C37BD465DF8047B704700BF34
:104AF00000E100E080B483B000AF0346FB7197F99A
:104B00000730002B10DBFB7903F01F02094997F9EE
:104B100007305B09012000FA02F2203341F823201C
:104B2000BFF34F8FBFF36F8F00BF0C37BD465DF8EB
:104B3000047B704700E100E080B483B000AF03461F
:104B4000FB7197F90730002B0CDBFB7903F01F0298
:104B5000074997F907305B09012000FA02F2403358
:104B600041F8232000BF0C37BD465DF8047B704739
:104B700000E100E080B483B000AF0346FB7197F919
:104B80000730002B0CDBFB7903F01F02074997F974
:104B900007305B09012000FA02F2603341F823205C
:104BA00000BF0C37BD465DF8047B704700E100E0B4
:104BB00080B483B000AF03463960FB7197F90730CA
:104BC000002B0ADB3B68DAB20C4997F90730120177
:104BD000D2B20B4483F800230AE03B68DAB20849FA
:104BE000FB7903F00F03043B1201D2B20B441A7697
:104BF00000BF0C37BD465DF8047B704700E100E064
:104C000000ED00E080B489B000AFF860B9607A6070
:104C1000FB6803F00703FB61FB69C3F10703042B87
:104C200028BF0423BB61FB690433062B02D9FB694F
:104C3000033B00E000237B614FF0FF32BB6902FAC7
:104C400003F3DA43BB681A407B699A404FF0FF31A7
:104C50007B6901FA03F3D9437B680B401343184681
:104C60002437BD465DF8047B7047000080B582B0F4
:104C700000AF78607B68013BB3F1807F01D30123F3
:104C80000FE00A4A7B68013B53600F214FF0FF3071
:104C9000FFF78EFF054B00229A60044B07221A6033
:104CA000002318460837BD4680BD00BF10E000E075
:104CB00080B582B000AF78607868FFF7CBFE00BFA8
:104CC0000837BD4680BD80B586B000AF0346B960E9
:104CD0007A60FB73FFF7E2FE78617A68B9687869F9
:104CE000FFF790FF024697F90F3011461846FFF77D
:104CF0005FFF00BF1837BD4680BD80B582B000AFF2
:104D00000346FB7197F907301846FFF7D5FE00BF41
:104D10000837BD4680BD80B582B000AF0346FB7149
:104D200097F907301846FFF7E5FE00BF0837BD4684
:104D300080BD80B582B000AF78607868FFF796FFDD
:104D4000034618460837BD4680BD80B582B000AF27
:104D50000346FB7197F907301846FFF7EDFE00BFD9
:104D60000837BD4680BD80B582B000AF0346FB71F9
:104D700097F907301846FFF7FDFE00BF0837BD461C
:104D800080BD000080B584B000AF78607B68002BE8
:104D900001D101238EE07B681B681A46474B9A427B
:104DA0000FD87B681B681A46454B1344454AA2FB43
:104DB00003231B099A007B685A647B68424A1A6481
:104DC0000EE07B681B681A46404B13443D4AA2FB29
:104DD00003231B099A007B685A647B683C4A1A6467
:104DE0007B68022283F825207B681B681B68FB60B8
:104DF000FB6823F4FF4323F07003FB607B689A6831
:104E00007B68DB681A437B681B691A437B685B69B4
:104E10001A437B689B691A437B68DB691A437B688A
:104E20001B6A1343FA681343FB607B681B68FA68CC
:104E30001A60786800F016FA7B689B68B3F5804FBB
:104E400002D17B6800225A607B685A687B689B6C41
:104E500002F03F021A607B68DB6C7A68126D5A6060
:104E60007B685B68002B10D07B685B68042B0CD8D8
:104E7000786800F035FA7B685B6D00221A607B6809
:104E80009B6D7A68D26D5A6008E07B6800225A6593
:104E90007B6800229A657B680022DA657B680022C5
:104EA000DA637B68012283F825207B68002283F87F
:104EB0002420002318461037BD4680BD0704024059
:104EC000F8FFFDBFCDCCCCCC00000240F8FBFDBF0D
:104ED0000004024080B586B000AFF860B9607A6027
:104EE0003B600023FB75FB6893F82430012B01D154
:104EF000022366E0FB68012283F82420FB6893F814
:104F00002530DBB2012B55D1FB68022283F8252026
:104F1000FB680022DA63FB681B681A68FB681B6881
:104F200022F001021A603B687A68B968F86800F0FC
:104F30005AF9FB681B6B002B08D0FB681B681A68CA
:104F4000FB681B6842F00E021A600FE0FB681B68EA
:104F50001A68FB681B6822F004021A60FB681B6871
:104F60001A68FB681B6842F00A021A60FB689B6CB7
:104F70001B6803F48033002B07D0FB689B6C1A6816
:104F8000FB689B6C42F480721A60FB685B6D002BBF
:104F900007D0FB685B6D1A68FB685B6D42F480723A
:104FA0001A60FB681B681A68FB681B6842F0010204
:104FB0001A6005E0FB68002283F824200223FB75B9
:104FC000FB7D18461837BD4680BD80B584B000AF64
:104FD00078600023FB737B6893F82530DBB2022BEB
:104FE00005D07B680422DA630123FB7347E07B680A
:104FF0001B681A687B681B6822F00E021A607B68C7
:105000001B681A687B681B6822F001021A607B68C3
:105010009B6C1A687B689B6C22F480721A607B68B8
:105020005B6C03F01C027B681B6C012101FA02F22D
:105030005A607B68DB6C7A68126D5A607B685B6DC6
:10504000002B0CD07B685B6D1A687B685B6D22F46B
:1050500080721A607B689B6D7A68D26D5A607B683B
:10506000012283F825207B68002283F824207B68B6
:105070009B6B002B03D07B689B6B78689847FB7B0E
:1050800018461037BD4680BD80B584B000AF78604B
:105090007B681B6C1B68FB607B681B681B68BB60C4
:1050A0007B685B6C03F01C0304229A40FB6813408E
:1050B000002B26D0BB6803F00403002B21D07B68B3
:1050C0001B681B6803F02003002B07D17B681B685B
:1050D0001A687B681B6822F004021A607B685B6CAC
:1050E00003F01C027B681B6C042101FA02F25A6077
:1050F0007B681B6B002B71D07B681B6B78689847B3
:105100006CE07B685B6C03F01C0302229A40FB6836
:105110001340002B2ED0BB6803F00203002B29D0D4
:105120007B681B681B6803F02003002B0BD17B6896
:105130001B681A687B681B6822F00A021A607B6889
:10514000012283F825207B685B6C03F01C027B68DE
:105150001B6C022101FA02F25A607B68002283F87C
:1051600024207B68DB6A002B38D07B68DB6A786898
:10517000984733E07B685B6C03F01C0308229A407D
:10518000FB681340002B2AD0BB6803F00803002BF8
:1051900025D07B681B681A687B681B6822F00E02AA
:1051A0001A607B685B6C03F01C027B681B6C01213E
:1051B00001FA02F25A607B680122DA637B680122FD
:1051C00083F825207B68002283F824207B685B6BB2
:1051D000002B04D07B685B6B7868984700BF00BFEA
:1051E0001037BD4680BD80B485B000AFF860B960AF
:1051F0007A603B60FB68DB6CFA68126D5A60FB6892
:105200005B6D002B04D0FB689B6DFA68D26D5A6011
:10521000FB685B6C03F01C02FB681B6C012101FA4C
:1052200002F25A60FB681B683A685A60FB689B6828
:10523000102B08D1FB681B687A689A60FB681B68B2
:10524000BA68DA6007E0FB681B68BA689A60FB68B6
:105250001B687A68DA6000BF1437BD465DF8047BCE
:105260007047000080B485B000AF78607B681B6831
:105270001A46174B9A420AD87B685B6C9B089B00C6
:1052800003F1804303F502337A68936407E07B6897
:105290005B6C9B089A000F4B13447A6893647B689D
:1052A0001B68DBB2083B0C4AA2FB03231B09FB6013
:1052B0007B680A4ADA64FB6803F01F0301229A4004
:1052C0007B681A6500BF1437BD465DF8047B7047E4
:1052D000070402401C080240CDCCCCCC8008024020
:1052E00080B485B000AF78607B685B6803F03F03F3
:1052F000FB60FA680B4B13449B001A467B685A65A7
:105300007B68094A9A65FB68013B03F003030122AD
:105310009A407B68DA6500BF1437BD465DF8047BB0
:10532000704700BF3F8200104009024080B483B044
:1053300000AF786039607B6893F82530DBB2012BD1
:105340002BD17B6893F82430012B01D1022325E077
:105350007B68012283F824207B689B6C1A68124BBF
:1053600013403A6811683A68D268013AD20411438E
:105370003A68526811433A68127A120411433A6843
:10538000527A520211437A68926C0B4313607B6825
:10539000002283F82420002300E0012318460C3764
:1053A000BD465DF8047B7047FFFD00E080B487B028
:1053B00000AF7860396000237B614CE13B681A687C
:1053C00001217B6901FA03F31340FB60FB68002BAA
:1053D00000F03E813B685B68012B0BD03B685B684B
:1053E000022B07D03B685B68112B03D03B685B68DE
:1053F000122B30D17B689B683B617B695B00032289
:1054000002FA03F3DB433A6913403B613B68DA6815
:105410007B695B0002FA03F33A6913433B617B68E3
:105420003A699A607B685B683B6101227B6902FA9A
:1054300003F3DB433A6913403B613B685B681B093C
:1054400003F001027B6902FA03F33A6913433B61FB
:105450007B683A695A607B68DB683B617B695B000B
:10546000032202FA03F3DB433A6913403B613B68D2
:105470009A687B695B0002FA03F33A6913433B6164
:105480007B683A69DA603B685B68022B03D03B6853
:105490005B68122B23D17B69DA087B68083253F8EA
:1054A00022303B617B6903F007039B000F2202FA65
:1054B00003F3DB433A6913403B613B681A697B693C
:1054C00003F007039B0002FA03F33A6913433B61BD
:1054D0007B69DA087B680832396943F822107B68F7
:1054E0001B683B617B695B00032202FA03F3DB4329
:1054F0003A6913403B613B685B6803F003027B69D8
:105500005B0002FA03F33A6913433B617B683A6933
:105510001A603B685B6803F08053002B00F09880B2
:10552000544A7B699B08023352F823303B617B6904
:1055300003F003039B000F2202FA03F3DB433A69F3
:1055400013403B617B68B3F1904F19D07B684A4AA6
:10555000934213D07B68494A93420DD07B68484AF6
:10556000934207D07B68474A934201D1042308E065
:10557000072306E0032304E0022302E0012300E006
:1055800000237A6902F00302920093403A691343C0
:105590003B6138497B699B0802333A6941F8232013
:1055A000394BD3F880303B61FB68DB433A691340E9
:1055B0003B613B685B6803F48033002B03D03A699E
:1055C000FB6813433B61304A3B69C2F880302E4B85
:1055D000D3F884303B61FB68DB433A6913403B619D
:1055E0003B685B6803F40033002B03D03A69FB6827
:1055F00013433B61244A3B69C2F88430224B1B6849
:105600003B61FB68DB433A6913403B613B685B6885
:1056100003F48013002B03D03A69FB6813433B610A
:10562000194A3B691360184B5B683B61FB68DB43BD
:105630003A6913403B613B685B6803F40013002B3D
:1056400003D03A69FB6813433B610F4A3B695360DF
:105650007B6901337B613B681A687B6922FA03F33B
:10566000002B7FF4ABAE00BF1C37BD465DF8047B5A
:10567000704700BF000001400004004800080048D7
:10568000000C0048001000480008005880B483B0A7
:1056900000AF78600B467B8013467B707B78002BD5
:1056A00003D07A887B689A6102E07A887B689A6284
:1056B00000BF0C37BD465DF8047B704780B582B0F3
:1056C00000AF0346FB80084BDA68FB881340002BD1
:1056D00006D0054AFB88D360FB881846FBF74DF9D6
:1056E00000BF0837BD4680BD0008005880B582B0B5
:1056F00000AF0A4BDB687B60084B1A687B68DB43B2
:10570000064913400B60054A7B685360786800F0D7
:1057100007F800BF0837BD4680BD00BF0015005820
:1057200080B483B000AF786000BF0C37BD465DF831
:10573000047B704780B400AF054B1B68044A43F4F8
:105740008073136000BFBD465DF8047B704700BFE7
:105750000004005880B400AF044B1B6803F4C0631E
:105760001846BD465DF8047B704700BF0004005832
:1057700080B400AF4FF0B0431B6803F48013B3F55F
:10578000801F01D1012300E000231846BD465DF8CB
:10579000047B704780B400AF4FF0B0431B684FF0FC
:1057A000B04243F48023136000BFBD465DF8047B24
:1057B000704780B400AF4FF0B0431B684FF0B04269
:1057C00023F48023136000BFBD465DF8047B70475F
:1057D00080B400AF4FF0B0431B684FF0B04243F4C9
:1057E0008033136000BFBD465DF8047B704780B412
:1057F00000AF4FF0B0431B684FF0B04223F480334A
:10580000136000BFBD465DF8047B704780B400AFF5
:105810004FF0B0431B6803F40033B3F5003F01D1F0
:10582000012300E000231846BD465DF8047B704765
:1058300080B400AF4FF0B0431B684FF0B04243F468
:105840008073136000BFBD465DF8047B704780B471
:1058500000AF4FF0B0431B684FF0B04223F48073A9
:10586000136000BFBD465DF8047B704780B400AF95
:105870004FF0B0431B6803F48063B3F5806F01D130
:10588000012300E000231846BD465DF8047B704705
:1058900080B483B000AF78604FF0B0435B6823F012
:1058A000FE427B681B064FF0B04113434B6000BFC4
:1058B0000C37BD465DF8047B704780B400AF4FF0F5
:1058C000B043D3F898304FF0B04243F00103C2F830
:1058D000983000BFBD465DF8047B704780B400AFD0
:1058E0004FF0B043D3F898304FF0B04223F00103AB
:1058F000C2F8983000BFBD465DF8047B704780B4A5
:1059000000AF4FF0B043D3F8983003F00203022BFE
:1059100001D1012300E000231846BD465DF8047B59
:10592000704780B400AF4FF0B043D3F890304FF0E1
:10593000B04243F00103C2F8903000BFBD465DF8AD
:10594000047B704780B400AF4FF0B043D3F8903081
:105950004FF0B04223F00103C2F8903000BFBD46C3
:105960005DF8047B704780B400AF4FF0B043D3F8CC
:1059700090304FF0B04243F00403C2F8903000BFC3
:10598000BD465DF8047B704780B400AF4FF0B04374
:10599000D3F890304FF0B04223F00403C2F89030B7
:1059A00000BFBD465DF8047B704780B400AF4FF088
:1059B000B043D3F8903003F00203022B01D101234E
:1059C00000E000231846BD465DF8047B704780B4B4
:1059D00000AF4FF0B043D3F894304FF0B04243F0F3
:1059E0000103C2F8943000BFBD465DF8047B7047E8
:1059F00080B400AF4FF0B043D3F894304FF0B042D2
:105A000023F00103C2F8943000BFBD465DF8047B6B
:105A1000704780B400AF4FF0B043D3F8943003F038
:105A20000203022B01D1012300E000231846BD46EA
:105A30005DF8047B704780B400AF4FF0B043D3F8FB
:105A400094304FF0B04243F00403C2F8943000BFEA
:105A5000BD465DF8047B704780B400AF4FF0B043A3
:105A6000D3F894304FF0B04223F00403C2F89430DE
:105A700000BFBD465DF8047B704780B400AF4FF0B7
:105A8000B043D3F8943003F00803082B01D101236D
:105A900000E000231846BD465DF8047B704780B4E3
:105AA00083B000AF78604FF0B043D3F8943023F464
:105AB00070627B681B024FF0B0411343C1F8943011
:105AC00000BF0C37BD465DF8047B704780B400AF63
:105AD0004FF0B0431B684FF0B04243F00103136036
